:100000000C9472000C949A000C949A000C949A0030
:100010000C949A000C949A000C949A000C942C095D
:100020000C949A000C949A000C949A000C947B0AFD
:100030000C949A000C949A000C949A000C949A00D8
:100040000C94A20B0C949A000C949A000C949A00B5
:100050000C949A000C949A000C949A000C949A00B8
:100060000C949A000C949A0005A84CCDB2D44EB9C9
:100070003836A9020C50B9918688083CA6AAAA2A4B
:10008000BE000000803F00000000240027002A007E
:100090000000000800020100000304070000000047
:1000A0000000000001020408102040800102040842
:1000B0001020010204081020000000002500280084
:1000C0002B000404040404040404020202020202D9
:1000D000030303030303020000000023002600299A
:1000E00000002A0E11241FBECFEFD8E0DEBFCDBF27
:1000F00022E0A2ECB1E001C01D92AC3EB207E1F7F4
:1001000011E0A0E0B1E0E4ECF3E202C005900D9252
:10011000A23CB107D9F710E0C2E7D0E004C02197B4
:10012000FE010E94A10EC137D107C9F70E94310C10
:100130000C94E0110C9400003FB7F8948091C70133
:100140009091C801A091C901B091CA0126B5A89BA0
:1001500005C02F3F19F00196A11DB11D3FBFBA2F59
:10016000A92F982F8827820F911DA11DB11DBC01B9
:10017000CD0142E0660F771F881F991F4A95D1F77E
:1001800008952FB7F8946091C3017091C4018091D4
:10019000C5019091C6012FBF08952F923F924F92B3
:1001A0005F926F927F928F929F92AF92BF92CF9207
:1001B000DF92EF92FF920F931F93CF93DF9300D0C4
:1001C00000D0CDB7DEB71A01270138018B014C01F1
:1001D0009DEDC92E91E0D92E59017B0188E0E80EF2
:1001E000F11CF801819191918F01F6019383828333
:1001F000F401819191914F01F601918380833582C1
:100200002482628D738DC1010E948D0E80E090E08A
:100210000E94C10F9B01AC01F601668B778B808F2A
:10022000918F6BED7FE089EC90E40E94190FF6014D
:10023000628B738B848B958BF50181919191A19148
:10024000B1915F01F60186839783A087B187F9E2B8
:10025000CF0ED11C0E151F0521F60E94C1000E9471
:10026000C10F6B017C01B101330C880B990B0E940B
:10027000C30FA30192010E947810A70196010E946A
:10028000A80E4B015C01A5019401C701B6010E94B3
:10029000140F18160CF4ADC08AED282E81E0382E0C
:1002A00000E010E00E94C100F10163A374A385A3E4
:1002B00096A3C78CD0A0E1A0F2A02B013C014C1862
:1002C0005D086E087F08C58CD68CE12CF12CC41417
:1002D000D504E604F7040CF07CC0678F70A381A3FB
:1002E00092A3C8018E529E4F7C01FC0187A581110B
:1002F00060C0F10121853285438554856189728909
:10030000838994890E94A80E0E94E5109B01AC018C
:10031000F1016381748180E090E029833A834B830B
:100320005C830E94C10F29813A814B815C810E94CC
:1003300078102B013C01F1016581768180E090E02D
:100340000E94C10F9B01AC01C301B2010E94A80E23
:100350002B013C0120E030E0A9010E94731020E055
:1003600030E040E05FE387FD05C0C301B2010E94B9
:10037000A80E04C0C301B2010E94A70E0E948B0FF9
:10038000F10176876587F70180A9882331F071959F
:1003900061957109F10176876587F101658576853B
:1003A000665A7F4F87859089680F791FC1010E9427
:1003B000F809F101258936894789508D618972894B
:1003C000838994890E94A80EF101618B728B838BC3
:1003D000948B075D1F4FF9E22F0E311C043A110573
:1003E00009F060CF0E94C1000E94C10F6B017C0127
:1003F0004ACF0F900F900F900F90DF91CF911F91E8
:100400000F91FF90EF90DF90CF90BF90AF909F90B3
:100410008F907F906F905F904F903F902F900895B6
:10042000CF93DF93CDB7DEB7CC57D1090FB6F89491
:10043000DEBF0FBECDBF2CE7EDE2F1E0DE0111968D
:1004400001900D922A95E1F7660F771F660F771FCF
:10045000E1E0F0E0EC0FFD1FE60FF71F80819181D6
:10046000A281B3818093D2019093D301A093D40150
:10047000B093D50182ED91E0C458DF4F0FB6F894E8
:10048000DEBF0FBECDBFDF91CF910C94AE0990E0DF
:10049000FC01E057FF4F3491FC01EC55FF4F2491D4
:1004A000FC01EE53FF4FE491EE2309F43BC03323EC
:1004B00039F1333091F038F43130A9F0323001F5B0
:1004C00084B58F7D12C0373091F03830A1F03430D0
:1004D000B9F4809180008F7D03C0809180008F7778
:1004E000809380000DC084B58F7784BD09C0809152
:1004F000B0008F7703C08091B0008F7D8093B000F3
:10050000F0E0EE0FFF1FE854FF4FA591B4918FB7B5
:10051000F894EC91611103C020952E2301C02E2B7D
:100520002C938FBF0895CF93DF9390E0FC01EC559F
:10053000FF4F2491FC01EE53FF4F8491882361F11A
:1005400090E0880F991FFC01EA57FF4FC591D491A5
:10055000FC01E854FF4FA591B491611109C09FB708
:10056000F8948881209582238883EC912E230BC0F8
:10057000623061F49FB7F8943881822F809583238D
:100580008883EC912E2B2C939FBF06C08FB7F894D5
:10059000E8812E2B28838FBFDF91CF9108951F9381
:1005A000CF93DF93EC019881292F30E0F901EE0F12
:1005B000FF1F2E0F3F1FF901E954FD4F808186FD7B
:1005C00083C0162F9C3008F04EC061E0812F0E943E
:1005D00093028881E82FF0E09F01220F331FE20F82
:1005E000F31FE954FD4F1F736081607C162B10834D
:1005F00019821A826CE00E94810E9CE0899FB001F2
:10060000112440E050E09A01260F371FF901EE0F48
:10061000FF1F2E0F3F1FF901E954FD4F908196FDFA
:1006200016C04F5F5F4F4C30510569F781110FC005
:100630001092800082E080938100109285001092D9
:100640008400B19A80916F00826080936F00E8818E
:10065000F0E0CF01880F991FE80FF91FE954FD4F13
:100660008081806480836AE570E0CE010E94F80991
:100670008EE190E09E8F8D8F80ED97E098878F833D
:1006800080E090E0A4E8B2E4898F9A8FAB8FBC8FB2
:100690008AE198EFA2ECBDE38D8B9E8BAF8BB88F78
:1006A0001F8E18A219A21AA28DE290E09C838B8360
:1006B000198A1A8A1B8A1C8A19861A861B861C8626
:1006C0001E821D821FA218A6DF91CF911F9108954F
:1006D00060918202709183028AED91E00E94CF02C4
:1006E000609184027091850283E092E00E94CF02C3
:1006F00060918602709187028CE292E00E94CF02A4
:10070000609188027091890285E592E00C94CF0295
:100710002F923F924F925F926F927F928F929F9211
:10072000AF92BF92CF92DF92EF92FF920F931F93FF
:10073000CF93DF93CDB7DEB728970FB6F894DEBF1F
:100740000FBECDBF6C0178876F830E9468038091D4
:10075000B60281111092B6028F81988508961C010D
:100760009BE0C916D1040CF4C2C00D2C000CEE089D
:10077000FF08C701B6010E94C30F20E030E040E24D
:1007800051E40E94190F4B015C010F81188526EA84
:10079000422E22E0522E32E9632E32E0732EF8010F
:1007A000619171918F01F301819191913F01681BDA
:1007B000790B072E000C880B990B0E94C30FA50123
:1007C00094010E94190FF2016193719381939193A7
:1007D0002F010215130519F70E94C100C60ED71E7E
:1007E000E81EF91EC0929E02D0929F02E092A002E3
:1007F000F092A10244244394512C0E94C100009124
:100800009E0210919F022091A0023091A1026017D8
:1008100071078207930708F07FC00E94C100DC01C6
:10082000CB010A96A11DB11D8093A2029093A30251
:10083000A093A402B093A5020AED11E086EA682E07
:1008400082E0782E82E992E09A8389834201052C26
:10085000000CAA08BB08E981FA8161917191FA83C1
:10086000E983F30121913191419151913F01072E8B
:10087000000C880B990B2B833C834D835E830E9475
:10088000C30F6B017C01C501B4010E94C30F2B8112
:100890003C814D815E810E9478109B01AC01C701B3
:1008A000B6010E94A80E0E948B0FF801278530899F
:1008B000620F731FC8010E94F809075D1F4FF6EB16
:1008C0006F16F2E07F0639F60E94C1000091A20285
:1008D0001091A3022091A4023091A5026017710724
:1008E0008207930788F38FEF481A580A86CFEF8064
:1008F000F8840AED11E0F701619171917F01F8012F
:1009000087859089680F791FC8010E94F809075DE3
:100910001F4FE214F30479F7AF81B885E2E9F2E002
:100920008D919D9181939193A215B305C9F7289656
:100930000FB6F894DEBF0FBECDBFDF91CF911F91F0
:100940000F91FF90EF90DF90CF90BF90AF909F906E
:100950008F907F906F905F904F903F902F90089571
:10096000CF93DF93CDB7DEB728970FB6F894DEBFED
:100970000FBECDBF8091B602811123C088E0E9EAA5
:10098000F1E0DE01119601900D928A95E1F7BE012A
:100990006F5F7F4F84EF91E00E9488038AED91E0C2
:1009A0000E94E80983E092E00E94E8098CE292E06C
:1009B0000E94E80985E592E00E94E80981E08093C1
:1009C000B60228960FB6F894DEBF0FBECDBFDF91FA
:1009D000CF9108952F923F924F925F926F927F92A4
:1009E0008F929F92AF92BF92CF92DF92EF92FF923F
:1009F0000F931F93CF93DF93CDB7DEB728970FB632
:100A0000F894DEBF0FBECDBF9A8389837C836B834E
:100A10005E834D831901270138010E94680380918C
:100A2000B60281111092B602C301B2010E948B0F6F
:100A30004B015C016B011616170684F1B401990C89
:100A4000880B990B0E94C30F9B01AC01C301B2013B
:100A50000E94A70E7B018C0191014D815E816B810B
:100A60007C8189819A810E94CD0028960FB6F894E6
:100A7000DEBF0FBECDBFDF91CF911F910F91FF90D1
:100A8000EF90DF90CF90BF90AF909F908F907F902E
:100A90006F905F904F903F902F90089518861F821F
:100AA000E12CF12C00E81FE391014D815E816B8107
:100AB0007C8189819A810E94CD008F8198850196E1
:100AC00098878F838C159D0559F7B8CF4F925F9209
:100AD0006F927F92AF92BF92CF92DF92EF92FF928E
:100AE0000F931F93CF93DF93CDB7DEB7A0970FB6C9
:100AF000F894DEBF0FBECDBF2B013C015A0188E048
:100B0000E1EBF1E0DE01599601900D928A95E1F753
:100B100088E0E9EBF1E0DE01519601900D928A95B3
:100B2000E1F7CE0101966C0180E1F60111928A9500
:100B3000E9F746EA4203C001439F900D1124BC012E
:100B4000990F880B990B0E94C30F2BED3FE049E4EE
:100B500050E40E94781020E030E044E353E40E9427
:100B6000190F69877A878B879C876D877E878F8728
:100B7000988B830172019601A501BE016F5E7F4FC4
:100B8000CE0149960E94EA04A0960FB6F894DEBF03
:100B90000FBECDBFDF91CF911F910F91FF90EF90CE
:100BA000DF90CF90BF90AF907F906F905F904F900D
:100BB00008958F929F92AF92BF92CF92DF92EF9261
:100BC000FF926B017C010E949C004B015C01C114EF
:100BD000D104E104F104F1F00E949C00DC01CB019E
:100BE00088199909AA09BB09883E9340A105B10556
:100BF00070F321E0C21AD108E108F10888EE880EEE
:100C000083E0981EA11CB11CC114D104E104F104BD
:100C100019F7DDCFFF90EF90DF90CF90BF90AF90AE
:100C20009F908F9008953F924F925F926F927F9224
:100C30008F929F92AF92BF92CF92DF92EF92FF92EC
:100C40000F931F93CF93DF93CDB7DEB728970FB6DF
:100C5000F894DEBF0FBECDBF29013A010115110581
:100C600011F401E010E0E0909A02F0909B022091D4
:100C700000012E1521F02F3F09F0DEC104C0E6ED82
:100C8000F0E0349081C0E0920001E6EDF0E0E49104
:100C9000EF3F09F4D1C1E13031F1E23009F44BC04A
:100CA000E11171C014BC15BC24B5226024BD25B56A
:100CB000216025BDA7015527FA01EE53FF4FE491AE
:100CC000F0E0EE0FFF1FE854FF4F25913491309371
:100CD000E0022093DF02FA01EC55FF4FE491E0932C
:100CE000DE02312C53C010928000109281002091BE
:100CF0008100286020938100209181002160209351
:100D00008100A7015527FA01EE53FF4FE491F0E06F
:100D1000EE0FFF1FE854FF4F259134913093DD0211
:100D20002093DC02FA01EC55FF4FE491E093DB02E3
:100D3000332433942BC01092B0001092B100209154
:100D4000B00022602093B0002091B1002160209378
:100D5000B100A7015527FA01EE53FF4FE491F0E0EF
:100D6000EE0FFF1FE854FF4F259134913093CD01D2
:100D70002093CC01FA01EC55FF4FE491E093CB01B5
:100D8000B2E03B2E03C03E2E37FC56C10E94920FAC
:100D90006D837E838F83988761E08E2D0E949302FE
:100DA0008D819E814C01A12CB12C832D8D7F09F06A
:100DB000BBC060E072E18AE790E0A50194010E9467
:100DC0007D1129833A834B835C8369017A0191E029
:100DD000C91AD108E108F108EFEFCE16D104E104F9
:100DE000F10409F008F44CC060E472E48FE090E094
:100DF000A50194010E947D1169017A01F1E0CF1AE9
:100E0000D108E108F10822E0321220C08FEFC816A5
:100E1000D104E104F10409F008F48BC160E970ED3C
:100E200083E090E0A50194010E947D1169017A019F
:100E300091E0C91AD108E108F108EFEFCE16D1040C
:100E4000E104F10409F0D0F583E067C0FFEFCF16AD
:100E5000D104E104F104B1F0A8F068E478EE81E097
:100E600090E0A50194010E947D1169017A0181E061
:100E7000C81AD108E108F108332009F438C12EC19D
:100E800081E001C082E03320A1F047C089819A81CE
:100E9000AB81BC812AE0B595A795979587952A9552
:100EA000D1F76C017D01E1E0CE1AD108E108F1082B
:100EB00085E095B5987F892B85BD6FC068E478EE95
:100EC00081E090E0A50194010E947D1169017A0101
:100ED000E1E0CE1AD108E108F108FFEFCF16D10406
:100EE000E104F10409F008F4C8C064E274EF80E0A2
:100EF00090E0A50194010E947D1169017A0191E0C1
:100F0000C91AD108E108F108EFEFCE16D104E104C7
:100F1000F10411F008F0B3C085E09091B100987F22
:100F2000892B8093B10039C060E072E18AE790E0DC
:100F3000A50194010E947D1169017A0181E0C81A1E
:100F4000D108E108F108C114D10491E0E906F104E7
:100F500088F068E478EE81E090E0A50194010E94B9
:100F60007D1169017A01E1E0CE1AD108E108F108AA
:100F700093E001C091E0F1E03F120FC08091810049
:100F8000887F892B8093810041145104610471048E
:100F900049F42FEF3FEFA9012EC041145104610421
:100FA000710479F0AD81BE81AA0FBB1FA30192012C
:100FB0000E949C1128EE33E040E050E00E94AF1107
:100FC00003C02FEF3FEFA90181E03816A1F092E0B6
:100FD000391619F1311030C0C7BC2093E5023093A7
:100FE000E6024093E7025093E80280916E0082602F
:100FF00080936E0021C0D0928900C0928800209317
:10100000E1023093E2024093E3025093E4028091C4
:101010006F00826080936F000FC0C092B300209376
:10102000CE013093CF014093D0015093D1018091F4
:101030007000826080937000C301B2010E94D905E4
:10104000B801110F880B990B28960FB6F894DEBFE4
:101050000FBECDBFDF91CF911F910F91FF90EF9009
:10106000DF90CF90BF90AF909F908F907F906F90C8
:101070005F904F903F900C94D90584E04ECF62E191
:101080007AE780E090E0A50194010E947D1169015A
:101090007A0181E0C81AD108E108F1089FEFC9166A
:1010A000D104E104F104C1F0B8F089819A81AB81E7
:1010B000BC814AE0B595A795979587954A95D1F754
:1010C0006C017D01F1E0CF1AD108E108F10833206D
:1010D00009F4EECE87E021CF86E0D5CEEFEFCE1635
:1010E000D104E104F10409F050F684E0CCCE8FEF96
:1010F000C816D104E104F104D1F0C8F062E17AE746
:1011000080E090E0A50194010E947D1169017A01BF
:10111000F1E0CF1AD108E108F1082FEFC216D1048F
:10112000E104F10411F008F0B1CE84E0C2CE83E016
:10113000C0CE82E0F2CE4F925F926F927F928F92FA
:101140009F92AF92BF92CF92DF92EF92FF920F9356
:101150001F93CF93DF93CDB7DEB728970FB6F894E0
:10116000DEBF0FBECDBF2B013C0129833A834B83E9
:101170005C83ED82FE820F8318878114910419F439
:1011800088248394912C29813A814B815C81C3010D
:10119000B2010E94140F87FF24C0C301B2010E9454
:1011A0008B0F072E000C880B990B0E94C30F2B018D
:1011B0003C0129813A814B815C810E94140F87FF99
:1011C00034C08401A6019501C301B2010E94130637
:1011D0002D813E814F815885C301B2010E94781054
:1011E000DECFC301B2010E948B0F072E000C880BCB
:1011F000990B0E94C30F2B013C0129813A814B813D
:101200005C810E947310181684F48401A601950174
:10121000C301B2010E9413062D813E814F81588582
:10122000C301B2010E94190FDECF28960FB6F894C1
:10123000DEBF0FBECDBFDF91CF911F910F91FF9009
:10124000EF90DF90CF90BF90AF909F908F907F9066
:101250006F905F904F9008951F920F920FB60F926C
:1012600011242F933F934F935F936F937F938F93AB
:101270009F93AF93BF93EF93FF938091CE01909193
:10128000CF01A091D001B091D101892B8A2B8B2B5A
:1012900059F18091CB01E091CC01F091CD01908189
:1012A000892780838091CE019091CF01A091D001B8
:1012B000B091D101181619061A061B060CF03DC094
:1012C0008091CE019091CF01A091D001B091D10138
:1012D0000197A109B1098093CE019093CF01A0930A
:1012E000D001B093D10129C080910001E6EDF0E07A
:1012F000E4919FEF90930001E130B9F098F0E23073
:10130000C9F4909170009D7F9093700091E090934C
:10131000B0009091B100987F94609093B1001092CA
:10132000B30008C010926E0005C090916F009D7FC1
:1013300090936F0060E00E944702FF91EF91BF9190
:10134000AF919F918F917F916F915F914F913F915D
:101350002F910F900FBE0F901F9018950F931F9312
:10136000CF93DF93EC0100E010E088819981AA819E
:10137000BB81002E04C0B695A795979587950A94D2
:10138000D2F7682F61708C810E9447020000000034
:10139000000061E08D810E94470200000000000013
:1013A00060E08D810E9447020F5F1F4F0E311105D3
:1013B000E1F661E08E810E9447020000000000001B
:1013C00060E08E81DF91CF911F910F910C944702C5
:1013D000DC01EC91F0E0CF01880F991FE80FF91FB5
:1013E000E954FD4F808186FF02C08F7B8083089582
:1013F000CF92DF92EF92FF92CF93DF93EC016032B6
:1014000082E078070CF03DC077FD06C0653B7105B2
:101410002CF064EB70E002C060E070E0898128E8A5
:1014200030E06901C81AD10887FDD394CC0CDD1CCB
:10143000CC0CDD1C0D2C000CEE08FF088A8128E581
:1014400032E0281B310987FD3395220F331F220F0D
:10145000331FC901330FAA0BBB0B9C01AD012C1923
:101460003D094E095F09DB010E94A71124EB30E022
:1014700040E050E00E947D11C20ED31EE41EF51E16
:10148000B60188818C3080F5998148E850E0491B8D
:10149000510997FD5395440F551F440F551F64176D
:1014A000750784F09A8128E532E0291B310997FD00
:1014B0003395220F331F220F331FAB012617370737
:1014C0000CF4A90142505109440F551F2FB7F8944D
:1014D00090E0FC01EE0FFF1F8E0F9F1FFC01E954EF
:1014E000FD4F528341832FBFDF91CF91FF90EF904B
:1014F000DF90CF9008951F920F920FB60F92112494
:101500002F933F934F935F936F937F938F939F930B
:10151000AF93BF93EF93FF938091EA0287FF05C0DB
:1015200010928500109284001BC02091EA02022EC6
:10153000000C330B8091E90290E02817390784F4FE
:101540008091EA02082E000C990BFC01EE0FFF1FA0
:101550008E0F9F1FFC01E954FD4F808186FD15C051
:101560008091EA028F5F8093EA022091EA02022EC4
:10157000000C330B8091E90290E028173907C4F47E
:101580008091EA028C3064F113C08091EA02082E47
:10159000000C990BFC01EE0FFF1F8E0F9F1FFC012B
:1015A000E954FD4F808160E08F730E944702D8CFDD
:1015B0008091840090918500049680349C4918F4B1
:1015C00080E49CE905C08091840090918500049698
:1015D00090938900809388008FEF8093EA023BC04C
:1015E00020918400309185008091EA02082E000C41
:1015F000990BFC01EE0FFF1F8E0F9F1FFC01E9549A
:10160000FD4F81819281820F931F90938900809377
:1016100088008091EA02082E000C990BFC01EE0F65
:10162000FF1F8E0F9F1FFC01E954FD4F808186FF35
:1016300012C08091EA02082E000C990BFC01EE0FFB
:10164000FF1F8E0F9F1FFC01E954FD4F808161E059
:101650008F730E944702FF91EF91BF91AF919F91CD
:101660008F917F916F915F914F913F912F910F904B
:101670000FBE0F901F9018950F931F9360E08091FD
:101680007E020E94470283E090E00197F1F761E05B
:1016900080917E020E94470283E290E00197F1F779
:1016A00060E080917E020E944702809180029091CA
:1016B00081029927FC01EC55FF4F6491FC01EE5328
:1016C000FF4FE491F0E0EE0FFF1FE952FF4F8591CD
:1016D000949100E41CE920E030E0462F0E94EC0BDE
:1016E000611571058105910549F0DC01CB01019679
:1016F000A11DB11DBC01CD019F7003C060E070E071
:10170000CB012AE330E040E050E00E947D1121153A
:1017100031054105510521F427EE33E040E050E06A
:10172000CA01B9010E94C30F0E948B0F6F3071056F
:1017300024F481E08093C20102C01092C2011F9183
:101740000F9108951F920F920FB60F9211242F93AD
:101750003F938F939F93AF93BF938091C3019091D9
:10176000C401A091C501B091C6013091EB0223E004
:10177000230F2D3720F40196A11DB11D05C026E8C9
:10178000230F0296A11DB11D2093EB028093C3018C
:101790009093C401A093C501B093C6018091C70185
:1017A0009091C801A091C901B091CA010196A11DF3
:1017B000B11D8093C7019093C801A093C901B09354
:1017C000CA01BF91AF919F918F913F912F910F903F
:1017D0000FBE0F901F901895CF92DF92EF92FF925D
:1017E0000F931F93E82FF92F05C00150110921090C
:1017F000310961F1908196239417B9F305C0015026
:1018000011092109310911F1908196239413F7CF21
:10181000C12CD12CE12CF12C0AC08FEFC81AD80AA8
:10182000E80AF80A0C151D052E053F0579F08081A0
:101830008623841791F36C2D7D2D8E2D9F2D1F9166
:101840000F91FF90EF90DF90CF90089560E070E0EF
:1018500080E090E01F910F91FF90EF90DF90CF908C
:101860000895CF93DF93CDB7DEB7A0970FB6F89466
:10187000DEBF0FBECDBF789484B5826084BD84B5D1
:10188000816084BD85B5826085BD85B5816085BD7B
:1018900080916E00816080936E0010928100809133
:1018A00081008260809381008091810081608093BB
:1018B0008100809180008160809380008091B100E0
:1018C00084608093B1008091B00081608093B0000B
:1018D00080917A00846080937A0080917A0082609F
:1018E00080937A0080917A00816080937A00809161
:1018F0007A00806880937A001092C10082E090E0C4
:10190000909383028093820283E090E0909385021B
:101910008093840284E090E0909387028093860213
:1019200085E090E090938902809388020E9468038A
:101930001092B60202ED11E0612C712CC3010E94DD
:101940007511282F30E0213831050CF03A95F80157
:10195000308F278BFFEF6F1A7F0A075D1F4F84E0E0
:101960006816710459F78AE590E09093930280938A
:1019700092029093950280939402909397028093A1
:101980009602909399028093980288E090E0909359
:101990007F0280937E0289E090E0909381028093A1
:1019A000800261E088E00E94930260E08091800202
:1019B0000E9493028AE090E090939B0280939A02A7
:1019C00084E190E090939D0280939C0261E08AE024
:1019D0000E94930260E084E10E9493020EE110E015
:1019E00022E330E040E050E064EA70ED84E294E409
:1019F0000E94130609E110E027E330E040E050E0E8
:101A000062E570ED84EA94E40E9413060AE010E0B7
:101A10002CE330E040E050E060E070E08CED94E4D6
:101A20000E9413060E94B00462E370E080E090E040
:101A30000E94D90510E0212E10E0312E0AE0602E20
:101A4000712C8EE1482E512C8091C201882309F41B
:101A5000EEC088248394912C5AE0A52EB12CC12C81
:101A6000D12C1CE5E12E1FE8F12E02E81FE320E057
:101A700030E646E055E460E070E088E494E40E94DB
:101A80009B0877E0A72EB12CC12CD12C1AE0E12EB7
:101A900017EDF12E03E81FE320E030E048E454E4C2
:101AA00060E070E586E095E40E949B08E5E0F1E0E7
:101AB000DE01119688E001900D928A95E1F76EE1C2
:101AC00070E080E090E00E941002F4E08F2E912CF4
:101AD000A4E1AA2EB12CC12CD12C1CE5E12E1FE8CB
:101AE000F12E02E81FE32FE135ED42E954E460E016
:101AF00070E08CE594E40E949B0824EA30ED44E217
:101B000054E460E070E08CE594E40E949B086CE291
:101B100071E080E090E00E94D90563E170E080E030
:101B200090E00E94100204E010E0BE016F5F7F4F62
:101B300084E690E00E9488030E94B00401501109DD
:101B4000A1F76EE170E080E090E00E94100264EF87
:101B500071E080E090E00E94D9050E94B0046BE043
:101B600070E080E090E00E94100284E1882E912CC9
:101B700092E0A92EB12CC12CD12C1CE5E12E1FE83E
:101B8000F12E02E81FE320E030E04AE755E460E090
:101B900070E088EC94E40E949B0820E030E84BE37E
:101BA00055E460E070E08AE795E40E949B082FEF1F
:101BB0003FEF44E155E060E070E080E090E40E9497
:101BC0006605EDE0F1E0DE01599688E001900D92A6
:101BD0008A95E1F7E5E1F1E0DE01519688E00190B8
:101BE0000D928A95E1F7EDE1F1E0DE01119680E1D9
:101BF00001900D928A95E1F77A8E698E5C8E4B8EFC
:101C0000E12CF12C00E010E49E012F5F3F4F48EEE5
:101C100053E0BE016F5E7F4FCE0149960E94EA04F9
:101C200062E370E080E090E00E94D9050AC021E004
:101C300030E048EE53E060E070E080E89FE30E940F
:101C400066050E943C0B2114310409F4FDCE0E946C
:101C50000000FACE1092D2011092D3011092D4015A
:101C60001092D5018BE08093D6018DE08093D7014F
:101C70008CE08093D80161E08BE00E94930261E0E8
:101C80008091D7010E94930261E08091D8010E9467
:101C9000930260E08091D6010E94470260E080914B
:101CA000D7010E94470260E08091D8010E9447025C
:101CB00082ED91E00E94AE098091E902EAEDF1E047
:101CC0009FEF48EB5BE08C3088F48083282F30E076
:101CD000D901AA0FBB1F2A0F3B1FD901A954BD4F21
:101CE00012965C934E9311978F5F01C09083108A78
:101CF0001786B99622E0EE37F20729F78093E902BA
:101D00000895991B79E004C0991F961708F0961B57
:101D1000881F7A95C9F780950895AA1BBB1B51E1CE
:101D200007C0AA1FBB1FA617B70710F0A61BB70B4B
:101D3000881F991F5A95A9F780959095BC01CD01F0
:101D40000895EE0FFF1F0590F491E02D099450586F
:101D5000BB27AA270E94BF0E0C9439100E942B109B
:101D600038F00E94321020F039F49F3F19F426F425
:101D70000C9428100EF4E095E7FB0C942210E92F48
:101D80000E944A1058F3BA17620773078407950731
:101D900020F079F4A6F50C946C100EF4E0950B2E5F
:101DA000BA2FA02D0B01B90190010C01CA01A001AD
:101DB0001124FF27591B99F0593F50F4503E68F108
:101DC0001A16F040A22F232F342F4427585FF3CF49
:101DD000469537952795A795F0405395C9F77EF41A
:101DE0001F16BA0B620B730B840BBAF09150A1F063
:101DF000FF0FBB1F661F771F881FC2F70EC0BA0FE9
:101E0000621F731F841F48F4879577956795B79570
:101E1000F7959E3F08F0B0CF9395880F08F099276B
:101E2000EE0F9795879508950E94FE0F08F481E0C4
:101E300008950E942D0F0C9439100E94321058F012
:101E40000E942B1040F029F45F3F29F00C942210DF
:101E500051110C946D100C9428100E944A1068F3D4
:101E60009923B1F3552391F3951B550BBB27AA2753
:101E700062177307840738F09F5F5F4F220F331F8D
:101E8000441FAA1FA9F335D00E2E3AF0E0E832D055
:101E900091505040E695001CCAF72BD0FE2F29D058
:101EA000660F771F881FBB1F261737074807AB072A
:101EB000B0E809F0BB0B802DBF01FF2793585F4F9F
:101EC0003AF09E3F510578F00C9422100C946D105E
:101ED0005F3FE4F3983ED4F3869577956795B79581
:101EE000F7959F5FC9F7880F911D9695879597F98C
:101EF0000895E1E0660F771F881FBB1F6217730705
:101F00008407BA0720F0621B730B840BBA0BEE1F19
:101F100088F7E09508950E94920F6894B1110C948F
:101F20006D1008950E94521088F09F5798F0B92FB5
:101F30009927B751B0F0E1F0660F771F881F991FFE
:101F40001AF0BA95C9F714C0B13091F00E946C1024
:101F5000B1E008950C946C10672F782F8827B85F34
:101F600039F0B93FCCF3869577956795B395D9F756
:101F70003EF490958095709561957F4F8F4F9F4F60
:101F80000895E89409C097FB3EF49095809570956C
:101F900061957F4F8F4F9F4F9923A9F0F92F96E9B5
:101FA000BB279395F695879577956795B795F1112A
:101FB000F8CFFAF4BB0F11F460FF1BC06F5F7F4FC7
:101FC0008F4F9F4F16C0882311F096E911C07723D9
:101FD00021F09EE8872F762F05C0662371F096E8E2
:101FE000862F70E060E02AF09A95660F771F881FB1
:101FF000DAF7880F9695879597F90895990F000855
:10200000550FAA0BE0E8FEEF16161706E807F907CA
:10201000C0F012161306E407F50798F0621B730B65
:10202000840B950B39F40A2661F0232B242B252BE6
:1020300021F408950A2609F4A140A6958FEF811D89
:10204000811D089597F99F6780E870E060E008952A
:102050009FEF80EC089500240A94161617061806C0
:102060000906089500240A9412161306140605069C
:102070000895092E0394000C11F4882352F0BB0F2D
:1020800040F4BF2B11F460FF04C06F5F7F4F8F4F90
:102090009F4F089557FD9058440F551F59F05F3FCB
:1020A00071F04795880F97FB991F61F09F3F79F07A
:1020B00087950895121613061406551FF2CF4695FC
:1020C000F1DF08C0161617061806991FF1CF86957E
:1020D0007105610508940895E894BB276627772762
:1020E000CB0197F908950E94FE0F08F48FEF089531
:1020F0000E948B100C9439100E942B1038F00E9413
:10210000321020F0952311F00C9422100C9428101A
:1021100011240C946D100E944A1070F3959FC1F326
:10212000950F50E0551F629FF001729FBB27F00D85
:10213000B11D639FAA27F00DB11DAA1F649F6627DA
:10214000B00DA11D661F829F2227B00DA11D621F29
:10215000739FB00DA11D621F839FA00D611D221FE3
:10216000749F3327A00D611D231F849F600D211DC7
:10217000822F762F6A2F11249F5750409AF0F1F04A
:1021800088234AF0EE0FFF1FBB1F661F771F881FB3
:1021900091505040A9F79E3F510580F00C942210B9
:1021A0000C946D105F3FE4F3983ED4F386957795D9
:1021B0006795B795F795E7959F5FC1F7FE2B880F59
:1021C000911D9695879597F908959F930E94EF101A
:1021D0000F9007FCEE5F0C9418110C9428100E94CD
:1021E0005210D8F3E894E0E0BB279F57F0F02AEDB7
:1021F0003FE049EC06C0EE0FBB0F661F771F881F3C
:1022000028F0B23A62077307840728F0B25A620BCB
:10221000730B840BE3959A9572F7803830F49A9596
:10222000BB0F661F771F881FD2F790480C942E11A2
:10223000EF93E0FF07C0A2EA2AED3FE049EC5FEB35
:102240000E94BF0E0E9439100F90039401FC905819
:10225000E8E6F0E00C943A119F3F31F0915020F401
:10226000879577956795B795880F911D9695879572
:1022700097F908959F938F937F936F93FF93EF93B5
:102280009B01AC010E947810EF91FF910E944E11CA
:102290002F913F914F915F910C947810DF93CF93E2
:1022A0001F930F93FF92EF92DF927B018C01689452
:1022B00006C0DA2EEF010E948B10FE01E894A59172
:1022C0002591359145915591A6F3EF010E94BF0EDE
:1022D000FE019701A801DA9469F7DF90EF90FF9073
:1022E0000F911F91CF91DF910895F999FECF92BD83
:1022F00081BDF89A992780B50895052E97FB1EF4A5
:1023000000940E94941157FD07D00E94AF1107FC62
:1023100003D04EF40C94941150954095309521952E
:102320003F4F4F4F5F4F0895909580957095619501
:102330007F4F8F4F9F4F08950E94D111A59F900D01
:10234000B49F900DA49F800D911D11240895B7FF97
:102350000C949C110E949C11821B930B0895A1E286
:102360001A2EAA1BBB1BFD010DC0AA1FBB1FEE1F0F
:10237000FF1FA217B307E407F50720F0A21BB30B5A
:10238000E40BF50B661F771F881F991F1A9469F7D6
:1023900060957095809590959B01AC01BD01CF0132
:1023A0000895A29FB001B39FC001A39F700D811D2E
:1023B0001124911DB29F700D811D1124911D08954E
:0423C000F894FFCFBF
:1023C400FF010000005A005A005A006E001E001E51
:1023D4000014001400000000000400FCFF000000D2
:1023E4000000000000DB0FC9BFDB0FC9BF8C24490C
:1023F4000C0E4130041E42480C8C44480C82E049C7
:10240400129CC0411E8CC421041042081E8CC44876
:102414000C8EE0480C002385000023FD0000E0FD45
:10242400008C14B6128C144A0C00C3000080912452
:102434003F80D4B63F0020B53F00F0030080582110
:10244400000281402040283100C02F3100C0EC310F
:102454000000420901A1C448210441480C10C221D2
:102464000480D4860040187A005A005A005A005A50
:10247400001E001E0014001400000000000400FCF4
:02248400FF0057
:00000001FF
