:100000000C946C000C9494000C9494000C94940048
:100010000C9494000C9494000C9494000C94DE03C3
:100020000C9494000C9494000C9494000C94B804D8
:100030000C9494000C9494000C9494000C949400F0
:100040000C9494030C9494000C9486040C94600417
:100050000C9494000C9494000C9494000C949400D0
:100060000C9494000C94940002496E7465726E6155
:100070006C2054656D70657261747572652053658E
:100080006E736F720000000000240027002A000039
:10009000000000250028002B0004040404040404CC
:1000A0000402020202020203030303030301020427
:1000B00008102040800102040810200102040810EA
:1000C00020000000080002010000030407000000F7
:1000D000000000000000790511241FBECFEFD8E01A
:1000E000DEBFCDBF22E0A0E2B1E001C01D92A23E82
:1000F000B207E1F711E0A0E0B1E0E2E2F6E102C010
:1001000005900D92A032B107D9F710E0CCE6D0E00F
:1001100004C02197FE010E948908CB36D107C9F798
:100120000E944B060C940F0B0C94000090E0FC0115
:10013000EF53FF4F3491FC01E355FF4F2491FC0135
:10014000E756FF4FE491EE2309F43BC0332339F126
:10015000333091F038F43130A9F0323001F584B504
:100160008F7D12C0373091F03830A1F03430B9F4BF
:10017000809180008F7D03C0809180008F77809375
:1001800080000DC084B58F7784BD09C08091B00018
:100190008F7703C08091B0008F7D8093B000F0E036
:1001A000EE0FFF1FE157FF4FA591B4918FB7F89461
:1001B000EC91611103C020952E2301C02E2B2C93AE
:1001C0008FBF0895CF93DF9390E0FC01E355FF4F7D
:1001D0002491FC01E756FF4F8491882361F190E060
:1001E000880F991FFC01EB57FF4FC591D491FC017B
:1001F000E157FF4FA591B491611109C09FB7F894E1
:100200008881209582238883EC912E230BC0623055
:1002100061F49FB7F8943881822F80958323888377
:10022000EC912E2B2C939FBF06C08FB7F894E881DA
:100230002E2B28838FBFDF91CF9108953FB7F8947D
:100240008091370190913801A0913901B0913A0124
:1002500026B5A89B05C02F3F19F00196A11DB11D21
:100260003FBFBA2FA92F982F8827820F911DA11D5C
:10027000B11DBC01CD0142E0660F771F881F991F99
:100280004A95D1F708952FB7F89460913301709192
:10029000340180913501909136012FBF0895CF929E
:1002A000DF92EF92FF920F931F93CF93DF936C0136
:1002B0007A018B01C0E0D0E0CE15DF0589F0D801CE
:1002C0006D918D01D601ED91FC910190F081E02DB1
:1002D000C6010995892B11F47E0102C02196ECCF4D
:1002E000C701DF91CF911F910F91FF90EF90DF90A9
:1002F000CF900895FC01918D828D981761F0828DC9
:10030000DF01A80FB11D5D968C91928D9F5F9F7349
:10031000928F90E008958FEF9FEF0895FC01918DEB
:10032000828D981731F0828DE80FF11D858D90E058
:1003300008958FEF9FEF0895FC01918D228D892FF5
:1003400090E0805C9F4F821B91098F7399270895DD
:100350008BE391E00E949C0121E0892B09F420E0CD
:10036000822F0895FC01848DDF01A80FB11DA35ACF
:10037000BF4F2C91848D90E001968F739927848FC5
:10038000A689B7892C93A089B1898C9180648C93BC
:10039000938D848D981306C00288F389E02D8081A7
:1003A0008F7D80830895EF92FF920F931F93CF93D9
:1003B000DF93EC0181E0888F9B8D8C8D981305C0B5
:1003C000E889F989808185FD24C0F62E0B8D10E027
:1003D0000F5F1F4F0F731127E02E8C8DE8120CC09A
:1003E0000FB607FCFACFE889F989808185FFF5CF40
:1003F000CE010E94B201F1CF8B8DFE01E80FF11DFD
:10040000E35AFF4FF0820B8FEA89FB89808180627B
:1004100007C0EE89FF896083E889F989808180645B
:10042000808381E090E0DF91CF911F910F91FF9049
:10043000EF900895CF93DF93EC01888D8823C9F066
:10044000EA89FB89808185FD05C0A889B9898C91DD
:1004500086FD0FC00FB607FCF5CF808185FFF2CF78
:10046000A889B9898C9185FFEDCFCE010E94B20198
:10047000E7CFDF91CF91089580E090E0892B29F0BC
:100480000E94A80181110C9400000895DC01EC91F8
:10049000F0E0CF01880F991FE80FF91FE852FE4FD7
:1004A000808186FF02C08F7B80830895CF92DF9288
:1004B000EF92FF92CF93DF93EC01603282E07807F6
:1004C0000CF03DC077FD06C0653B71052CF064EB78
:1004D00070E002C060E070E0898128E830E06901E6
:1004E000C81AD10887FDD394CC0CDD1CCC0CDD1CC4
:1004F0000D2C000CEE08FF088A8128E532E0281B4D
:10050000310987FD3395220F331F220F331FC90195
:10051000330FAA0BBB0B9C01AD012C193D094E09F1
:100520005F09DB010E94D60A24EB30E040E050E096
:100530000E94AC0AC20ED31EE41EF51EB6018881CD
:100540008C3080F5998148E850E0491B510997FDAE
:100550005395440F551F440F551F6417750784F0BA
:100560009A8128E532E0291B310997FD3395220F46
:10057000331F220F331FAB01261737070CF4A901D5
:1005800042505109440F551F2FB7F89490E0FC01D9
:10059000EE0FFF1F8E0F9F1FFC01E852FE4F52838C
:1005A00041832FBFDF91CF91FF90EF90DF90CF90ED
:1005B00008951F93CF93DF93EC019881292F30E0AA
:1005C000F901EE0FFF1F2E0F3F1FF901E852FE4FFA
:1005D000808186FD83C0162F9C3008F04EC061E0FC
:1005E000812F0E94E2008881E82FF0E09F01220F16
:1005F000331FE20FF31FE852FE4F1F736081607CD0
:10060000162B108319821A826CE00E947D089CE0F0
:10061000899FB001112440E050E09A01260F371F56
:10062000F901EE0FFF1F2E0F3F1FF901E852FE4F99
:10063000908196FD16C04F5F5F4F4C30510569F7B2
:1006400081110FC01092800082E08093810010928F
:10065000850010928400B19A80916F00826080932F
:100660006F00E881F0E0CF01880F991FE80FF91FB4
:10067000E852FE4F8081806480836AE570E0CE019D
:100680000E9456028EE190E09E8F8D8F80ED97E064
:1006900098878F8380E090E0A4E8B2E4898F9A8FF6
:1006A000AB8FBC8F8AE198EFA2ECBDE38D8B9E8B64
:1006B000AF8BB88F1F8E18A219A21AA28DE290E0FC
:1006C0009C838B83198A1A8A1B8A1C8A19861A862C
:1006D0001B861C861E821D821FA218A6DF91CF9149
:1006E0001F9108956091AD027091AE0285E092E095
:1006F0000E94D9026091AF027091B0028EE292E046
:100700000E94D9026091B1027091B20287E592E035
:100710000E94D9026091B3027091B40280E892E025
:100720000C94D9020E949F0A1F920F920FB60F924B
:1007300011242F933F938F939F93AF93BF938091F7
:10074000330190913401A0913501B091360130917F
:10075000320123E0230F2D3720F40196A11DB11D96
:1007600005C026E8230F0296A11DB11D209332017A
:100770008093330190933401A0933501B0933601F7
:100780008091370190913801A0913901B0913A01DF
:100790000196A11DB11D8093370190933801A0935C
:1007A0003901B0933A01BF91AF919F918F913F91E1
:1007B0002F910F900FBE0F901F9018951F920F92C0
:1007C0000FB60F9211242F933F934F935F936F9324
:1007D0007F938F939F93AF93BF93EF93FF938091FA
:1007E0002E0190912F01A0913001B0913101892B00
:1007F0008A2B8B2B59F180912D01E0912B01F091E7
:100800002C0190818927808380912E0190912F0166
:10081000A0913001B0913101181619061A061B0675
:100820000CF03DC080912E0190912F01A0913001DC
:10083000B09131010197A109B10980932E019093E4
:100840002F01A0933001B093310129C080910001A4
:10085000E8E6F0E0E4919FEF90930001E130B9F019
:1008600098F0E230C9F4909170009D7F90937000F1
:1008700091E09093B0009091B100987F9460909334
:10088000B1001092B30008C010926E0005C09091A4
:100890006F009D7F90936F0060E00E949600FF9133
:1008A000EF91BF91AF919F918F917F916F915F91E8
:1008B0004F913F912F910F900FBE0F901F90189561
:1008C0001F920F920FB60F9211242F933F934F93C5
:1008D0005F936F937F938F939F93AF93BF93EF93A8
:1008E000FF938BE391E00E94B201FF91EF91BF91E2
:1008F000AF919F918F917F916F915F914F913F91B8
:100900002F910F900FBE0F901F9018951F920F926E
:100910000FB60F9211242F938F939F93EF93FF9312
:10092000E0914B01F0914C018081E0915101F091F7
:10093000520182FD12C09081809154018F5F8F73AC
:1009400020915501821751F0E0915401F0E0E55CEF
:10095000FE4F958F8093540101C08081FF91EF91EC
:100960009F918F912F910F900FBE0F901F90189510
:100970001F920F920FB60F9211242F933F934F9314
:100980005F936F937F938F939F93AF93BF93EF93F7
:10099000FF9380912A0187FF05C010928500109275
:1009A00084001BC020912A01022E000C330B809181
:1009B000FC0190E02817390784F480912A01082E61
:1009C000000C990BFC01EE0FFF1F8E0F9F1FFC0107
:1009D000E852FE4F808186FD15C080912A018F5F0D
:1009E00080932A0120912A01022E000C330B809162
:1009F000FC0190E028173907C4F480912A018C305B
:100A000064F113C080912A01082E000C990BFC019F
:100A1000EE0FFF1F8E0F9F1FFC01E852FE4F8081DB
:100A200060E08F730E949600D8CF809184009091EF
:100A30008500049680349C4918F480E49CE905C044
:100A40008091840090918500049690938900809312
:100A500088008FEF80932A013BC020918400309161
:100A6000850080912A01082E000C990BFC01EE0FE5
:100A7000FF1F8E0F9F1FFC01E852FE4F8181928164
:100A8000820F931F909389008093880080912A01A0
:100A9000082E000C990BFC01EE0FFF1F8E0F9F1FFD
:100AA000FC01E852FE4F808186FF12C080912A012E
:100AB000082E000C990BFC01EE0FFF1F8E0F9F1FDD
:100AC000FC01E852FE4F808161E08F730E94960026
:100AD000FF91EF91BF91AF919F918F917F916F9116
:100AE0005F914F913F912F910F900FBE0F901F90EC
:100AF0001895CF93DF9310923E0110923D0188EE3E
:100B000093E0A0E0B0E080933F0190934001A09378
:100B10004101B093420181E191E090933C018093C7
:100B20003B0185EC90E0909348018093470184EC71
:100B300090E090934A018093490180EC90E090937B
:100B40004C0180934B0181EC90E090934E01809397
:100B50004D0182EC90E09093500180934F0186EC20
:100B600090E09093520180935101109254011092A1
:100B7000550110925601109257011092FD011092EA
:100B8000FE011092FF01109200028BE0809301029F
:100B90008DE0809302028CE08093030261E08BE0A1
:100BA0000E94E20061E0809102020E94E20061E0A6
:100BB000809103020E94E20060E0809101020E94A5
:100BC000960060E0809102020E94960060E08091B1
:100BD00003020E949600C0E0D0E08091FD01909158
:100BE000FE01A091FF01B09100020C2E04C0B69549
:100BF000A795979587950A94D2F7682F6170809191
:100C000001020E94960000000000000061E0809157
:100C100002020E94960000000000000060E0809147
:100C200002020E9496002196CE31D105B1F661E014
:100C3000809103020E94960000000000000060E026
:100C4000809103020E9496008091FC01E5E0F2E0B1
:100C50009FEF48EB5BE08C3088F48083282F30E0F6
:100C6000D901AA0FBB1F2A0F3B1FD901A852BE4FA3
:100C700012965C934E9311978F5F01C09083108AF8
:100C80001786B99622E0E93AF20729F78093FC012A
:100C9000DF91CF910895CF93DF93CDB7DEB72C9737
:100CA0000FB6F894DEBF0FBECDBF789484B58260D6
:100CB00084BD84B5816084BD85B5826085BD85B500
:100CC000816085BD80916E00816080936E0010927E
:100CD00081008091810082608093810080918100F9
:100CE000816080938100809180008160809380008A
:100CF0008091B10084608093B1008091B0008160E8
:100D00008093B00080917A00846080937A00809113
:100D10007A00826080937A0080917A00816080936B
:100D20007A0080917A00806880937A001092C100E6
:100D300082E090E09093AE028093AD0283E090E079
:100D40009093B0028093AF0284E090E09093B2025F
:100D50008093B10285E090E09093B4028093B30257
:100D60000E9472031092E1026DEFE62E61E0F62E12
:100D700000E010E0C8010E94A40A282F30E02138CA
:100D800031050CF03A95F701308F278B0F5F1F4F1D
:100D9000F9E2EF0EF11C0430110561F78AE590E0ED
:100DA0009093BE028093BD029093C0028093BF02D5
:100DB0009093C2028093C1029093C4028093C302B5
:100DC00088E090E09093AA028093A90289E090E0E5
:100DD0009093AC028093AB0261E088E00E94E20055
:100DE00060E08091AB020E94E2008AE090E0909384
:100DF000C6028093C50284E190E09093C80280937C
:100E0000C70261E08AE00E94E20060E084E10E94A3
:100E1000E2008091E1028111F4C088E0E5E0F1E0B8
:100E2000DE01119601900D928A95E1F70E947203FE
:100E30008091E10281111092E1028E010F5F1F4F3C
:100E40005E0129E0A20EB11C41EDE42E42E0F42E39
:100E50005DEBC52E52E0D52EF801619171918F01A5
:100E6000F601819191916F01681B790B072E000C9F
:100E7000880B990B0E94A60920E030E048E452E478
:100E80000E94FC08F70161937193819391937F0114
:100E90000A151B0509F70E944301DC01CB018C50A8
:100EA0009E4FAF4FBF4F8093C9029093CA02A09349
:100EB000CB02B093CC02EE24E394F12C0E944301C8
:100EC0000091C9021091CA022091CB023091CC024C
:100ED000601771078207930708F068C00E944301FA
:100EE000DC01CB010A96A11DB11D8093CD02909328
:100EF000CE02A093CF02B093D00205E012E091EDB4
:100F0000C92E92E0D92E2DEB222E22E0322E27017F
:100F10000F2C000C66087708F101619171911F0197
:100F2000F60121913191419151916F01072E000CF1
:100F3000880B990B29873A874B875C870E94A60903
:100F40004B015C01C301B2010E94A60929853A85C3
:100F50004B855C850E94320A9B01AC01C501B4013E
:100F60000E9490080E946E09F80127853089620F5F
:100F7000731FC8010E945602075D1F4FF1EECF1686
:100F8000F2E0DF0649F60E9443010091CD02109184
:100F9000CE022091CF023091D002601771078207F4
:100FA000930788F32FEFE21AF20A88CF89819A819A
:100FB0009093BE028093BD028B819C819093C0026E
:100FC0008093BF028D819E819093C2028093C10263
:100FD0008F8198859093C4028093C30285E092E04C
:100FE0000E9446028EE292E00E94460287E592E06D
:100FF0000E94460280E892E00E94460281E08093CF
:10100000E1020E941E014B015C0182E3C82ED12C3B
:10101000E12CF12C0E941E01DC01CB0188199909F9
:10102000AA09BB09883E9340A105B10558F081E0AB
:10103000C81AD108E108F108E8EE8E0EE3E09E1E22
:10104000A11CB11CC114D104E104F10419F7E09111
:101050004B01F0914C0182E08083E0914701F091D7
:1010600048011082E0914901F0914A018FEC8083A0
:1010700010925301E0914F01F091500186E080837E
:10108000E0914D01F0914E01808180618083E0917B
:101090004D01F0914E01808188608083E0914D0187
:1010A000F0914E01808180688083E0914D01F09144
:1010B0004E0180818F7D808309E610E0F801649104
:1010C000611109C042E050E06DE171E08BE391E015
:1010D0000E944F010FC0E0913B01F0913C01019053
:1010E000F081E02D8BE391E009950F5F1F4F892B75
:1010F00029F7E8CF0E943C02FDCF991B79E004C09C
:10110000991F961708F0961B881F7A95C9F7809546
:101110000895EE0FFF1F0590F491E02D09945058AB
:10112000BB27AA270E94A7080C94F8090E94EA0985
:1011300038F00E94F10920F039F49F3F19F426F4A9
:101140000C94E7090EF4E095E7FB0C94E109E92F14
:101150000E94090A58F3BA176207730784079507B4
:1011600020F079F4A6F50C942B0A0EF4E0950B2EE2
:10117000BA2FA02D0B01B90190010C01CA01A001E9
:101180001124FF27591B99F0593F50F4503E68F144
:101190001A16F040A22F232F342F4427585FF3CF85
:1011A000469537952795A795F0405395C9F77EF456
:1011B0001F16BA0B620B730B840BBAF09150A1F09F
:1011C000FF0FBB1F661F771F881FC2F70EC0BA0F25
:1011D000621F731F841F48F4879577956795B795AD
:1011E000F7959E3F08F0B0CF9395880F08F09927A8
:1011F000EE0F9795879508950E9410090C94F809B1
:101200000E94F10958F00E94EA0940F029F45F3F7A
:1012100029F00C94E10951110C942C0A0C94E70963
:101220000E94090A68F39923B1F3552391F3951BA2
:10123000550BBB27AA2762177307840738F09F5FF7
:101240005F4F220F331F441FAA1FA9F335D00E2E64
:101250003AF0E0E832D091505040E695001CCAF7D1
:101260002BD0FE2F29D0660F771F881FBB1F261794
:1012700037074807AB07B0E809F0BB0B802DBF016B
:10128000FF2793585F4F3AF09E3F510578F00C943A
:10129000E1090C942C0A5F3FE4F3983ED4F3869561
:1012A00077956795B795F7959F5FC9F7880F911D5B
:1012B0009695879597F90895E1E0660F771F881F47
:1012C000BB1F621773078407BA0720F0621B730BFA
:1012D000840BBA0BEE1F88F7E09508950E947509FC
:1012E0006894B1110C942C0A08950E94110A88F098
:1012F0009F5798F0B92F9927B751B0F0E1F0660FDA
:10130000771F881F991F1AF0BA95C9F714C0B1301A
:1013100091F00E942B0AB1E008950C942B0A672FDC
:10132000782F8827B85F39F0B93FCCF38695779549
:101330006795B395D9F73EF4909580957095619532
:101340007F4F8F4F9F4F0895E89409C097FB3EF45D
:1013500090958095709561957F4F8F4F9F4F992302
:10136000A9F0F92F96E9BB279395F6958795779580
:101370006795B795F111F8CFFAF4BB0F11F460FF40
:101380001BC06F5F7F4F8F4F9F4F16C0882311F098
:1013900096E911C0772321F09EE8872F762F05C0AC
:1013A000662371F096E8862F70E060E02AF09A9547
:1013B000660F771F881FDAF7880F9695879597F93C
:1013C000089597F99F6780E870E060E008959FEFC7
:1013D00080EC089500240A941616170618060906CC
:1013E000089500240A94121613061406050608959B
:1013F000092E0394000C11F4882352F0BB0F40F423
:10140000BF2B11F460FF04C06F5F7F4F8F4F9F4F62
:10141000089557FD9058440F551F59F05F3F71F0E4
:101420004795880F97FB991F61F09F3F79F087954B
:101430000895121613061406551FF2CF4695F1DFD4
:1014400008C0161617061806991FF1CF8695710564
:10145000610508940895E894BB2766277727CB0198
:1014600097F908950E94450A0C94F8090E94EA0928
:1014700038F00E94F10920F0952311F00C94E10955
:101480000C94E70911240C942C0A0E94090A70F3A9
:10149000959FC1F3950F50E0551F629FF001729F19
:1014A000BB27F00DB11D639FAA27F00DB11DAA1F28
:1014B000649F6627B00DA11D661F829F2227B00D75
:1014C000A11D621F739FB00DA11D621F839FA00D00
:1014D000611D221F749F3327A00D611D231F849F50
:1014E000600D211D822F762F6A2F11249F575040A7
:1014F0009AF0F1F088234AF0EE0FFF1FBB1F661F22
:10150000771F881F91505040A9F79E3F510580F0EA
:101510000C94E1090C942C0A5F3FE4F3983ED4F359
:10152000869577956795B795F795E7959F5FC1F78E
:10153000FE2B880F911D9695879597F9089581E068
:1015400090E0F8940C940F0BF999FECF92BD81BDF9
:10155000F89A992780B50895052E97FB1EF40094FC
:101560000E94C30A57FD07D00E94DE0A07FC03D081
:101570004EF40C94C30A50954095309521953F4FF9
:101580004F4F5F4F089590958095709561957F4F6F
:101590008F4F9F4F08950E94000BA59F900DB49F01
:1015A000900DA49F800D911D11240895B7FF0C94F8
:1015B000CB0A0E94CB0A821B930B0895A1E21A2E3C
:1015C000AA1BBB1BFD010DC0AA1FBB1FEE1FFF1FE7
:1015D000A217B307E407F50720F0A21BB30BE40B37
:1015E000F50B661F771F881F991F1A9469F760957E
:1015F0007095809590959B01AC01BD01CF01089538
:10160000A29FB001B39FC001A39F700D811D112443
:10161000911DB29F700D811D1124911D0895F894A4
:02162000FFCFFA
:10162200FF010000005A005A005A005A0000000050
:1016320000D3014F019C017A018E011A020D0A00AA
:00000001FF
