:100000000C94F2020C941A030C941A030C941A0325
:100010000C941A030C941A030C941A030C94FB14FA
:100020000C941A030C941A030C941A030C94F30BFB
:100030000C941A030C941A030C941A030C941A03CC
:100040000C94B1140C941A030C94A3150C947D1504
:100050000C941A030C941A030C941A030C941A03AC
:100060000C94B40C0C941A0305A84CCDB2D44EB920
:100070003836A9020C50B9918688083CA6AAAA2A4B
:10008000BE000000803F00000000003E5B4F5B3E72
:100090003E6B4F6B3E1C3E7C3E1C183C7E3C181C4D
:1000A000577D571C1C5E7F5E1C00183C1800FFE744
:1000B000C3E7FF0018241800FFE7DBE7FF30483AEA
:1000C000060E2629792926407F050507407F05254C
:1000D0003F5A3CE73C5A7F3E1C1C08081C1C3E7FD4
:1000E00014227F22145F5F005F5F06097F017F009B
:1000F0006689956A606060606094A2FFA2940804BB
:100100007E040810207E201008082A1C08081C2ADB
:1001100008081E101010100C1E0C1E0C30383E3833
:1001200030060E3E0E06000000000000005F0000DA
:100130000007000700147F147F14242A7F2A12234B
:100140001308646236495620500008070300001C5B
:100150002241000041221C002A1C7F1C2A08083E64
:100160000808008070300008080808080000606077
:100170000020100804023E5149453E00427F4000E5
:1001800072494949462141494D331814127F1027BD
:10019000454545393C4A494931412111090736490C
:1001A000494936464949291E0000140000004034E0
:1001B00000000008142241141414141400412214E5
:1001C0000802015909063E415D594E7C1211127C0C
:1001D0007F494949363E414141227F4141413E7F6D
:1001E000494949417F090909013E414151737F084D
:1001F00008087F00417F41002040413F017F0814F3
:1002000022417F404040407F021C027F7F04081053
:100210007F3E4141413E7F090909063E4151215E31
:100220007F09192946264949493203017F01033FC5
:100230004040403F1F2040201F3F4038403F631454
:1002400008146303047804036159494D43007F4156
:1002500041410204081020004141417F0402010293
:1002600004404040404000030708002054547840B8
:100270007F284444383844444428384444287F384C
:100280005454541800087E090218A4A49C787F08CE
:1002900004047800447D40002040403D007F102849
:1002A000440000417F40007C047804787C0804040A
:1002B000783844444438FC1824241818242418FCA2
:1002C0007C08040408485454542404043F44243C47
:1002D0004040207C1C2040201C3C4030403C4428B6
:1002E0001028444C9090907C4464544C4400083650
:1002F00041000000770000004136080002010204BE
:10030000023C2623263C1EA1A161123A4040207ADD
:100310003854545559215555794122545478422125
:100320005554784020545579400C1E52721239555C
:100330005555593954545459395554545800004559
:100340007C410002457D420001457C407D12111236
:100350007DF0282528F07C545545002054547C54C9
:100360007C0A097F4932494949323A4444443A3285
:100370004A4848303A4141217A3A42402078009D2B
:10038000A0A07D3D4242423D3D4040403D3C24FFD7
:100390002424487E4943662B2FFC2F2BFF0929F686
:1003A00020C0887E090320545479410000447D41D7
:1003B0003048484A32384040227A007A0A0A727D30
:1003C0000D19317D2629292F28262929292630484B
:1003D0004D4020380808080808080808382F10C8B9
:1003E000ACBA2F102834FA00007B000008142A143D
:1003F0002222142A14085500550055AA55AA55AAB8
:10040000FF55FF55FF000000FF00101010FF001403
:100410001414FF001010FF00FF1010F010F014145F
:1004200014FC001414F700FF0000FF00FF1414F484
:1004300004FC141417101F10101F101F1414141F85
:1004400000101010F0000000001F101010101F10FE
:10045000101010F010000000FF10101010101010FD
:100460001010FF10000000FF140000FF00FF00004C
:100470001F10170000FC04F414141710171414F4C0
:1004800004F40000FF00F714141414141414F700FB
:10049000F7141414171410101F101F141414F4144C
:1004A0001010F010F000001F101F0000001F1400BB
:1004B0000000FC140000F010F01010FF10FF1414E6
:1004C00014FF141010101F00000000F010FFFFFFB9
:1004D000FFFFF0F0F0F0F0FFFFFF0000000000FF72
:1004E000FF0F0F0F0F0F3844443844FC4A4A4A3478
:1004F0007E02020606027E027E026355494163388F
:1005000044443C04407E201E2006027E020299A53F
:10051000E7A5991C2A492A1C4C7201724C304A4D9D
:100520004D303048784830BC625A463D3E494949D2
:10053000007E0101017E2A2A2A2A2A44445F44447B
:1005400040514A444040444A51400000FF0103E00A
:1005500080FF000008086B6B083612362436060F41
:10056000090F06000018180000001010003040FFAE
:100570000101001F01011E00191D1712003C3C3C27
:100580003C000000000000000000240027002A00BA
:1005900000000000250028002B00040404040404CB
:1005A0000404020202020202030303030303010222
:1005B00004081020408001020408102001020408F1
:1005C00010200000000800020100000304070000E2
:1005D00000000000000002000000002300260029A7
:1005E0000000D51511241FBECFEFD8E0DEBFCDBF70
:1005F00026E0A6EEB3E001C01D92A138B207E1F7F4
:1006000013E0A0E0B1E0ECEAFAE302C005900D923D
:10061000A63EB107D9F712E0C2EFD2E004C021979D
:10062000FE010E94101AC13FD107C9F70E940217AC
:100630000C94541D0C9400006F927F928F929F92A5
:10064000AF92BF92CF92DF92EF92FF920F931F93E0
:10065000CF93DF93EC014B015A0169013801E88126
:10066000F9810680F781E02D0995E881F9810684FA
:10067000F785E02D87019601A501B401CE0109950A
:10068000E881F981A501460D571D415051090684A5
:10069000F785E02D9601B401CE010995E881F98135
:1006A0000484F585E02D9301A501B401CE010995DF
:1006B000E881F981C80CD91CB60161507109048424
:1006C000F585E02D9301A501CE010995E881F98119
:1006D0000288F389E02DCE01DF91CF911F910F9118
:1006E000FF90EF90DF90CF90BF90AF909F908F9052
:1006F0007F906F900994CF92DF92EF92FF920F93C9
:100700001F93CF93DF9300D000D000D0CDB7DEB7DA
:100710006C01DC01ED91FC916217730789F40417F9
:1007200015072CF4942F852FA801092F182F041BCF
:10073000150B98012F5F3F4F008CF18DE02D12C0FB
:100740004017510709F5261737072CF4962F872FE6
:10075000B901292F382F261B370B2F5F3F4F028CF3
:10076000F38DE02D8701C601099526960FB6F89402
:10077000DEBF0FBECDBFDF91CF911F910F91FF90D4
:10078000EF90DF90CF9008950680F781E02D2D83C4
:100790003E834B835C8369837A830995D601ED910F
:1007A000FC910088F189E02D2D813E814B815C8197
:1007B00069817A81C6010995D601ED91FC91028883
:1007C000F389E02DC60126960FB6F894DEBF0FBE62
:1007D000CDBFDF91CF911F910F91FF90EF90DF90F0
:1007E000CF900994EF92FF920F931F93DC01ED914C
:1007F000FC9111971A960D911C911B9718962D91AB
:100800003C911997048CF58DE02D7B0140E050E080
:1008100060E070E009951F910F91FF90EF900895AF
:100820004F925F926F927F928F929F92AF92BF9200
:10083000CF92DF92EF92FF920F931F93CF93DF93AC
:1008400000D0CDB7DEB76C015A0139014801DC0197
:10085000ED91FC910680F781E02D69837A830995FB
:100860006981462E7A81572E640C751CD601ED9154
:10087000FC91461457046CF40484F585E02D87013F
:100880009401A501B201C6010995BFEF4B1A5B0A9D
:10089000EDCF0288F389E02DC6010F900F90DF9114
:1008A000CF911F910F91FF90EF90DF90CF90BF906D
:1008B000AF909F908F907F906F905F904F90099432
:1008C000AF92BF92CF92DF92EF92FF920F931F935E
:1008D000CF93DF9300D000D0CDB7DEB75C016901C4
:1008E000DC01ED91FC910680F781E02D4B835C8368
:1008F00069837A830995D501ED91FC9169817A81AB
:100900009B012C0D3D1D215031090088F189E02DFE
:1009100078014B815C818A01C5010995D501ED9172
:10092000FC910288F389E02DC5010F900F900F9084
:100930000F90DF91CF911F910F91FF90EF90DF907B
:10094000CF90BF90AF900994AF92BF92CF92DF92B9
:10095000EF92FF920F931F93CF93DF9300D000D0BD
:10096000CDB7DEB75C016901DC01ED91FC91068039
:10097000F781E02D4B835C8369837A830995D501E8
:10098000ED91FC914B815C81C40ED51EB1E0CB1A78
:10099000D1080088F189E02D7801860169817A818A
:1009A0009B01C5010995D501ED91FC910288F38960
:1009B000E02DC5010F900F900F900F90DF91CF9118
:1009C0001F910F91FF90EF90DF90CF90BF90AF906D
:1009D00009940895EF92FF920F931F93DC01ED911C
:1009E000FC91048CF58DE02D09951F910F91FF90DE
:1009F000EF9008950F931F93DC01ED91FC91028C11
:100A0000F38DE02D09951F910F9108950F931F937A
:100A1000DC01ED91FC91008CF18DE02D09951F9189
:100A20000F910895DC01ED91FC910480F581E02D9A
:100A3000099408952F923F924F925F926F927F9206
:100A40008F929F92AF92BF92CF92DF92EF92FF92DE
:100A50000F931F93CF93DF9300D01F92CDB7DEB7D4
:100A60004C017B836A836A01590117019801241B99
:100A7000350B37FF03C0319521953109C5014A81F6
:100A80005B81841B950B97FF03C09195819591091C
:100A900051E059838217930714F019820BC09A2DE5
:100AA0008B2D5801092F182F9A818B81DB82CA82E6
:100AB000C92ED82E8A819B81A816B9065CF49C2D7C
:100AC0008D2D6801092F182F9A818B81BB82AA82F4
:100AD000A92EB82E2501AA81BB814A1A5B0A3801CA
:100AE0006C187D0877FE03C07194619471087201DF
:100AF00057FE03C0BFEFEB1AFB0AF594E794C0164C
:100B0000D1061CF00FEF1FEF1FC001E010E01CC06A
:100B1000D401ED91FC91B9810084F185E02D910122
:100B2000BB23C1F04A815B81B601C4010995E61877
:100B3000F708F7FE04C0C00ED11EE40CF51CEA81D4
:100B4000FB813196FB83EA834A815B81A416B5065B
:100B5000FCF604C0A6016A817B81E7CF0F900F905D
:100B60000F90DF91CF911F910F91FF90EF90DF9049
:100B7000CF90BF90AF909F908F907F906F905F903D
:100B80004F903F902F9008950F931F93CF93DF9333
:100B9000DC0155968C915597823071F0833009F1C4
:100BA000813009F08CC01496ED91FC911597E41BEF
:100BB000F50BE21BF30B20C01496ED91FC911597F9
:100BC000CF01861B970BBC01615071091696ED9100
:100BD000FC911797CF01841B950BAC01421B530B63
:100BE0006EC01696ED91FC911797CF01861B970B5F
:100BF000BC0161507109FA0177FD1BC116968D91F8
:100C00009C911797681779070CF013C1F7FF04C080
:100C10002E0F3F1FE0E0F0E014968D919C91159708
:100C2000AF01420F531F841795071CF49C012E1B24
:100C30003F0B121613060CF0FCC0CB0177FD079694
:100C400043E0959587954A95E1F79695982F8827E3
:100C500097958795E80FF91FE050FF4F677077274A
:100C600081E090E001C0880F6A95EAF7482F0130D3
:100C7000110541F088F00230110509F0DAC02E0F9D
:100C80003F1F15C02E0F3F1FE217F30709F4D1C015
:100C90008081842B8193F8CF80952E0F3F1FE21720
:100CA000F30709F4C6C0908198239193F8CFE21717
:100CB000F30709F4BEC0808184278193F8CF77FDC4
:100CC000B8C014968D919C911597681779070CF010
:100CD000B0C057FF04C0240F351F40E050E0169607
:100CE0008D919C911797FA01E20FF31F8E179F07C2
:100CF0001CF49C01241B350B121613060CF099C032
:100D0000A22F842F86958695869590E8899F600D01
:100D1000711D1124FB01E050FF4F4770A9F198E0CD
:100D2000941B492F50E0EA01CE5CDC4F88812917E3
:100D300090F4421B51092FEF30E002C03595279502
:100D40004A95E2F782230130110541F068F0023044
:100D5000110589F06EC00130110519F42081822B34
:100D60000CC00130110520F480952081822305C03C
:100D70000230110531F4208182278083A91708F4FD
:100D800058C0A91BE058FF4FA83048F102301105A8
:100D900059F4EF018A2F988190959883C058DF4FBE
:100DA00088508830C0F730C081E00130110509F06B
:100DB00080E08195EF019A2F8883C058DF4F9850CB
:100DC0009830D0F788EF8A0F86958695869590E8BB
:100DD000899FE00DF11D1124E058FF4FA770AA2351
:100DE00041F1B0E0A65DBC4F8C910130110529F0B6
:100DF00038F002301105D1F01CC09081892B18C049
:100E000080959081892314C088EF8A0F86958695F6
:100E1000869590E8899FE00DF11D1124E058FF4F61
:100E2000A77039F0B0E0A65DBC4F8C919081892706
:100E30008083DF91CF911F910F9108950F931F939E
:100E4000CF93DF93DC01FB0155968C91559782304F
:100E500081F0833019F1813051F514968D919C9178
:100E60001597BC01641B750BAB0141505109BF01C3
:100E700081C014966D917C911597CB018E1B9F0BB1
:100E8000FC0116968D919C911797BC01641B750B04
:100E9000AB0141505109E21BF30B09C016966D914D
:100EA0007C9117976E1B7F0B621B730B63C057FD02
:100EB0001CC116968D919C911797481759070CF0F5
:100EC00014C1F7FF04C02E0F3F1FE0E0F0E01496BE
:100ED0008D919C911597BF01620F731F861797071D
:100EE0001CF49C012E1B3F0B121613060CF0FDC0C8
:100EF000CA0157FD079663E0959587956A95E1F7D6
:100F00009695982F882797958795E80FF91FE050B9
:100F1000FF4F4770552781E090E001C0880F4A9548
:100F2000EAF7482F0130110541F088F00230110531
:100F300009F0DBC02E0F3F1F15C02E0F3F1FE21719
:100F4000F30709F4D2C08081842B8193F8CF809578
:100F50002E0F3F1FE217F30709F4C7C090819823B3
:100F60009193F8CFE217F30709F4BFC0808184277B
:100F70008193F8CF57FDB9C014968D919C91159728
:100F8000481759070CF0B1C077FF04C0260F371F70
:100F900060E070E016968D919C911797FB01E20F2F
:100FA000F31F8E179F071CF49C01261B370B12168C
:100FB00013060CF09AC0A22F862F869586958695EB
:100FC00090E8899F400D511D1124FA01E050FF4F18
:100FD0006770A9F198E0961B492F50E0EA01CE5CBA
:100FE000DC4F8881291790F4421B51092FEF30E024
:100FF00002C0359527954A95E2F782230130110505
:1010000041F068F00230110589F06FC00130110520
:1010100019F42081822B0CC00130110520F4809539
:101020002081822305C00230110531F420818227FE
:101030008083A91708F459C0A91BE058FF4FA830B6
:1010400048F10230110559F4EF018A2F98819095EB
:101050009883C058DF4F88508830C0F731C081E096
:101060000130110509F080E08195EF019A2F888306
:10107000C058DF4F98509830D0F788EF8A0F869588
:101080008695869560E8869FE00DF11D1124E05855
:10109000FF4FA770AA2349F1B0E0A65DBC4F8C9129
:1010A0000130110529F038F002301105D9F01DC0CA
:1010B0009081892B03C0809590818923808315C0FE
:1010C00088EF8A0F86958695869570E8879FE00D54
:1010D000F11D1124E058FF4FA77039F0B0E0A65D74
:1010E000BC4F8C9190818927E9CFDF91CF911F91DF
:1010F0000F910895FC0177FD9AC08085918568174E
:1011000079070CF094C057FD92C0828593854817EB
:1011100059070CF08CC08589823009F07CC084812D
:101120009581DC01A61BB70BBD0161507109868159
:101130009781FC01E41BF50BAF01415051090AC036
:10114000813041F484819581841B950BAB01BC01F6
:10115000615071092130310529F008F12230310543
:10116000E1F10895FA0157FD3796A3E0F595E7956B
:10117000AA95E1F7F695FE2FEE27F795E7956E0F06
:101180007F1FFB01E050FF4F4770552781E090E043
:1011900001C0880F4A95EAF79081892B3AC0FA017D
:1011A00057FD379623E0F595E7952A95E1F7F695F3
:1011B000FE2FEE27F795E7956E0F7F1FFB01E0509E
:1011C000FF4F4770552781E090E001C0880F4A9596
:1011D000EAF78095908189231CC0FA0157FD379664
:1011E00083E0F595E7958A95E1F7F695FE2FEE27D2
:1011F000F795E7956E0F7F1FFB01E050FF4F47709B
:10120000552781E090E001C0880F4A95EAF7908168
:10121000892780830895833009F092CF8681978152
:10122000861B970BBA01AC014150510993CF089529
:1012300008958FEF9FEF08958FEF9FEF08958091AE
:101240005E0490E0919581959109089585ED8093D4
:10125000BC008091BC0084FDFCCF1092380408953E
:1012600040911204262F30E0240F311D2132310528
:10127000DCF4209138042430C9F4FC0180E090E0D3
:10128000861758F4309112042191DC01A051BC4F13
:10129000A30FB11D2C930196F3CF80911204680F18
:1012A0006093120480E0089581E0089582E008953B
:1012B000CF93DF9300D0CDB7DEB7CB01642F498346
:1012C0005A830E9430094981842F5A81952F0F90AB
:1012D0000F90DF91CF910895CF93DF931F92CDB7F9
:1012E000DEB7698361E0CE0101960E94300981E09A
:1012F00090E00F90DF91CF9108952F923F924F92FF
:101300005F926F927F928F929F92AF92BF92CF9295
:10131000DF92EF92FF920F931F93CF93DF93CDB79E
:10132000DEB76C970FB6F894DEBF0FBECDBF9C8FB3
:101330008B8F1B012A0118870F83FE82ED82CA82E0
:10134000DC0158964D915C9159974115510509F072
:10135000B2C018968D919C911997681779070CF077
:1013600096C11A968D919C911B97481659060CF0C0
:101370008EC1AC2CB12CCB01B6E0CB9E800D911D63
:101380001124181619060CF082C1C50133E0880F2C
:10139000991F3A95E1F7840D951D181619060CF062
:1013A00076C1AB8DBC8D57968C91811103C0203BCB
:1013B00008F02F5FAB8DBC8DED91FC9111970680ED
:1013C000F781E02DCD012A8F09952A8DB5E02B9F5D
:1013D00090011124610141011B82F901E219F30915
:1013E000FA87E9879201285F3F4F3C872B873B8133
:1013F000353049F0E985FA85E80DF91DEA57FF4FC8
:101400004491498301C0198232011201598150FF70
:1014100013C0AB8DBC8DED91FC91BA81B13031F42C
:101420000084F185E02D2F81388519C00284F38571
:10143000E02DEF80F8841EC0ED81FE812F8138857C
:10144000E217F307F1F0AB8DBC8DED91FC91BA8101
:10145000B13059F40084F185E02D2D813E81A30146
:10146000B4018B8D9C8D09950CC00284F385E02D11
:10147000ED80FE8085019501A101B6018B8D9C8DCB
:101480000995E981E695E983FFEF6F1A7F0A2A0C37
:101490003B1C2B853C856216730609F0B7CF3B8158
:1014A0003F5F3B834FEF841A940ACA0CDB1C363033
:1014B00009F09DCFCAC0FA01349694913297659194
:1014C0007491291BCB01B7E02B9F800D911D112436
:1014D000FA01259134913A8B298BFC016590749027
:1014E000FC01329634913D83319644914B8732967C
:1014F000C490319614915A81523058F08C2C0C2C97
:10150000000C9908812F012E000C990B9C838B8372
:1015100004C01C821B82812C912CAB8DBC8DED9163
:10152000FC9111970680F781E02DCD010995BA81D4
:10153000AB2EB12C8A9CC0018B9C900D9A9C900D77
:101540001124FC01E20DF31DF88BEF871982912C19
:10155000812CEC2DCC0CFF0B91012E0F3F1F3A87F5
:10156000298761013D81C30ED11CA6014E0F5F1F6B
:101570005F8B4E8BC201810F911D17FD9A95998F3C
:10158000888F5B85851608F060C0882D90E04B81C0
:101590005C81480F591F4A9D90014B9D300D5A9D0B
:1015A000300D1124D901A40DB51DBE87AD87C984A6
:1015B000DA842F843888B981E985BE1BBB8B288DDE
:1015C000398D280F391F3D8B2C8B8B898C0D2E89E3
:1015D0003F89C216D30699F1877041F4C301019681
:1015E000E989FA89E60DF71D94903C0197FE20C029
:1015F000AB8DBC8DED91FC91BA81B13061F400846A
:10160000F185E02D2F8138854C895D89B6018B8D60
:101610009C8D09950DC00284F385E02DEF80F88440
:10162000850195014D855E85B1018B8D9C8D099558
:10163000990CEFEFCE1ADE0A2A0C3B1CC6CF39817B
:101640004D81340F398383949CCFAB8DBC8DED914C
:10165000FC9111970288F389E02DCD016C960FB6AD
:10166000F894DEBF0FBECDBFDF91CF911F910F91D8
:10167000FF90EF90DF90CF90BF90AF909F908F90B2
:101680007F906F905F904F903F902F9009946C9651
:101690000FB6F894DEBF0FBECDBFDF91CF911F9183
:1016A0000F91FF90EF90DF90CF90BF90AF909F9001
:1016B0008F907F906F905F904F903F902F90089504
:1016C000DC01EC91F0E0CF01880F991FE80FF91FC2
:1016D000ED5CFA4F808186FF02C08F7B8083089586
:1016E000CF92DF92EF92FF92CF93DF93EC016032C3
:1016F00082E078070CF03DC077FD06C0653B7105C0
:101700002CF064EB70E002C060E070E0898128E8B2
:1017100030E06901C81AD10887FDD394CC0CDD1CD8
:10172000CC0CDD1C0D2C000CEE08FF088A8128E58E
:1017300032E0281B310987FD3395220F331F220F1A
:10174000331FC901330FAA0BBB0B9C01AD012C1930
:101750003D094E095F09DB010E941B1D24EB30E0AF
:1017600040E050E00E94F11CC20ED31EE41EF51EA4
:10177000B60188818C3080F5998148E850E0491B9A
:10178000510997FD5395440F551F440F551F64177A
:10179000750784F09A8128E532E0291B310997FD0D
:1017A0003395220F331F220F331FAB012617370744
:1017B0000CF4A90142505109440F551F2FB7F8945A
:1017C00090E0FC01EE0FFF1F8E0F9F1FFC01ED5CF0
:1017D000FA4F528341832FBFDF91CF91FF90EF905B
:1017E000DF90CF9008951F920F920FB60F921124A1
:1017F0002F933F934F935F936F937F938F939F9319
:10180000AF93BF93EF93FF9380915F0487FF05C071
:1018100010928500109284001BC020915F04022E5C
:10182000000C330B8091570590E02817390784F49A
:1018300080915F04082E000C990BFC01EE0FFF1F36
:101840008E0F9F1FFC01ED5CFA4F808186FD15C055
:1018500080915F048F5F80935F0420915F04022E6C
:10186000000C330B8091570590E028173907C4F41A
:1018700080915F048C3064F113C080915F04082E66
:10188000000C990BFC01EE0FFF1F8E0F9F1FFC0138
:10189000ED5CFA4F808160E08F730E94990FD8CF82
:1018A0008091840090918500049680349C4918F4BE
:1018B00080E49CE905C080918400909185000496A5
:1018C00090938900809388008FEF80935F043BC0E2
:1018D000209184003091850080915F04082E000CD7
:1018E000990BFC01EE0FFF1F8E0F9F1FFC01ED5C9B
:1018F000FA4F81819281820F931F90938900809388
:10190000880080915F04082E000C990BFC01EE0FFB
:10191000FF1F8E0F9F1FFC01ED5CFA4F808186FF39
:1019200012C080915F04082E000C990BFC01EE0F91
:10193000FF1F8E0F9F1FFC01ED5CFA4F808161E05D
:101940008F730E94990FFF91EF91BF91AF919F917B
:101950008F917F916F915F914F913F912F910F9058
:101960000FBE0F901F9018951F920F920FB60F92F7
:1019700011242F933F934F935F936F937F938F9394
:101980009F93AF93BF93EF93FF938091B900887FAC
:10199000803609F49CC068F5883209F45BC090F485
:1019A000803109F454C038F4882309F4F6C0883033
:1019B00009F44DC0F6C0883109F44CC0803209F4F6
:1019C0005DC0EFC0803409F468C048F4803309F486
:1019D00055C0883309F0E5C080933704D8C08035FE
:1019E00009F44FC0883509F45DC0883409F0D9C0C6
:1019F000D6C0883909F4C7C0A8F4883709F467C08D
:101A000038F4883609F463C0803709F460C0C9C06F
:101A1000883809F4B8C0803909F45FC0803809F00B
:101A2000C0C05BC0803B09F486C038F4803A09F43A
:101A300066C0883A09F47FC0B4C0803C09F4A7C0EE
:101A4000883C09F4A4C0883B09F48AC0AAC08091EC
:101A50005D0410C090915C0480915B04981770F550
:101A6000E0915C0481E08E0F80935C04F0E0E55C23
:101A7000FB4F80818093BB0085EC86C08093370448
:101A80008EC0E0915C0481E08E0F80935C048091B5
:101A9000BB00F0E0E55CFB4F808390915C0480919B
:101AA0005B046EC0E0915C0481E08E0F80935C0467
:101AB0008091BB00F0E0E55CFB4F808380913A04AD
:101AC00081116DC081E08093390484EA61C083E0B4
:101AD0008093380410923604CFCF80913604803240
:101AE00008F051C0E091360481E08E0F80933604F7
:101AF0008091BB00F0E0EA5EFB4F8083BDCF85ECB8
:101B00008093BC001092380480913604803230F407
:101B1000E0913604F0E0EA5EFB4F108260913604FB
:101B200070E0E0911404F091150486E194E00995C9
:101B30001092360436C084E0809338041092130467
:101B400010921204E0911004F09111040995809113
:101B50001204811105C081E0809312041092F003F9
:101B6000E091130481E08E0F80931304F0E0E051C4
:101B7000FC4F80818093BB009091130480911204EC
:101B8000981708F479CF85E88093BC000AC085ECEB
:101B90008093BC001092380404C0109237040E9455
:101BA0002609FF91EF91BF91AF919F918F917F9106
:101BB0006F915F914F913F912F910F900FBE0F90BA
:101BC0001F901895FC01918D828D981761F0828D80
:101BD000DF01A80FB11D5D968C91928D9F5F9F7361
:101BE000928F90E008958FEF9FEF0895FC01918D03
:101BF000828D981731F0828DE80FF11D858D90E070
:101C000008958FEF9FEF0895FC01918D228D892F0C
:101C100090E0805C9F4F821B91098F7399270895F4
:101C200080E090E0892B29F00E94D01381110C9460
:101C3000000008953FB7F894809164049091650482
:101C4000A0916604B091670426B5A89B05C02F3FFC
:101C500019F00196A11DB11D3FBFBA2FA92F982FD2
:101C60008827820F911DA11DB11DBC01CD0142E04D
:101C7000660F771F881F991F4A95D1F70895CF9354
:101C8000DF93009779F0FC0101900020E9F731978C
:101C9000AF01481B590BBC0186E994E00E948D13EB
:101CA000EC0102C0C0E0D0E042E050E063EA73E043
:101CB00086E994E00E948D138C0F9D1FDF91CF91D8
:101CC00008959FB7F894A8E6B4E09196ED91FC9141
:101CD0009297208190968C91822B80839FBF08954C
:101CE0009FB7F894A8E6B4E05E96ED91FC915F97FB
:101CF00020815D968C91822B80839FBF08959FB732
:101D0000F894A8E6B4E05B96ED91FC915C97208195
:101D10005A968C91822B80839FBF08958F929F92B9
:101D2000AF92BF92CF92DF92EF92FF920F931F93E9
:101D3000CF93DF93C0E0D0E010E0E82E880FFF08DB
:101D40008BE0C82ED12C812C912C540183940C2F24
:101D5000C7010C2E02C0959587950A94E2F780FF83
:101D600003C00E94700E0DC02FB7F894E091860456
:101D7000F0918704908180918504809589238083E8
:101D80002FBF2FB7F894E0918304F09184049081E1
:101D9000809182048095892380832FBFC60101979B
:101DA000F1F7E0918C04F0918D04908180918B0487
:101DB000892351F0D501C40104C0880F991FAA1FBF
:101DC000BB1F0A95D2F7182B0E947F0E2196C830B0
:101DD000D10509F0BCCF0E94700E87E090E001971A
:101DE000F1F7812FDF91CF911F910F91FF90EF902D
:101DF000DF90CF90BF90AF909F908F9008952FB7B6
:101E0000F894A8E6B4E09196ED91FC9192979081B8
:101E100090968C918095892380832FBF0895FC0133
:101E2000848DDF01A80FB11DA35ABF4F2C91848D63
:101E300090E001968F739927848FA689B7892C9398
:101E4000A089B1898C9180648C93938D848D981333
:101E500006C00288F389E02D80818F7D80830895FC
:101E6000EF92FF920F931F93CF93DF93EC0181E0EA
:101E7000888F9B8D8C8D981305C0E889F9898081A6
:101E800085FD24C0F62E0B8D10E00F5F1F4F0F73E2
:101E90001127E02E8C8DE8120CC00FB607FCFACF8C
:101EA000E889F989808185FFF5CFCE010E940F0F67
:101EB000F1CF8B8DFE01E80FF11DE35AFF4FF08249
:101EC0000B8FEA89FB898081806207C0EE89FF89D8
:101ED0006083E889F98980818064808381E090E073
:101EE000DF91CF911F910F91FF90EF900895CF93C5
:101EF000DF93EC01888D8823C9F0EA89FB89808112
:101F000085FD05C0A889B9898C9186FD0FC00FB6E3
:101F100007FCF5CF808185FFF2CFA889B9898C9124
:101F200085FFEDCFCE010E940F0FE7CFDF91CF915C
:101F3000089590E0FC01EE53FA4F3491FC01E25514
:101F4000FA4F2491FC01E656FA4FE491EE2309F48E
:101F50003BC0332339F1333091F038F43130A9F0FC
:101F6000323001F584B58F7D12C0373091F03830B2
:101F7000A1F03430B9F4809180008F7D03C080914E
:101F800080008F77809380000DC084B58F7784BDEB
:101F900009C08091B0008F7703C08091B0008F7D21
:101FA0008093B000F0E0EE0FFF1FE057FA4FA591CD
:101FB000B4918FB7F894EC91611103C020952E2352
:101FC00001C02E2B2C938FBF0895CF93DF9390E009
:101FD000FC01E255FA4F2491FC01E656FA4F849138
:101FE000882361F190E0880F991FFC01EA57FA4FAE
:101FF000C591D491FC01E057FA4FA591B4916111BC
:1020000009C09FB7F8948881209582238883EC913A
:102010002E230BC0623061F49FB7F8943881822F71
:10202000809583238883EC912E2B2C939FBF06C031
:102030008FB7F894E8812E2B28838FBFDF91CF9143
:1020400008951F93CF93DF93EC019881292F30E0FF
:10205000F901EE0FFF1F2E0F3F1FF901ED5CFA4F44
:10206000808186FD83C0162F9C3008F04EC061E051
:10207000812F0E94E50F8881E82FF0E09F01220F59
:10208000331FE20FF31FED5CFA4F1F736081607C1A
:10209000162B108319821A826CE00E94F0199CE0C2
:1020A000899FB001112440E050E09A01260F371FAC
:1020B000F901EE0FFF1F2E0F3F1FF901ED5CFA4FE4
:1020C000908196FD16C04F5F5F4F4C30510569F708
:1020D00081110FC01092800082E0809381001092E5
:1020E000850010928400B19A80916F008260809385
:1020F0006F00E881F0E0CF01880F991FE80FF91F0A
:10210000ED5CFA4F8081806480836AE570E0CE01E7
:102110000E94700B8EE190E09E8F8D8F80ED97E096
:1021200098878F8380E090E0A4E8B2E4898F9A8F4B
:10213000AB8FBC8F8AE198EFA2ECBDE38D8B9E8BB9
:10214000AF8BB88F1F8E18A219A21AA28DE290E051
:102150009C838B83198A1A8A1B8A1C8A19861A8681
:102160001B861C861E821D821FA218A6DF91CF919E
:102170001F910895609108067091090680E695E028
:102180000E94211060910A0670910B0689E895E083
:102190000E94211060910C0670910D0682EB95E073
:1021A0000E94211060910E0670910F068BED95E054
:1021B0000C9421108F929F92AF92BF92CF92DF9298
:1021C000EF92FF926B017C010E941A0E4B015C01A1
:1021D000C114D104E104F104F1F00E941A0EDC01F3
:1021E000CB0188199909AA09BB09883E9340A1052A
:1021F000B10570F321E0C21AD108E108F10888EEB8
:10220000880E83E0981EA11CB11CC114D104E10406
:10221000F10419F7DDCFFF90EF90DF90CF90BF90E2
:10222000AF909F908F900895EF92FF920F931F931E
:10223000CF93DF937C01C62F0E94FF0E8701D0E071
:10224000C8018E199F098C179D0734F4F8018191FC
:102250008F010E948E0EF4CF0E94610E6091920455
:1022600070E080E090E0DF91CF911F910F91FF909F
:10227000EF900C94DA1065E080E293E00E94141174
:1022800069E087E193E00E9414118091940488230F
:1022900029F065E082E193E00E9414118091950499
:1022A000882329F069E089E093E00E94141169E035
:1022B00080E093E00C9414112FB7F89460916004BF
:1022C0007091610480916204909163042FBF08951E
:1022D0006F927F928F929F92AF92BF92CF92DF9236
:1022E000EF92FF921F93CF93DF93CDB7DEB729977D
:1022F0000FB6F894DEBF0FBECDBF0E945C11C09038
:102300008E04D0908F04E0909004F09091046C19AA
:102310007D098E099F090E94301B6B017C0120E022
:1023200030E84BEB54E40E94E21B181614F40E94B0
:102330003B116091920470E080E090E00E94321BBB
:102340004B015C019B01AC01C701B6010E94831ADD
:1023500087FF0AC0A7019601C501B4010E94161AA1
:102360000E94011B0E94DA10CE0101967C0189E0D7
:10237000F70111928A95E9F781E0898382E48A83E3
:1023800015E027E0C22ED12C5E01FAE0AF0EB11CA1
:102390000E94700E0E947F0E0E94FF0EC6010197E0
:1023A000F1F7470198E6692E94E0792EF4018191C6
:1023B0004F010E948E0EF30181933F018A149B040A
:1023C000A9F780916904893741F00E94610E8091DC
:1023D0006904807F803789F41CC081E7882E84E0FF
:1023E000982E80E00E948E0EF40181934F01FDE74C
:1023F0008F16F4E09F06A9F7E8CF0E943B11609189
:10240000920470E080E090E00E94DA10115009F030
:10241000BFCF80916904807F803739F0809192042A
:102420008A3018F48F5F8093920480918004909199
:10243000810490937F0480937E0480916B0490913B
:102440006C0490938104809380040E945C116093DB
:102450008E0470938F0480939004909391049091D4
:102460006904907F81E0903709F080E029960FB6EB
:10247000F894DEBF0FBECDBFDF91CF911F91FF90CB
:10248000EF90DF90CF90BF90AF909F908F907F9014
:102490006F9008952F923F924F925F926F927F922A
:1024A0008F929F92AF92BF92CF92DF92EF92FF9264
:1024B0000F931F93CF93DF9300D000D0CDB7DEB73B
:1024C000280139017B014C0193E6292E95E0392E34
:1024D0006A018B01085F1F4F28E7A22E25E0B22E6C
:1024E000F701819191917F01F10193838283F4013E
:1024F000819191914F01F10191838083B582A482F2
:10250000628D738DC5010E94FC1980E090E00E94ED
:10251000301B9B01AC01F101668B778B808F918F13
:102520006BED7FE089EC90E40E94881AF101628BE8
:10253000738B848B958BF60181919191A191B191CF
:102540006F01F10186839783A087B187F9E22F0E8F
:10255000311CE016F10621F60E945C110E94301B2E
:102560006B017C0120E030E04FEA54E4C301B2018A
:102570000E94E71BA70196010E94171A4B015C01FC
:10258000A5019401C701B6010E94831A18160CF424
:10259000ADC080E6282E85E0382E00E010E00E94D5
:1025A0005C11F10163A374A385A396A3C78CD0A08B
:1025B000E1A0F2A02B013C014C185D086E087F08D9
:1025C000C58CD68CE12CF12CC414D504E604F70498
:1025D0000CF07CC0678F70A381A392A3C801885AB6
:1025E0009A4F7C01FC0187A5811160C0F101218512
:1025F00032854385548561897289838994890E94D3
:10260000171A0E94541C9B01AC01F1016381748173
:1026100080E090E029833A834B835C830E94301BE7
:1026200029813A814B815C810E94E71B2B013C018F
:10263000F1016581768180E090E00E94301B9B0172
:10264000AC01C301B2010E94171A2B013C0120E02A
:1026500030E0A9010E94E21B20E030E040E05FE3AF
:1026600087FD05C0C301B2010E94171A04C0C3014F
:10267000B2010E94161A0E94FA1AF1017687658744
:10268000F70180A9882331F0719561957109F101F5
:1026900076876587F10165857685665A7F4F8785E0
:1026A0009089680F791FC1010E94700BF101258983
:1026B00036894789508D61897289838994890E94FE
:1026C000171AF101618B728B838B948B075D1F4FFF
:1026D000F9E22F0E311C043A110509F060CF0E9477
:1026E0005C110E94301B6B017C014ACF0F900F9050
:1026F0000F900F90DF91CF911F910F91FF90EF906E
:10270000DF90CF90BF90AF909F908F907F906F9011
:102710005F904F903F902F900895CF92DF92EF926D
:10272000FF920F931F93CF93DF936C017A018B017C
:10273000C0E0D0E0CE15DF0589F0D8016D918D01A4
:10274000D601ED91FC910190F081E02DC601099533
:10275000892B11F47E0102C02196ECCFC701DF91D5
:10276000CF911F910F91FF90EF90DF90CF90089540
:102770000895FC016370658B848195812681378182
:10278000613039F0633029F0918780873387228761
:102790000895318720879387828708950E94E41CDB
:1027A00086E994E00E94040E21E0892B09F420E0E0
:1027B000822F0895AF92BF92CF92EF92FF920F9324
:1027C0001F93CF93DF93EC01262F888D998D00976F
:1027D00009F042C06A3069F42C898E859F8538E003
:1027E000239F800D911D11249F878E871D861C8637
:1027F000ACC06D3009F4A9C08E898823C1F03C8932
:102800008C859D8546E0349F800D911D112448855F
:102810005985841795075CF01D861C868E859F85DB
:10282000E8E03E9F800D911D11249F878E87EA88E6
:10283000FB88088919894E855F856C857D85CC88E4
:10284000CE010E947D092C898C859D85F6E02F9F05
:10285000800D911D112441C06A3079F41D861C86BB
:102860002C89FC013696E4918E859F852E9F800DE4
:10287000911D11249F878E8768C06D3009F465C053
:10288000AC014C5F5F4FFA013491631708F45DC0EF
:102890003196E491E61708F458C0FA014491362FB6
:1028A000341BFC013296A590B490F7E03F9FA00C3A
:1028B000B11C1124F501329634913196E491332301
:1028C00011F0E1110DC0F5013496E4912C898C854D
:1028D0009D85E29F800D911D11249D878C8735C0B9
:1028E000F501359644915E89552311F16C89E32FEA
:1028F000F0E0E40FF11D47FDFA956E9FD0016F9F48
:10290000B00D11244C855D854A0F5B1FE885F98564
:102910004E175F076CF01D861C86FC013696E4910D
:102920008E859F856E9F800D911D11249F878E87B8
:10293000EA88FB88088919894E855F856C857D85C5
:10294000CC88CE010E947D09BECF81E090E0DF916E
:10295000CF911F910F91FF90EF90CF90BF90AF90CC
:1029600008951F920F920FB60F9211242F933F9349
:102970008F939F93AF93BF93809160049091610474
:10298000A0916204B09163043091800623E0230F8C
:102990002D3720F40196A11DB11D05C026E8230F97
:1029A0000296A11DB11D2093800680936004909330
:1029B0006104A0936204B0936304809164049091D5
:1029C0006504A0916604B09167040196A11DB11D34
:1029D0008093640490936504A0936604B0936704A5
:1029E000BF91AF919F918F913F912F910F900FBE0B
:1029F0000F901F9018951F920F920FB60F921124EF
:102A00002F933F934F935F936F937F938F939F93F6
:102A1000AF93BF93EF93FF9380917A0690917B06DB
:102A2000A0917C06B0917D06892B8A2B8B2B59F1C6
:102A300080917906E0917706F09178069081892758
:102A4000808380917A0690917B06A0917C06B0915C
:102A50007D06181619061A061B060CF03DC080915B
:102A60007A0690917B06A0917C06B0917D06019735
:102A7000A109B10980937A0690937B06A0937C0606
:102A8000B0937D0629C080912503E6EDF5E0E49141
:102A90009FEF90932503E130B9F098F0E230C9F44C
:102AA000909170009D7F9093700091E09093B000A2
:102AB0009091B100987F94609093B1001092B30010
:102AC00008C010926E0005C090916F009D7F90939A
:102AD0006F0060E00E94990FFF91EF91BF91AF915D
:102AE0009F918F917F916F915F914F913F912F9126
:102AF0000F900FBE0F901F9018951F920F920FB658
:102B00000F9211242F933F934F935F936F937F9373
:102B10008F939F93AF93BF93EF93FF9386E994E0D6
:102B20000E940F0FFF91EF91BF91AF919F918F91F5
:102B30007F916F915F914F913F912F910F900FBEB9
:102B40000F901F9018951F920F920FB60F9211249D
:102B50002F938F939F93EF93FF93E091A604F091AF
:102B6000A7048081E091AC04F091AD0482FD12C015
:102B700090818091AF048F5F8F732091B004821792
:102B800051F0E091AF04F0E0EA56FB4F958F80934F
:102B9000AF0401C08081FF91EF919F918F912F91A0
:102BA0000F900FBE0F901F901895CF93DF93109248
:102BB00099041092980488EE93E0A0E0B0E080932E
:102BC0009A0490939B04A0939C04B0939D042EE3DD
:102BD00033E0309397042093960425EC30E0309353
:102BE000A3042093A20424EC30E03093A5042093A6
:102BF000A40420EC30E03093A7042093A60421EC39
:102C000030E03093A9042093A80422EC30E0309304
:102C1000AB042093AA0426EC30E03093AD0420935B
:102C2000AC041092AF041092B0041092B104109250
:102C3000B2041092400610923F0680934106909392
:102C40004206A0934306B09344068EE493E090932B
:102C50003E0680933D0610924C0610924B0620E8EB
:102C600030E030934E0620934D0680E290E0909342
:102C7000500680934F06309352062093510690934E
:102C800054068093530610925E06109256061092D8
:102C90005506109258061092570681E080935D0603
:102CA0002FEF3FEF30935C0620935B0630935A067C
:102CB0002093590680935F06109260061092620678
:102CC000109261068EE593E090934A068093490640
:102CD0008FEF8093650680936906809367068093E3
:102CE000660684E080936806109258051092590594
:102CF00010925A0510925B058BE080935C058DE085
:102D000080935D058CE080935E0561E08BE00E941E
:102D1000E50F61E080915D050E94E50F61E0809123
:102D20005E050E94E50F60E080915C050E94990FAE
:102D300060E080915D050E94990F60E080915E05E2
:102D40000E94990FC0E0D0E08091580590915905FC
:102D5000A0915A05B0915B050C2E04C0B695A795BD
:102D6000979587950A94D2F7682F617080915C05DA
:102D70000E94990F00000000000061E080915D0555
:102D80000E94990F00000000000060E080915D0546
:102D90000E94990F2196CE31D105B1F661E0809164
:102DA0005E050E94990F00000000000060E0809125
:102DB0005E050E94990F80915705E0E6F5E09FEFD0
:102DC00048EB5BE08C3088F48083282F30E0D90119
:102DD000AA0FBB1F2A0F3B1FD901AD5CBA4F129639
:102DE0005C934E9311978F5F01C09083108A178672
:102DF000B99626E0E430F20729F780935705DF9172
:102E0000CF910895CF93DF93CDB7DEB7A6970FB6D6
:102E1000F894DEBF0FBECDBF789484B5826084BDC8
:102E200084B5816084BD85B5826085BD85B58160CE
:102E300085BD80916E00816080936E00109281004C
:102E40008091810082608093810080918100816007
:102E500080938100809180008160809380008091C8
:102E6000B10084608093B1008091B0008160809354
:102E7000B00080917A00846080937A0080917A001B
:102E8000826080937A0080917A00816080937A00DA
:102E900080917A00806880937A001092C100E6EBFE
:102EA000F5E0E491E0938204E2EAF5E0E491F0E0F9
:102EB000EE0FFF1FE057FA4F859194919093840491
:102EC00080938304EAEBF5E0E491E0938504E6EA7D
:102ED000F5E0E491F0E0EE0FFF1FE057FA4F859127
:102EE00094919093870480938604ECEBF5E0E49151
:102EF000E0938804E8EAF5E0E491F0E0EE0FFF1FCC
:102F0000E057FA4F8591949190938A0480938904B5
:102F1000EBEBF5E0E491E0938B04E7EAF5E0E49174
:102F2000F0E0EE0FFF1FE952FA4F859194919093D4
:102F30008D0480938C0461E088E00E94E50F61E0DD
:102F40008EE00E94E50F61E08CE00E94E50F60E0FA
:102F50008DE00E94E50F61E08DE00E94990F0E94D4
:102F6000700E0E947F0E0E9468110E94681180916D
:102F70006904813429F0833719F0893709F05CC07E
:102F800081E080939204EBE0EE2EF12CF7E0AF2E7F
:102F9000B12C9924939465E080E293E00E9414118F
:102FA000C5010197F1F70E94700E0E947F0E0E94EA
:102FB000FF0EC5010197F1F70AE913E0CE01019672
:102FC0006C01F80181918F010E948E0EF6018193B0
:102FD0006F01F3E0033A1F07A1F70E94610E8C8195
:102FE0008093930469E087E193E00E94141165E007
:102FF00082E193E00E9414119092940469E089E0C8
:1030000093E00E9414119092950469E080E093E0AF
:103010000E9414110E94681180916904893771F02F
:10302000833771F021E0E21AF10861F08091920497
:103030008F5F80939204AFCF81E005C080E003C032
:1030400083E001C082E0282F30E030937F06209398
:103050007E06811103C086EA93E002C08BEC93E008
:103060000E943F0E82E090E090930906809308064C
:1030700083E090E090930B0680930A0684E090E052
:1030800090930D0680930C0685E090E090930F06D8
:1030900080930E060E94BA1010923C0678E5E72E47
:1030A00075E0F72E00E010E0C8010E94E91C282F0F
:1030B00030E0213831050CF03A95F701308F278B3D
:1030C0000F5F1F4FF9E2EF0EF11C0430110561F79D
:1030D0008AE590E0909319068093180690931B065A
:1030E00080931A0690931D0680931C0690931F06EA
:1030F00080931E0688E090E0909305068093040676
:1031000089E090E0909307068093060661E088E0EE
:103110000E94E50F60E0809106060E94E50F8AE0BC
:1031200090E0909321068093200684E190E09093B4
:1031300023068093220661E08AE00E94E50F60E0AA
:1031400084E10E94E50F80913C069E012F5F3F4F76
:1031500079018111F3C088E0E2E8F3E0D901019040
:103160000D928A95E1F70E94BA1080913C06811178
:1031700010923C0687014E0139E0830E911C5CE2FF
:10318000C52E56E0D52E68E1A62E66E0B62EF801D3
:10319000619171918F01F501819191915F01681B9E
:1031A000790B072E000C880B990B0E94321B20E034
:1031B00030E048E452E40E94881AF601619371936A
:1031C000819391936F010815190509F70E945C110D
:1031D000DC01CB018C509E4FAF4FBF4F8093240634
:1031E00090932506A0932606B0932706CC24C3947B
:1031F000D12C0E945C11009124061091250620918B
:10320000260630912706601771078207930708F09A
:103210006AC00E945C11DC01CB010A96A11DB11DA0
:103220008093280690932906A0932A06B0932B0634
:1032300000E615E03CE2232E36E0332E28E136E0AE
:103240003AA329A326010D2C000C66087708E9A1F2
:10325000FAA161917191FAA3E9A3F1012191319150
:10326000419151911F01072E000C880B990B2BA344
:103270003CA34DA35EA30E94321B4B015C01C30122
:10328000B2010E94321B2BA13CA14DA15EA10E9464
:10329000E71B9B01AC01C501B4010E94171A0E94F3
:1032A000FA1AF80127853089620F731FC8010E943E
:1032B000700B075D1F4FFCE32F16F6E03F0639F653
:1032C0000E945C11009128061091290620912A067F
:1032D00030912B06601771078207930788F32FEF51
:1032E000C21AD20A86CF89819A8190931906809357
:1032F00018068B819C8190931B0680931A068D8102
:103300009E8190931D0680931C068F8198859093D3
:103310001F0680931E0680E695E00E94600B89E8F8
:1033200095E00E94600B82EB95E00E94600B8BEDB4
:1033300095E00E94600B81E080933C0662E370E0C0
:1033400080E090E00E94DA1088E0D82E90E1C92E4B
:103350002BED822E2FE0922E29ECA22E2FEBB22EF7
:10336000EAE8F3E0DE0159968D2D01900D928A95E1
:10337000E1F7E2E9F3E0DE0151968D2D01900D9227
:103380008A95E1F7F7012C2D11922A95E9F78986A4
:103390009A86AB86BC868D869E86AF86B88A0E944A
:1033A000BA1080913C06811110923C0600E010E0BA
:1033B00020E83FE3A701BE016F5E7F4FCE01499633
:1033C0000E944A1200E010E09801A701BE016F5E62
:1033D0007F4FCE0149960E944A120E94100EC0CF24
:1033E000991B79E004C0991F961708F0961B881F57
:1033F0007A95C9F780950895AA1BBB1B51E107C0B8
:10340000AA1FBB1FA617B70710F0A61BB70B881F74
:10341000991F5A95A9F780959095BC01CD01089503
:10342000EE0FFF1F0590F491E02D09945058BB2733
:10343000AA270E942E1A0C94A81B0E949A1B38F0EF
:103440000E94A11B20F039F49F3F19F426F40C943C
:10345000971B0EF4E095E7FB0C94911BE92F0E945B
:10346000B91B58F3BA17620773078407950720F052
:1034700079F4A6F50C94DB1B0EF4E0950B2EBA2F15
:10348000A02D0B01B90190010C01CA01A00111246A
:10349000FF27591B99F0593F50F4503E68F11A1616
:1034A000F040A22F232F342F4427585FF3CF4695A7
:1034B00037952795A795F0405395C9F77EF41F16C9
:1034C000BA0B620B730B840BBAF09150A1F0FF0F93
:1034D000BB1F661F771F881FC2F70EC0BA0F621F7F
:1034E000731F841F48F4879577956795B795F7956F
:1034F0009E3F08F0B0CF9395880F08F09927EE0F04
:103500009795879508950E946D1B08F481E00895B2
:103510000E949C1A0C94A81B0E94A11B58F00E94A8
:103520009A1B40F029F45F3F29F00C94911B511134
:103530000C94DC1B0C94971B0E94B91B68F3992315
:10354000B1F3552391F3951B550BBB27AA2762179F
:103550007307840738F09F5F5F4F220F331F441FAC
:10356000AA1FA9F335D00E2E3AF0E0E832D09150E0
:103570005040E695001CCAF72BD0FE2F29D0660FCD
:10358000771F881FBB1F261737074807AB07B0E810
:1035900009F0BB0B802DBF01FF2793585F4F3AF016
:1035A0009E3F510578F00C94911B0C94DC1B5F3FFF
:1035B000E4F3983ED4F3869577956795B795F7959C
:1035C0009F5FC9F7880F911D9695879597F9089584
:1035D000E1E0660F771F881FBB1F62177307840720
:1035E000BA0720F0621B730B840BBA0BEE1F88F72F
:1035F000E09508950E94011B6894B1110C94DC1BA6
:1036000008950E94C11B88F09F5798F0B92F992701
:10361000B751B0F0E1F0660F771F881F991F1AF0BD
:10362000BA95C9F714C0B13091F00E94DB1BB1E02C
:1036300008950C94DB1B672F782F8827B85F39F02B
:10364000B93FCCF3869577956795B395D9F73EF456
:1036500090958095709561957F4F8F4F9F4F0895FE
:10366000E89409C097FB3EF490958095709561951C
:103670007F4F8F4F9F4F9923A9F0F92F96E9BB27D2
:103680009395F695879577956795B795F111F8CF4E
:10369000FAF4BB0F11F460FF1BC06F5F7F4F8F4FB9
:1036A0009F4F16C0882311F096E911C0772321F0AF
:1036B0009EE8872F762F05C0662371F096E8862F47
:1036C00070E060E02AF09A95660F771F881FDAF79E
:1036D000880F9695879597F90895990F0008550FCB
:1036E000AA0BE0E8FEEF16161706E807F907C0F088
:1036F00012161306E407F50798F0621B730B840B90
:10370000950B39F40A2661F0232B242B252B21F469
:1037100008950A2609F4A140A6958FEF811D811D09
:10372000089597F99F6780E870E060E008959FEF43
:1037300080EC089500240A94161617061806090648
:10374000089500240A941216130614060506089517
:10375000092E0394000C11F4882352F0BB0F40F49F
:10376000BF2B11F460FF04C06F5F7F4F8F4F9F4FDF
:10377000089557FD9058440F551F59F05F3F71F061
:103780004795880F97FB991F61F09F3F79F08795C8
:103790000895121613061406551FF2CF4695F1DF51
:1037A00008C0161617061806991FF1CF86957105E1
:1037B000610508940895E894BB2766277727CB0115
:1037C00097F908950E946D1B08F48FEF08950E94E9
:1037D000FA1B0C94A81B0E949A1B38F00E94A11B94
:1037E00020F0952311F00C94911B0C94971B11243D
:1037F0000C94DC1B0E94B91B70F3959FC1F3950FCD
:1038000050E0551F629FF001729FBB27F00DB11D64
:10381000639FAA27F00DB11DAA1F649F6627B00DF4
:10382000A11D661F829F2227B00DA11D621F739FDD
:10383000B00DA11D621F839FA00D611D221F749FEB
:103840003327A00D611D231F849F600D211D822F32
:10385000762F6A2F11249F5750409AF0F1F0882359
:103860004AF0EE0FFF1FBB1F661F771F881F915086
:103870005040A9F79E3F510580F00C94911B0C9489
:10388000DC1B5F3FE4F3983ED4F38695779567950C
:10389000B795F795E7959F5FC1F7FE2B880F911DB0
:1038A0009695879597F908959F930E945E1C0F90B7
:1038B00007FCEE5F0C94871C0C94971B0E94C11BA5
:1038C000D8F3E894E0E0BB279F57F0F02AED3FE003
:1038D00049EC06C0EE0FBB0F661F771F881F28F04C
:1038E000B23A62077307840728F0B25A620B730B6F
:1038F000840BE3959A9572F7803830F49A95BB0F54
:10390000661F771F881FD2F790480C949D1CEF9379
:10391000E0FF07C0A2EA2AED3FE049EC5FEB0E941E
:103920002E1A0E94A81B0F90039401FC9058E8E601
:10393000F0E00C94A91C9F3F31F0915020F4879542
:1039400077956795B795880F911D9695879597F907
:1039500008959F938F937F936F93FF93EF939B01B2
:10396000AC010E94E71BEF91FF910E94BD1C2F91BB
:103970003F914F915F910C94E71BDF93CF931F937F
:103980000F93FF92EF92DF927B018C01689406C047
:10399000DA2EEF010E94FA1BFE01E894A591259111
:1039A000359145915591A6F3EF010E942E1AFE0123
:1039B0009701A801DA9469F7DF90EF90FF900F91DB
:1039C0001F91CF91DF91089581E090E0F8940C94DD
:1039D000541DF999FECF92BD81BDF89A992780B503
:1039E0000895052E97FB1EF400940E94081D57FDB4
:1039F00007D00E94231D07FC03D04EF40C94081D31
:103A000050954095309521953F4F4F4F5F4F08950A
:103A100090958095709561957F4F8F4F9F4F08953A
:103A20000E94451DA59F900DB49F900DA49F800DF1
:103A3000911D11240895B7FF0C94101D0E94101DB4
:103A4000821B930B0895A1E21A2EAA1BBB1BFD013A
:103A50000DC0AA1FBB1FEE1FFF1FA217B307E4076D
:103A6000F50720F0A21BB30BE40BF50B661F771FC5
:103A7000881F991F1A9469F76095709580959095A5
:103A80009B01AC01BD01CF010895A29FB001B39F7E
:103A9000C001A39F700D811D1124911DB29F700D57
:0C3AA000811D1124911D0895F894FFCFA2
:103AAC00000000000000000000000000000000000A
:103ABC0000000000000000000000000000000000FA
:103ACC0000000000000000000000000000000000EA
:103ADC00000000000000000000000000000000805A
:103AEC0080800000000000000000000000000000CA
:103AFC00008080C0C000000000000000000000003A
:103B0C0000000000000000000000000000000000A9
:103B1C000000000000000000000000000000000099
:103B2C000000000000000000000000000000000089
:103B3C000000000080C0E0F0F8FCF8E0000000009D
:103B4C0000000000000000000000000000808080E9
:103B5C00808000808000000000808080808000FFDA
:103B6C00FFFF00000000808080800000808000004B
:103B7C0080FFFF80800080800080808080008080BB
:103B8C000000000000808000008C8E84000080F813
:103B9C00F8F88000000000000000000000000000A9
:103BAC00F0F0F0F0F0F0F0F0F0F0F0F0E0E0C080C9
:103BBC0000E0FCFEFFFFFF7FFFFFFFFFFF000000A8
:103BCC000000000000000000000000FEFFC7010123
:103BDC00010183FFFF00007CFEC70101010183FF8F
:103BEC00FFFF0038FEC78301010183C7FFFF000000
:103BFC0001FFFF010100FFFF0701010100007FFF32
:103C0C0080000000FFFF7F0000FFFFFF000001FFAE
:103C1C00FFFF010000000000000000000000000099
:103C2C00030F3F7F7FFFFFFFFFFFFFFFE7C7C78F3C
:103C3C008F9FBFFFFFC3C0F0FFFFFFFFFFFCFCFC2B
:103C4C00FCFCFCFCFCF8F8F0F0E0C0000103030302
:103C5C00030301030300000000010303030301013C
:103C6C00030100000001030303030101030300002F
:103C7C00000303000000030300000000000000012B
:103C8C000303030303010000000103010000000310
:103C9C000301000000000000000000000000000014
:103CAC00014300005A5A5A5A5A014F00FFFF0300B1
:103CBC000000014D00000101440001030000000060
:103CCC000143000100FF01000000000103070F1F6A
:103CDC003F7F0080C0E0F0F8FCFE00000000300FD9
:103CEC008D13040EE20DF60D770F000000006C0929
:103CFC0058091F091C091909180900000000DA13DA
:103D0C008D137A0819051205EA040605FA041A053A
:103D1C00E904B913B813C4051E071004F2037B039E
:103D2C001C035A005A005A005A001E001E001400B0
:103D3C001400000000000400FCFF0145005A5A5A10
:103D4C005A5A5A0D0A00436F6E74726F6C61646F2D
:103D5C007220656E636F6E747261646F207920637C
:103D6C006F6E666967757261646F004572726F720F
:103D7C002C206D616E646F206E6F20656E636F6EAC
:063D8C00747261646F0017
:00000001FF
