:100000000C946D000C9495000C9495000C94950044
:100010000C9495000C9495000C9495000C94290474
:100020000C9495000C9495000C9495000C94AB04E2
:100030000C9495000C9495000C9495000C949500EC
:100040000C94DF030C9495000C9495000C9495008F
:100050000C9495000C9495000C9495000C949500CC
:100060000C9495000C94950005A84CCDB2D44EB9D3
:100070003836A9020C50B9918688083CA6AAAA2A4B
:10008000BE000000803F0200000000240027002A7C
:100090000000000000250028002B000404040404D4
:1000A0000404040202020202020303030303030125
:1000B00002040810204080010204081020010204FC
:1000C00008102000000008000201000003040700DF
:1000D00000000000000000009F0711241FBECFEFAA
:1000E000D8E0DEBFCDBF22E0AEE1B1E001C01D929D
:1000F000A334B207E1F711E0A0E0B1E0E0E2F7E1FC
:1001000002C005900D92AE31B107D9F710E0CDE6EF
:10011000D0E004C02197FE010E944F08CC36D107E1
:10012000C9F70E946C050C948E0B0C94000090E0B3
:10013000FC01ED53FF4F3491FC01E155FF4F249139
:10014000FC01E556FF4FE491EE2309F43BC0332355
:1001500039F1333091F038F43130A9F0323001F513
:1001600084B58F7D12C0373091F03830A1F0343033
:10017000B9F4809180008F7D03C0809180008F77DB
:10018000809380000DC084B58F7784BD09C08091B5
:10019000B0008F7703C08091B0008F7D8093B00056
:1001A000F0E0EE0FFF1FEF56FF4FA591B4918FB710
:1001B000F894EC91611103C020952E2301C02E2BE1
:1001C0002C938FBF0895CF93DF9390E0FC01E1550E
:1001D000FF4F2491FC01E556FF4F8491882361F184
:1001E00090E0880F991FFC01E957FF4FC591D4910A
:1001F000FC01EF56FF4FA591B491611109C09FB763
:10020000F8948881209582238883EC912E230BC05B
:10021000623061F49FB7F8943881822F80958323F0
:100220008883EC912E2B2C939FBF06C08FB7F89438
:10023000E8812E2B28838FBFDF91CF9108953FB7A0
:10024000F8948091360190913701A0913801B091D6
:10025000390126B5A89B05C02F3F19F00196A11DB5
:10026000B11D3FBFBA2FA92F982F8827820F911D4C
:10027000A11DB11DBC01CD0142E0660F771F881F93
:10028000991F4A95D1F708952FB7F89460913201DC
:100290007091330180913401909135012FBF089501
:1002A000DC01EC91F0E0CF01880F991FE80FF91FF6
:1002B000E15EFD4F808186FF02C08F7B80830895C1
:1002C000CF92DF92EF92FF92CF93DF93EC016032F7
:1002D00082E078070CF03DC077FD06C0653B7105F4
:1002E0002CF064EB70E002C060E070E0898128E8E7
:1002F00030E06901C81AD10887FDD394CC0CDD1C0D
:10030000CC0CDD1C0D2C000CEE08FF088A8128E5C2
:1003100032E0281B310987FD3395220F331F220F4E
:10032000331FC901330FAA0BBB0B9C01AD012C1964
:100330003D094E095F09DB010E94550B24EB30E0BB
:1003400040E050E00E942B0BC20ED31EE41EF51EAF
:10035000B60188818C3080F5998148E850E0491BCE
:10036000510997FD5395440F551F440F551F6417AE
:10037000750784F09A8128E532E0291B310997FD41
:100380003395220F331F220F331FAB012617370778
:100390000CF4A90142505109440F551F2FB7F8948E
:1003A00090E0FC01EE0FFF1F8E0F9F1FFC01E15E2E
:1003B000FD4F528341832FBFDF91CF91FF90EF908C
:1003C000DF90CF9008951F93CF93DF93EC01988136
:1003D000292F30E0F901EE0FFF1F2E0F3F1FF9010B
:1003E000E15EFD4F808186FD83C0162F9C3008F0B2
:1003F0004EC061E0812F0E94E3008881E82FF0E089
:100400009F01220F331FE20FF31FE15EFD4F1F73A9
:100410006081607C162B108319821A826CE00E9426
:100420002F089CE0899FB001112440E050E09A0120
:10043000260F371FF901EE0FFF1F2E0F3F1FF90187
:10044000E15EFD4F908196FD16C04F5F5F4F4C30CF
:10045000510569F781110FC01092800082E08093EE
:1004600081001092850010928400B19A80916F00F3
:10047000826080936F00E881F0E0CF01880F991FC0
:10048000E80FF91FE15EFD4F8081806480836AE59B
:1004900070E0CE010E9460018EE190E09E8F8D8F12
:1004A00080ED97E098878F8380E090E0A4E8B2E445
:1004B000898F9A8FAB8FBC8F8AE198EFA2ECBDE356
:1004C0008D8B9E8BAF8BB88F1F8E18A219A21AA28C
:1004D0008DE290E09C838B83198A1A8A1B8A1C8A7E
:1004E00019861A861B861C861E821D821FA218A6CC
:1004F000DF91CF911F9108956091EA017091EB0116
:1005000082E491E00E94E3016091EC017091ED01C1
:100510008BE691E00E94E3016091EE017091EF01A2
:1005200084E991E00E94E3016091F0017091F10192
:100530008DEB91E00C94E3012F923F924F925F92EA
:100540006F927F928F929F92AF92BF92CF92DF92E3
:10055000EF92FF920F931F93CF93DF9300D000D0C1
:10056000CDB7DEB7280139017B014C0195E4292E76
:1005700091E0392E6A018B01085F1F4F28EEA22EF1
:1005800023E0B22EF701819191917F01F1019383D4
:100590008283F401819191914F01F10191838083D4
:1005A000B582A482628D738DC5010E943B0880E0F4
:1005B00090E00E946F099B01AC01F101668B778B83
:1005C000808F918F6BED7FE089EC90E40E94C708EB
:1005D000F101628B738B848B958BF60181919191E4
:1005E000A191B1916F01F10186839783A087B187B3
:1005F000F9E22F0E311CE016F10621F60E944401AB
:100600000E946F096B017C0120E030E04AE754E46E
:10061000C301B2010E94260AA70196010E94560852
:100620004B015C01A5019401C701B6010E94C208FB
:1006300018160CF4ADC082E4282E81E0382E00E0BC
:1006400010E00E944401F10163A374A385A396A363
:10065000C78CD0A0E1A0F2A02B013C014C185D0892
:100660006E087F08C58CD68CE12CF12CC414D504FF
:10067000E604F7040CF07CC0678F70A381A392A3FB
:10068000C801865C9E4F7C01FC0187A5811160C07A
:10069000F101218532854385548561897289838979
:1006A00094890E9456080E94930A9B01AC01F101B3
:1006B0006381748180E090E029833A834B835C837B
:1006C0000E946F0929813A814B815C810E94260A30
:1006D0002B013C01F1016581768180E090E00E9470
:1006E0006F099B01AC01C301B2010E9456082B01A6
:1006F0003C0120E030E0A9010E94210A20E030E026
:1007000040E05FE387FD05C0C301B2010E945608C7
:1007100004C0C301B2010E9455080E943909F101C9
:1007200076876587F70180A9882331F071956195F7
:100730007109F10176876587F10165857685665ACD
:100740007F4F87859089680F791FC1010E946001E2
:10075000F101258936894789508D6189728983899C
:1007600094890E945608F101618B728B838B948B64
:10077000075D1F4FF9E22F0E311C043A110509F0F5
:1007800060CF0E9444010E946F096B017C014ACF37
:100790000F900F900F900F90DF91CF911F910F91BD
:1007A000FF90EF90DF90CF90BF90AF909F908F9091
:1007B0007F906F905F904F903F902F9008951F9281
:1007C0000F920FB60F9211242F933F938F939F9305
:1007D000AF93BF938091320190913301A091340186
:1007E000B09135013091310123E0230F2D3720F4F2
:1007F0000196A11DB11D05C026E8230F0296A11D7B
:10080000B11D209331018093320190933301A09365
:100810003401B09335018091360190913701A09158
:100820003801B09139010196A11DB11D80933601A7
:1008300090933701A0933801B0933901BF91AF91E4
:100840009F918F913F912F910F900FBE0F901F900E
:1008500018951F920F920FB60F9211242F933F936A
:100860004F935F936F937F938F939F93AF93BF93B8
:10087000EF93FF9380912D0190912E01A0912F0174
:10088000B0913001892B8A2B8B2B59F180912C014F
:10089000E0912A01F0912B0190818927808380913A
:1008A0002D0190912E01A0912F01B09130011816C9
:1008B00019061A061B060CF03DC080912D0190917F
:1008C0002E01A0912F01B09130010197A109B1092A
:1008D00080932D0190932E01A0932F01B0933001AE
:1008E00029C080910001E6E8F0E0E4919FEF909349
:1008F0000001E130B9F098F0E230C9F49091700055
:100900009D7F9093700091E09093B0009091B10022
:10091000987F94609093B1001092B30008C0109239
:100920006E0005C090916F009D7F90936F0060E016
:100930000E949700FF91EF91BF91AF919F918F918E
:100940007F916F915F914F913F912F910F900FBECB
:100950000F901F9018951F920F920FB60F921124AF
:100960002F933F934F935F936F937F938F939F93B7
:10097000AF93BF93EF93FF938091290187FF05C049
:1009800010928500109284001BC020912901022E34
:10099000000C330B8091280190E02817390784F46C
:1009A00080912901082E000C990BFC01EE0FFF1F0E
:1009B0008E0F9F1FFC01E15EFD4F808186FD15C0FB
:1009C000809129018F5F8093290120912901022EB6
:1009D000000C330B8091280190E028173907C4F4EC
:1009E000809129018C3064F113C080912901082E77
:1009F000000C990BFC01EE0FFF1F8E0F9F1FFC01D7
:100A0000E15EFD4F808160E08F730E949700D8CF38
:100A10008091840090918500049680349C4918F45C
:100A200080E49CE905C08091840090918500049643
:100A300090938900809388008FEF809329013BC0B9
:100A4000209184003091850080912901082E000CAE
:100A5000990BFC01EE0FFF1F8E0F9F1FFC01E15E43
:100A6000FD4F81819281820F931F90938900809323
:100A7000880080912901082E000C990BFC01EE0FD3
:100A8000FF1F8E0F9F1FFC01E15EFD4F808186FFDF
:100A900012C080912901082E000C990BFC01EE0F69
:100AA000FF1F8E0F9F1FFC01E15EFD4F808161E003
:100AB0008F730E949700FF91EF91BF91AF919F912B
:100AC0008F917F916F915F914F913F912F910F90F7
:100AD0000FBE0F901F901895CF93DF93CDB7DEB761
:100AE000A4970FB6F894DEBF0FBECDBF789484B53F
:100AF000826084BD84B5816084BD85B5826085BD1A
:100B000085B5816085BD80916E00816080936E00A7
:100B10001092810080918100826080938100809199
:100B2000810081608093810080918000816080934A
:100B300080008091B10084608093B1008091B0000A
:100B400081608093B00080917A00846080937A0005
:100B500080917A00826080937A0080917A0081602F
:100B600080937A0080917A00806880937A00109256
:100B7000C10082E090E09093EB018093EA0183E072
:100B800090E09093ED018093EC0184E090E09093ED
:100B9000EF018093EE0185E090E09093F101809366
:100BA000F0010E947C0210921E02AAE3EA2EA1E04C
:100BB000FA2E00E010E0C8010E94230B282F30E03D
:100BC000213831050CF03A95F701308F278B0F5FF4
:100BD0001F4FF9E2EF0EF11C0430110561F78AE5B1
:100BE00090E09093FB018093FA019093FD01809334
:100BF000FC019093FF018093FE019093010280938A
:100C0000000288E090E09093E7018093E60189E09C
:100C100090E09093E9018093E80161E088E00E9410
:100C2000E30060E08091E8010E94E3008AE090E048
:100C3000909303028093020284E190E09093050276
:100C40008093040261E08AE00E94E30060E084E1B6
:100C50000E94E30080911E028111F4C088E0E5E06B
:100C6000F1E0DE01119601900D928A95E1F70E9464
:100C70007C0280911E02811110921E028E010F5F74
:100C80001F4F5E0129E0A20EB11CEEE0EE2EE2E065
:100C9000FE2EFAEFCF2EF1E0DF2EF8016191719177
:100CA0008F01F601819191916F01681B790B072EDD
:100CB000000C880B990B0E94710920E030E048E499
:100CC00052E40E94C708F701619371938193919355
:100CD0007F010A151B0509F70E944401DC01CB01C5
:100CE0008C509E4FAF4FBF4F8093060290930702E8
:100CF000A0930802B0930902EE24E394F12C0E9421
:100D000044010091060210910702209108023091DF
:100D10000902601771078207930708F068C00E94F4
:100D20004401DC01CB010A96A11DB11D80930A028A
:100D300090930B02A0930C02B0930D0202E411E019
:100D40005EE0C52E52E0D52E6AEF262E61E0362EEB
:100D500027010F2C000C66087708F1016191719151
:100D60001F01F60121913191419151916F01072E9F
:100D7000000C880B990B29A33AA34BA35CA30E94F8
:100D800071094B015C01C301B2010E94710929A1E3
:100D90003AA14BA15CA10E94260A9B01AC01C501AE
:100DA000B4010E9456080E943909F801278530894C
:100DB000620F731FC8010E946001075D1F4FFEE1B3
:100DC000CF16F2E0DF0649F60E94440100910A02C4
:100DD00010910B0220910C0230910D0260177107E7
:100DE0008207930788F32FEFE21AF20A88CF8981EE
:100DF0009A819093FB018093FA018B819C8190935F
:100E0000FD018093FC018D819E819093FF01809371
:100E1000FE018F819885909301028093000282E405
:100E200091E00E9450018BE691E00E94500184E91C
:100E300091E00E9450018DEB91E00E94500181E011
:100E400080931E020E941F014B015C0142E3C42EED
:100E5000D12CE12CF12C0E941F01DC01CB0188195F
:100E60009909AA09BB09883E9340A105B10558F02C
:100E700081E0C81AD108E108F10898EE890E93E0E4
:100E8000991EA11CB11CC114D104E104F10419F78D
:100E900088E0D82E90E1C92ECE0101967C0120E099
:100EA000A22E20E0B22E3BED432E3FE0532E39EC34
:100EB000632E3FEB732EEDE0F1E0DE0159968D2DB0
:100EC00001900D928A95E1F7E5E1F1E0DE0151969E
:100ED0008D2D01900D928A95E1F7F7012C2D11923D
:100EE0002A95E9F749865A866B867C864D865E860A
:100EF0006F86788A0E947C0280911E028111109276
:100F00001E0200E010E020E83FE3A701BE016F5E93
:100F10007F4FCE0149960E949C0200E010E09801AC
:100F2000A701BE016F5E7F4FCE0149960E949C02D1
:100F3000A114B10409F4BFCF0E940000BCCFCF932D
:100F4000DF9310923A0110923B0110923C011092F3
:100F50003D018BE080933E018DE080933F018CE06A
:100F60008093400161E08BE00E94E30061E08091AA
:100F70003F010E94E30061E0809140010E94E30094
:100F800060E080913E010E94970060E080913F0107
:100F90000E94970060E0809140010E949700C0E0AD
:100FA000D0E080913A0190913B01A0913C01B09139
:100FB0003D010C2E04C0B695A795979587950A9488
:100FC000D2F7682F617080913E010E949700000067
:100FD0000000000061E080913F010E949700000046
:100FE0000000000060E080913F010E949700219680
:100FF000CE31D105B1F661E0809140010E949700A9
:1010000000000000000060E0809140010E94970015
:1010100080912801E2E4F1E09FEF48EB5BE08C3047
:1010200088F48083282F30E0D901AA0FBB1F2A0F34
:101030003B1FD901A15EBD4F12965C934E93119751
:101040008F5F01C09083108A1786B99621E0E63E33
:10105000F20729F780932801DF91CF910895991B1A
:1010600079E004C0991F961708F0961B881F7A959F
:10107000C9F780950895AA1BBB1B51E107C0AA1FA1
:10108000BB1FA617B70710F0A61BB70B881F991F29
:101090005A95A9F780959095BC01CD010895EE0F62
:1010A000FF1F0590F491E02D09945058BB27AA2703
:1010B0000E946D080C94E7090E94D90938F00E943B
:1010C000E00920F039F49F3F19F426F40C94D60976
:1010D0000EF4E095E7FB0C94D009E92F0E94F80983
:1010E00058F3BA17620773078407950720F079F45D
:1010F000A6F50C941A0A0EF4E0950B2EBA2FA02D2B
:101100000B01B90190010C01CA01A0011124FF27B4
:10111000591B99F0593F50F4503E68F11A16F040AF
:10112000A22F232F342F4427585FF3CF46953795AE
:101130002795A795F0405395C9F77EF41F16BA0B73
:10114000620B730B840BBAF09150A1F0FF0FBB1F21
:10115000661F771F881FC2F70EC0BA0F621F731F6A
:10116000841F48F4879577956795B795F7959E3FC7
:1011700008F0B0CF9395880F08F09927EE0F979558
:10118000879508950E94AC0908F481E008950E94B3
:10119000DB080C94E7090E94E00958F00E94D90985
:1011A00040F029F45F3F29F00C94D00951110C94C0
:1011B0001B0A0C94D6090E94F80968F39923B1F32D
:1011C000552391F3951B550BBB27AA27621773076D
:1011D000840738F09F5F5F4F220F331F441FAA1F01
:1011E000A9F335D00E2E3AF0E0E832D091505040BD
:1011F000E695001CCAF72BD0FE2F29D0660F771F6B
:10120000881FBB1F261737074807AB07B0E809F050
:10121000BB0B802DBF01FF2793585F4F3AF09E3FD5
:10122000510578F00C94D0090C941B0A5F3FE4F34D
:10123000983ED4F3869577956795B795F7959F5F18
:10124000C9F7880F911D9695879597F90895E1E064
:10125000660F771F881FBB1F621773078407BA07C3
:1012600020F0621B730B840BBA0BEE1F88F7E0951E
:1012700008950E9440096894B1110C941B0A0895C6
:101280000E94000A88F09F5798F0B92F9927B7510C
:10129000B0F0E1F0660F771F881F991F1AF0BA951A
:1012A000C9F714C0B13091F00E941A0AB1E0089554
:1012B0000C941A0A672F782F8827B85F39F0B93F46
:1012C000CCF3869577956795B395D9F73EF49095CD
:1012D0008095709561957F4F8F4F9F4F0895E8944B
:1012E00009C097FB3EF490958095709561957F4F6E
:1012F0008F4F9F4F9923A9F0F92F96E9BB2793951C
:10130000F695879577956795B795F111F8CFFAF42B
:10131000BB0F11F460FF1BC06F5F7F4F8F4F9F4F5C
:1013200016C0882311F096E911C0772321F09EE8BA
:10133000872F762F05C0662371F096E8862F70E020
:1013400060E02AF09A95660F771F881FDAF7880FFA
:101350009695879597F90895990F0008550FAA0B50
:10136000E0E8FEEF16161706E807F907C0F01216B8
:101370001306E407F50798F0621B730B840B950BBB
:1013800039F40A2661F0232B242B252B21F4089510
:101390000A2609F4A140A6958FEF811D811D0895AD
:1013A00097F99F6780E870E060E008959FEF80EC18
:1013B000089500240A9416161706180609060895BB
:1013C00000240A9412161306140605060895092E21
:1013D0000394000C11F4882352F0BB0F40F4BF2B90
:1013E00011F460FF04C06F5F7F4F8F4F9F4F0895D0
:1013F00057FD9058440F551F59F05F3F71F04795C6
:10140000880F97FB991F61F09F3F79F087950895AA
:10141000121613061406551FF2CF4695F1DF08C0C9
:10142000161617061806991FF1CF869571056105E6
:1014300008940895E894BB2766277727CB0197F98E
:1014400008950E94AC0908F48FEF08950E94390AAC
:101450000C94E7090E94D90938F00E94E00920F0B5
:10146000952311F00C94D0090C94D60911240C94F6
:101470001B0A0E94F80970F3959FC1F3950F50E085
:10148000551F629FF001729FBB27F00DB11D639F36
:10149000AA27F00DB11DAA1F649F6627B00DA11DDC
:1014A000661F829F2227B00DA11D621F739FB00D82
:1014B000A11D621F839FA00D611D221F749F3327F2
:1014C000A00D611D231F849F600D211D822F762F8B
:1014D0006A2F11249F5750409AF0F1F088234AF068
:1014E000EE0FFF1FBB1F661F771F881F91505040D4
:1014F000A9F79E3F510580F00C94D0090C941B0A6B
:101500005F3FE4F3983ED4F3869577956795B7955A
:10151000F795E7959F5FC1F7FE2B880F911D969574
:10152000879597F908959F930E949D0A0F9007FC55
:10153000EE5F0C94C60A0C94D6090E94000AD8F3F8
:10154000E894E0E0BB279F57F0F02AED3FE049EC3C
:1015500006C0EE0FBB0F661F771F881F28F0B23A38
:1015600062077307840728F0B25A620B730B840B6F
:10157000E3959A9572F7803830F49A95BB0F661F01
:10158000771F881FD2F790480C94DC0AEF93E0FF96
:1015900007C0A2EA2AED3FE049EC5FEB0E946D082C
:1015A0000E94E7090F90039401FC9058E8E6F0E0F0
:1015B0000C94E80A9F3F31F0915020F4879577957D
:1015C0006795B795880F911D9695879597F908951A
:1015D0009F938F937F936F93FF93EF939B01AC0146
:1015E0000E94260AEF91FF910E94FC0A2F913F91E1
:1015F0004F915F910C94260ADF93CF931F930F9323
:10160000FF92EF92DF927B018C01689406C0DA2E84
:10161000EF010E94390AFE01E894A59125913591C8
:1016200045915591A6F3EF010E946D08FE019701C7
:10163000A801DA9469F7DF90EF90FF900F911F9166
:10164000CF91DF910895F999FECF92BD81BDF89AAF
:10165000992780B50895052E97FB1EF400940E94EB
:10166000420B57FD07D00E945D0B07FC03D04EF4E0
:101670000C94420B50954095309521953F4F4F4F1C
:101680005F4F089590958095709561957F4F8F4F2E
:101690009F4F08950E947F0BA59F900DB49F900DC2
:1016A000A49F800D911D11240895B7FF0C944A0B3F
:1016B0000E944A0B821B930B0895A1E21A2EAA1BCB
:1016C000BB1BFD010DC0AA1FBB1FEE1FFF1FA217F2
:1016D000B307E407F50720F0A21BB30BE40BF50BEF
:1016E000661F771F881F991F1A9469F76095709578
:1016F000809590959B01AC01BD01CF010895A29FFB
:10170000B001B39FC001A39F700D811D1124911DD5
:10171000B29F700D811D1124911D0895F894FFCF83
:10172000FF010000005A005A005A005A001E001E15
:0E1730000014001400000000000400FCFF0084
:00000001FF
