:100000000C94F2020C941A030C941A030C941A0325
:100010000C941A030C941A030C941A030C945F1199
:100020000C941A030C941A030C941A030C94CA0C23
:100030000C941A030C941A030C941A030C941A03CC
:100040000C9415110C941A030C9407120C94E111E2
:100050000C941A030C941A030C941A030C941A03AC
:100060000C948B0D0C941A0305A84CCDB2D44EB948
:100070003836A9020C50B9918688083CA6AAAA2A4B
:10008000BE000000803F00000000003E5B4F5B3E72
:100090003E6B4F6B3E1C3E7C3E1C183C7E3C181C4D
:1000A000577D571C1C5E7F5E1C00183C1800FFE744
:1000B000C3E7FF0018241800FFE7DBE7FF30483AEA
:1000C000060E2629792926407F050507407F05254C
:1000D0003F5A3CE73C5A7F3E1C1C08081C1C3E7FD4
:1000E00014227F22145F5F005F5F06097F017F009B
:1000F0006689956A606060606094A2FFA2940804BB
:100100007E040810207E201008082A1C08081C2ADB
:1001100008081E101010100C1E0C1E0C30383E3833
:1001200030060E3E0E06000000000000005F0000DA
:100130000007000700147F147F14242A7F2A12234B
:100140001308646236495620500008070300001C5B
:100150002241000041221C002A1C7F1C2A08083E64
:100160000808008070300008080808080000606077
:100170000020100804023E5149453E00427F4000E5
:1001800072494949462141494D331814127F1027BD
:10019000454545393C4A494931412111090736490C
:1001A000494936464949291E0000140000004034E0
:1001B00000000008142241141414141400412214E5
:1001C0000802015909063E415D594E7C1211127C0C
:1001D0007F494949363E414141227F4141413E7F6D
:1001E000494949417F090909013E414151737F084D
:1001F00008087F00417F41002040413F017F0814F3
:1002000022417F404040407F021C027F7F04081053
:100210007F3E4141413E7F090909063E4151215E31
:100220007F09192946264949493203017F01033FC5
:100230004040403F1F2040201F3F4038403F631454
:1002400008146303047804036159494D43007F4156
:1002500041410204081020004141417F0402010293
:1002600004404040404000030708002054547840B8
:100270007F284444383844444428384444287F384C
:100280005454541800087E090218A4A49C787F08CE
:1002900004047800447D40002040403D007F102849
:1002A000440000417F40007C047804787C0804040A
:1002B000783844444438FC1824241818242418FCA2
:1002C0007C08040408485454542404043F44243C47
:1002D0004040207C1C2040201C3C4030403C4428B6
:1002E0001028444C9090907C4464544C4400083650
:1002F00041000000770000004136080002010204BE
:10030000023C2623263C1EA1A161123A4040207ADD
:100310003854545559215555794122545478422125
:100320005554784020545579400C1E52721239555C
:100330005555593954545459395554545800004559
:100340007C410002457D420001457C407D12111236
:100350007DF0282528F07C545545002054547C54C9
:100360007C0A097F4932494949323A4444443A3285
:100370004A4848303A4141217A3A42402078009D2B
:10038000A0A07D3D4242423D3D4040403D3C24FFD7
:100390002424487E4943662B2FFC2F2BFF0929F686
:1003A00020C0887E090320545479410000447D41D7
:1003B0003048484A32384040227A007A0A0A727D30
:1003C0000D19317D2629292F28262929292630484B
:1003D0004D4020380808080808080808382F10C8B9
:1003E000ACBA2F102834FA00007B000008142A143D
:1003F0002222142A14085500550055AA55AA55AAB8
:10040000FF55FF55FF000000FF00101010FF001403
:100410001414FF001010FF00FF1010F010F014145F
:1004200014FC001414F700FF0000FF00FF1414F484
:1004300004FC141417101F10101F101F1414141F85
:1004400000101010F0000000001F101010101F10FE
:10045000101010F010000000FF10101010101010FD
:100460001010FF10000000FF140000FF00FF00004C
:100470001F10170000FC04F414141710171414F4C0
:1004800004F40000FF00F714141414141414F700FB
:10049000F7141414171410101F101F141414F4144C
:1004A0001010F010F000001F101F0000001F1400BB
:1004B0000000FC140000F010F01010FF10FF1414E6
:1004C00014FF141010101F00000000F010FFFFFFB9
:1004D000FFFFF0F0F0F0F0FFFFFF0000000000FF72
:1004E000FF0F0F0F0F0F3844443844FC4A4A4A3478
:1004F0007E02020606027E027E026355494163388F
:1005000044443C04407E201E2006027E020299A53F
:10051000E7A5991C2A492A1C4C7201724C304A4D9D
:100520004D303048784830BC625A463D3E494949D2
:10053000007E0101017E2A2A2A2A2A44445F44447B
:1005400040514A444040444A51400000FF0103E00A
:1005500080FF000008086B6B083612362436060F41
:10056000090F06000018180000001010003040FFAE
:100570000101001F01011E00191D1712003C3C3C27
:100580003C000000000002000000002300260029BB
:100590000000000000240027002A000000000025C1
:1005A0000028002B000404040404040404020202D2
:1005B00002020203030303030301020408102040A4
:1005C000800102040810200102040810200000002D
:1005D0000800020100000304070000000000000002
:1005E00000005B1A11241FBECFEFD8E0DEBFCDBFE5
:1005F00027E0AAEBB4E001C01D92A635B207E1F7EF
:1006000014E0A0E0B1E0ECEDFDE302C005900D9236
:10061000AA3BB107D9F712E0C2EFD2E004C021979C
:10062000FE010E94A81BC13FD107C9F70E94E01735
:100630000C94EC1E0C9400002F923F924F925F920C
:100640006F927F928F929F92AF92BF92CF92DF92E2
:10065000EF92FF920F931F93CF93DF93CDB7DEB747
:100660006C970FB6F894DEBF0FBECDBF9C8F8B8FFB
:100670001B012A0118870F83FE82ED82CA82DC01EA
:1006800058964D915C9159974115510509F0B2C0AA
:1006900018968D919C911997681779070CF096C15F
:1006A0001A968D919C911B97481659060CF08EC195
:1006B000AC2CB12CCB01B6E0CB9E800D911D11244A
:1006C000181619060CF082C1C50133E0880F991F76
:1006D0003A95E1F7840D951D181619060CF076C1B0
:1006E000AB8DBC8D57968C91811103C0203B08F0D7
:1006F0002F5FAB8DBC8DED91FC9111970680F7813A
:10070000E02DCD012A8F09952A8DB5E02B9F900110
:100710001124610141011B82F901E219F309FA87F1
:10072000E9879201285F3F4F3C872B873B8135301B
:1007300049F0E985FA85E80DF91DEA57FF4F449124
:10074000498301C0198232011201598150FF13C03F
:10075000AB8DBC8DED91FC91BA81B13031F4008448
:10076000F185E02D2F81388519C00284F385E02DB5
:10077000EF80F8841EC0ED81FE812F813885E2175D
:10078000F307F1F0AB8DBC8DED91FC91BA81B130E6
:1007900059F40084F185E02D2D813E81A301B4013F
:1007A0008B8D9C8D09950CC00284F385E02DED8026
:1007B000FE8085019501A101B6018B8D9C8D099567
:1007C000E981E695E983FFEF6F1A7F0A2A0C3B1C4B
:1007D0002B853C856216730609F0B7CF3B813F5FDE
:1007E0003B834FEF841A940ACA0CDB1C363009F0A5
:1007F0009DCFCAC0FA013496949132976591749155
:10080000291BCB01B7E02B9F800D911D1124FA010C
:10081000259134913A8B298BFC0165907490FC01F1
:10082000329634913D83319644914B873296C490F1
:10083000319614915A81523058F08C2C0C2C000CAB
:100840009908812F012E000C990B9C838B8304C087
:100850001C821B82812C912CAB8DBC8DED91FC9167
:1008600011970680F781E02DCD010995BA81AB2E55
:10087000B12C8A9CC0018B9C900D9A9C900D1124E8
:10088000FC01E20DF31DF88BEF871982912C812C6E
:10089000EC2DCC0CFF0B91012E0F3F1F3A872987BF
:1008A00061013D81C30ED11CA6014E0F5F1F5F8BFE
:1008B0004E8BC201810F911D17FD9A95998F888FDC
:1008C0005B85851608F060C0882D90E04B815C81C7
:1008D000480F591F4A9D90014B9D300D5A9D300D78
:1008E0001124D901A40DB51DBE87AD87C984DA8452
:1008F0002F843888B981E985BE1BBB8B288D398D43
:10090000280F391F3D8B2C8B8B898C0D2E893F89AD
:10091000C216D30699F1877041F4C3010196E989A3
:10092000FA89E60DF71D94903C0197FE20C0AB8D2F
:10093000BC8DED91FC91BA81B13061F40084F185F8
:10094000E02D2F8138854C895D89B6018B8D9C8D7A
:1009500009950DC00284F385E02DEF80F8848501B0
:1009600095014D855E85B1018B8D9C8D0995990C06
:10097000EFEFCE1ADE0A2A0C3B1CC6CF39814D811F
:10098000340F398383949CCFAB8DBC8DED91FC915A
:1009900011970288F389E02DCD016C960FB6F8947B
:1009A000DEBF0FBECDBFDF91CF911F910F91FF90A2
:1009B000EF90DF90CF90BF90AF909F908F907F90FF
:1009C0006F905F904F903F902F9009946C960FB668
:1009D000F894DEBF0FBECDBFDF91CF911F910F9175
:1009E000FF90EF90DF90CF90BF90AF909F908F904F
:1009F0007F906F905F904F903F902F900895AF92AF
:100A0000BF92CF92EF92FF920F931F93CF93DF93FA
:100A1000EC01262F888D998D009709F042C06A302D
:100A200069F42C898E859F8538E0239F800D911D68
:100A300011249F878E871D861C86ACC06D3009F4FB
:100A4000A9C08E898823C1F03C898C859D8546E0AC
:100A5000349F800D911D1124488559858417950771
:100A60005CF01D861C868E859F85E8E03E9F800D8C
:100A7000911D11249F878E87EA88FB880889198930
:100A80004E855F856C857D85CC88CE010E941C03D8
:100A90002C898C859D85F6E02F9F800D911D11245A
:100AA00041C06A3079F41D861C862C89FC0136967B
:100AB000E4918E859F852E9F800D911D11249F8727
:100AC0008E8768C06D3009F465C0AC014C5F5F4F24
:100AD000FA013491631708F45DC03196E491E6178A
:100AE00008F458C0FA014491362F341BFC013296A9
:100AF000A590B490F7E03F9FA00CB11C1124F50124
:100B0000329634913196E491332311F0E1110DC006
:100B1000F5013496E4912C898C859D85E29F800DAA
:100B2000911D11249D878C8735C0F5013596449120
:100B30005E89552311F16C89E32FF0E0E40FF11D7C
:100B400047FDFA956E9FD0016F9FB00D11244C8523
:100B50005D854A0F5B1FE885F9854E175F076CF0CE
:100B60001D861C86FC013696E4918E859F856E9FBE
:100B7000800D911D11249F878E87EA88FB88088944
:100B800019894E855F856C857D85CC88CE010E9454
:100B90001C03BECF81E090E0DF91CF911F910F91B8
:100BA000FF90EF90CF90BF90AF9008956F927F929B
:100BB0008F929F92AF92BF92CF92DF92EF92FF926D
:100BC0000F931F93CF93DF93EC014B015A016901FF
:100BD0003801E881F9810680F781E02D0995E881E7
:100BE000F9810684F785E02D87019601A501B401FE
:100BF000CE010995E881F981A501460D571D4150A7
:100C000051090684F785E02D9601B401CE010995BE
:100C1000E881F9810484F585E02D9301A501B401F3
:100C2000CE010995E881F981C80CD91CB601615043
:100C300071090484F585E02D9301A501CE01099584
:100C4000E881F9810288F389E02DCE01DF91CF910F
:100C50001F910F91FF90EF90DF90CF90BF90AF90DA
:100C60009F908F907F906F900994CF92DF92EF9238
:100C7000FF920F931F93CF93DF9300D000D000D04B
:100C8000CDB7DEB76C01DC01ED91FC916217730703
:100C900089F4041715072CF4942F852FA801092F28
:100CA000182F041B150B98012F5F3F4F008CF18DFF
:100CB000E02D12C04017510709F5261737072CF40D
:100CC000962F872FB901292F382F261B370B2F5F1F
:100CD0003F4F028CF38DE02D8701C60109952696C2
:100CE0000FB6F894DEBF0FBECDBFDF91CF911F913D
:100CF0000F91FF90EF90DF90CF9008950680F781DD
:100D0000E02D2D833E834B835C8369837A83099531
:100D1000D601ED91FC910088F189E02D2D813E8175
:100D20004B815C8169817A81C6010995D601ED917B
:100D3000FC910288F389E02DC60126960FB6F8943F
:100D4000DEBF0FBECDBFDF91CF911F910F91FF90FE
:100D5000EF90DF90CF900994EF92FF920F931F9343
:100D6000DC01ED91FC9111971A960D911C911B9746
:100D700018962D913C911997048CF58DE02D7B01EF
:100D800040E050E060E070E009951F910F91FF9006
:100D9000EF9008954F925F926F927F928F929F9201
:100DA000AF92BF92CF92DF92EF92FF920F931F9379
:100DB000CF93DF9300D0CDB7DEB76C015A01390174
:100DC0004801DC01ED91FC910680F781E02D6983FB
:100DD0007A8309956981462E7A81572E640C751C99
:100DE000D601ED91FC91461457046CF40484F5850A
:100DF000E02D87019401A501B201C6010995BFEF5D
:100E00004B1A5B0AEDCF0288F389E02DC6010F90E3
:100E10000F90DF91CF911F910F91FF90EF90DF9096
:100E2000CF90BF90AF909F908F907F906F905F908A
:100E30004F900994AF92BF92CF92DF92EF92FF92C0
:100E40000F931F93CF93DF9300D000D0CDB7DEB7C1
:100E50005C016901DC01ED91FC910680F781E02DD8
:100E60004B835C8369837A830995D501ED91FC916D
:100E700069817A819B012C0D3D1D2150310900882B
:100E8000F189E02D78014B815C818A01C5010995CA
:100E9000D501ED91FC910288F389E02DC5010F90F9
:100EA0000F900F900F90DF91CF911F910F91FF90B6
:100EB000EF90DF90CF90BF90AF900994AF92BF9228
:100EC000CF92DF92EF92FF920F931F93CF93DF9316
:100ED00000D000D0CDB7DEB75C016901DC01ED9137
:100EE000FC910680F781E02D4B835C8369837A83D4
:100EF0000995D501ED91FC914B815C81C40ED51E05
:100F0000B1E0CB1AD1080088F189E02D7801860183
:100F100069817A819B01C5010995D501ED91FC910B
:100F20000288F389E02DC5010F900F900F900F906C
:100F3000DF91CF911F910F91FF90EF90DF90CF90B5
:100F4000BF90AF9009940895EF92FF920F931F9373
:100F5000DC01ED91FC91048CF58DE02D09951F913C
:100F60000F91FF90EF9008950F931F93DC01ED9187
:100F7000FC91028CF38DE02D09951F910F9108953E
:100F80000F931F93DC01ED91FC91008CF18DE02D0E
:100F900009951F910F910895DC01ED91FC9104805A
:100FA000F581E02D099408952F923F924F925F9220
:100FB0006F927F928F929F92AF92BF92CF92DF9269
:100FC000EF92FF920F931F93CF93DF9300D01F9266
:100FD000CDB7DEB74C017B836A836A0159011701E3
:100FE0009801241B350B37FF03C03195219531093A
:100FF000C5014A815B81841B950B97FF03C09195C6
:101000008195910951E059838217930714F0198251
:101010000BC09A2D8B2D5801092F182F9A818B8187
:10102000DB82CA82C92ED82E8A819B81A816B90676
:101030005CF49C2D8D2D6801092F182F9A818B81CE
:10104000BB82AA82A92EB82E2501AA81BB814A1A89
:101050005B0A38016C187D0877FE03C071946194B7
:101060007108720157FE03C0BFEFEB1AFB0AF5943B
:10107000E794C016D1061CF00FEF1FEF1FC001E070
:1010800010E01CC0D401ED91FC91B9810084F18580
:10109000E02D9101BB23C1F04A815B81B601C401FF
:1010A0000995E618F708F7FE04C0C00ED11EE40C3F
:1010B000F51CEA81FB813196FB83EA834A815B81DF
:1010C000A416B506FCF604C0A6016A817B81E7CFB1
:1010D0000F900F900F90DF91CF911F910F91FF9084
:1010E000EF90DF90CF90BF90AF909F908F907F90C8
:1010F0006F905F904F903F902F9008950F931F93A4
:10110000CF93DF93DC0155968C915597823071F027
:10111000833009F1813009F08CC01496ED91FC9177
:101120001597E41BF50BE21BF30B20C01496ED9111
:10113000FC911597CF01861B970BBC01615071097B
:101140001696ED91FC911797CF01841B950BAC017E
:10115000421B530B6EC01696ED91FC911797CF0171
:10116000861B970BBC0161507109FA0177FD1BC109
:1011700016968D919C911797681779070CF013C1FB
:10118000F7FF04C02E0F3F1FE0E0F0E014968D91B2
:101190009C911597AF01420F531F841795071CF4BC
:1011A0009C012E1B3F0B121613060CF0FCC0CB014A
:1011B00077FD079643E0959587954A95E1F79695D3
:1011C000982F882797958795E80FF91FE050FF4FD4
:1011D0006770772781E090E001C0880F6A95EAF791
:1011E000482F0130110541F088F00230110509F057
:1011F000DAC02E0F3F1F15C02E0F3F1FE217F30757
:1012000009F4D1C08081842B8193F8CF80952E0F73
:101210003F1FE217F30709F4C6C09081982391930A
:10122000F8CFE217F30709F4BEC0808184278193C9
:10123000F8CF77FDB8C014968D919C9115976817DB
:1012400079070CF0B0C057FF04C0240F351F40E0F1
:1012500050E016968D919C911797FA01E20FF31FBB
:101260008E179F071CF49C01241B350B12161306C6
:101270000CF099C0A22F842F86958695869590E8CC
:10128000899F600D711D1124FB01E050FF4F4770D5
:10129000A9F198E0941B492F50E0EA01CE5CDC4FA5
:1012A0008881291790F4421B51092FEF30E002C0CA
:1012B000359527954A95E2F782230130110541F0D3
:1012C00068F00230110589F06EC00130110519F483
:1012D0002081822B0CC00130110520F480952081E3
:1012E000822305C00230110531F4208182278083DA
:1012F000A91708F458C0A91BE058FF4FA83048F1BF
:101300000230110559F4EF018A2F98819095988346
:10131000C058DF4F88508830C0F730C081E00130BE
:10132000110509F080E08195EF019A2F8883C0585C
:10133000DF4F98509830D0F788EF8A0F86958695C2
:10134000869590E8899FE00DF11D1124E058FF4F2C
:10135000A770AA2341F1B0E0A65DBC4F8C9101308B
:10136000110529F038F002301105D1F01CC0908130
:10137000892B18C080959081892314C088EF8A0F2B
:1013800086958695869590E8899FE00DF11D11243C
:10139000E058FF4FA77039F0B0E0A65DBC4F8C91CC
:1013A000908189278083DF91CF911F910F910895BC
:1013B0000F931F93CF93DF93DC01FB0155968C9124
:1013C0005597823081F0833019F1813051F51496B0
:1013D0008D919C911597BC01641B750BAB0141501D
:1013E0005109BF0181C014966D917C911597CB0175
:1013F0008E1B9F0BFC0116968D919C911797BC013B
:10140000641B750BAB0141505109E21BF30B09C082
:1014100016966D917C9117976E1B7F0B621B730B59
:1014200063C057FD1CC116968D919C911797481764
:1014300059070CF014C1F7FF04C02E0F3F1FE0E066
:10144000F0E014968D919C911597BF01620F731F68
:10145000861797071CF49C012E1B3F0B12161306D0
:101460000CF0FDC0CA0157FD079663E0959587957E
:101470006A95E1F79695982F882797958795E80FB5
:10148000F91FE050FF4F4770552781E090E001C001
:10149000880F4A95EAF7482F0130110541F088F08E
:1014A0000230110509F0DBC02E0F3F1F15C02E0FB3
:1014B0003F1FE217F30709F4D2C08081842B819388
:1014C000F8CF80952E0F3F1FE217F30709F4C7C02E
:1014D000908198239193F8CFE217F30709F4BFC0E6
:1014E000808184278193F8CF57FDB9C014968D91E0
:1014F0009C911597481759070CF0B1C077FF04C0AD
:10150000260F371F60E070E016968D919C9117971B
:10151000FB01E20FF31F8E179F071CF49C01261B93
:10152000370B121613060CF09AC0A22F862F869541
:101530008695869590E8899F400D511D1124FA01EA
:10154000E050FF4F6770A9F198E0961B492F50E0DB
:10155000EA01CE5CDC4F8881291790F4421B5109C7
:101560002FEF30E002C0359527954A95E2F78223A8
:101570000130110541F068F00230110589F06FC0AB
:101580000130110519F42081822B0CC001301105A6
:1015900020F480952081822305C00230110531F4AA
:1015A000208182278083A91708F459C0A91BE0581D
:1015B000FF4FA83048F10230110559F4EF018A2F8E
:1015C000988190959883C058DF4F88508830C0F735
:1015D00031C081E00130110509F080E08195EF0113
:1015E0009A2F8883C058DF4F98509830D0F788EFF3
:1015F0008A0F86958695869560E8869FE00DF11D99
:101600001124E058FF4FA770AA2349F1B0E0A65D6E
:10161000BC4F8C910130110529F038F002301105D2
:10162000D9F01DC09081892B03C0809590818923BA
:10163000808315C088EF8A0F86958695869570E819
:10164000879FE00DF11D1124E058FF4FA77039F07E
:10165000B0E0A65DBC4F8C9190818927E9CFDF91E6
:10166000CF911F910F910895FC0177FD9AC080855D
:101670009185681779070CF094C057FD92C0828558
:101680009385481759070CF08CC08589823009F082
:101690007CC084819581DC01A61BB70BBD01615024
:1016A000710986819781FC01E41BF50BAF01415064
:1016B00051090AC0813041F484819581841B950BC6
:1016C000AB01BC01615071092130310529F008F1ED
:1016D00022303105E1F10895FA0157FD3796A3E074
:1016E000F595E795AA95E1F7F695FE2FEE27F79584
:1016F000E7956E0F7F1FFB01E050FF4F47705527A6
:1017000081E090E001C0880F4A95EAF79081892B2B
:101710003AC0FA0157FD379623E0F595E7952A95EB
:10172000E1F7F695FE2FEE27F795E7956E0F7F1FF1
:10173000FB01E050FF4F4770552781E090E001C06A
:10174000880F4A95EAF78095908189231CC0FA0199
:1017500057FD379683E0F595E7958A95E1F7F6957D
:10176000FE2FEE27F795E7956E0F7F1FFB01E050E8
:10177000FF4F4770552781E090E001C0880F4A95E0
:10178000EAF79081892780830895833009F092CF0A
:1017900086819781861B970BBA01AC014150510994
:1017A00093CF089508958FEF9FEF08958FEF9FEFE8
:1017B00008958091320590E0919581959109089561
:1017C00085ED8093BC008091BC0084FDFCCF10921D
:1017D0000C0508954091E604262F30E0240F311DBA
:1017E00021323105DCF420910C052430C9F4FC01D0
:1017F00080E090E0861758F43091E6042191DC01F6
:10180000AC53BB4FA30FB11D2C930196F3CF809126
:10181000E604680F6093E60480E0089581E008958F
:1018200082E00895CF93DF9300D0CDB7DEB7CB0130
:10183000642F49835A830E94EA0B4981842F5A817D
:10184000952F0F900F90DF91CF910895CF93DF9355
:101850001F92CDB7DEB7698361E0CE0101960E9489
:10186000EA0B81E090E00F90DF91CF910895DC01C9
:10187000EC91F0E0CF01880F991FE80FF91FEE5EA1
:10188000F94F808186FF02C08F7B80830895CF92BD
:10189000DF92EF92FF92CF93DF93EC01603282E010
:1018A00078070CF03DC077FD06C0653B71052CF054
:1018B00064EB70E002C060E070E0898128E830E00D
:1018C0006901C81AD10887FDD394CC0CDD1CCC0C5F
:1018D000DD1C0D2C000CEE08FF088A8128E532E0A3
:1018E000281B310987FD3395220F331F220F331F29
:1018F000C901330FAA0BBB0B9C01AD012C193D098B
:101900004E095F09DB010E94B31E24EB30E040E08A
:1019100050E00E94891EC20ED31EE41EF51EB601C1
:1019200088818C3080F5998148E850E0491B510945
:1019300097FD5395440F551F440F551F64177507A6
:1019400084F09A8128E532E0291B310997FD33950F
:10195000220F331F220F331FAB01261737070CF45A
:10196000A90142505109440F551F2FB7F89490E038
:10197000FC01EE0FFF1F8E0F9F1FFC01EE5EF94F63
:10198000528341832FBFDF91CF91FF90EF90DF9083
:10199000CF9008951F920F920FB60F9211242F939C
:1019A0003F934F935F936F937F938F939F93AF93E7
:1019B000BF93EF93FF938091330587FF05C010928B
:1019C0008500109284001BC020913305022E000C6C
:1019D000330B8091360690E02817390784F4809104
:1019E0003305082E000C990BFC01EE0FFF1F8E0F24
:1019F0009F1FFC01EE5EF94F808186FD15C080912E
:101A000033058F5F8093330520913305022E000C40
:101A1000330B8091360690E028173907C4F4809183
:101A200033058C3064F113C080913305082E000C0F
:101A3000990BFC01EE0FFF1F8E0F9F1FFC01EE5E46
:101A4000F94F808160E08F730E944710D8CF80915A
:101A5000840090918500049680349C4918F480E4B9
:101A60009CE905C080918400909185000496909334
:101A70008900809388008FEF809333053BC02091CD
:101A800084003091850080913305082E000C990B5D
:101A9000FC01EE0FFF1F8E0F9F1FFC01EE5EF94F42
:101AA00081819281820F931F909389008093880097
:101AB00080913305082E000C990BFC01EE0FFF1FDF
:101AC0008E0F9F1FFC01EE5EF94F808186FF12C0D2
:101AD00080913305082E000C990BFC01EE0FFF1FBF
:101AE0008E0F9F1FFC01EE5EF94F808161E08F73C6
:101AF0000E944710FF91EF91BF91AF919F918F91FD
:101B00007F916F915F914F913F912F910F900FBEF9
:101B10000F901F9018951F920F920FB60F921124DD
:101B20002F933F934F935F936F937F938F939F93E5
:101B3000AF93BF93EF93FF938091B900887F803676
:101B400009F49CC068F5883209F45BC090F48031D8
:101B500009F454C038F4882309F4F6C0883009F435
:101B60004DC0F6C0883109F44CC0803209F45DC024
:101B7000EFC0803409F468C048F4803309F455C0DC
:101B8000883309F0E5C080930B05D8C0803509F48F
:101B90004FC0883509F45DC0883409F0D9C0D6C07B
:101BA000883909F4C7C0A8F4883709F467C038F445
:101BB000883609F463C0803709F460C0C9C088382A
:101BC00009F4B8C0803909F45FC0803809F0C0C09A
:101BD0005BC0803B09F486C038F4803A09F466C0E3
:101BE000883A09F47FC0B4C0803C09F4A7C0883C9F
:101BF00009F4A4C0883B09F48AC0AAC080913105C9
:101C000010C09091300580912F05981770F5E091E4
:101C1000300581E08E0F80933005F0E0E15FFA4FF0
:101C200080818093BB0085EC86C080930B058EC0BD
:101C3000E091300581E08E0F809330058091BB00EC
:101C4000F0E0E15FFA4F80839091300580912F059D
:101C50006EC0E091300581E08E0F80933005809159
:101C6000BB00F0E0E15FFA4F808380910E058111A7
:101C70006DC081E080930D0584EA61C083E08093AC
:101C80000C0510920A05CFCF80910A05803208F02A
:101C900051C0E0910A0581E08E0F80930A05809182
:101CA000BB00F0E0E651FB4F8083BDCF85EC809315
:101CB000BC0010920C0580910A05803230F4E0914E
:101CC0000A05F0E0E651FB4F108260910A0570E0D2
:101CD000E091E804F091E9048AEE94E0099510920D
:101CE0000A0536C084E080930C051092E704109238
:101CF000E604E091E404F091E50409958091E6049E
:101D0000811105C081E08093E6041092C404E09143
:101D1000E70481E08E0F8093E704F0E0EC53FB4F83
:101D200080818093BB009091E7048091E60498172E
:101D300008F479CF85E88093BC000AC085EC8093D5
:101D4000BC0010920C0504C010920B050E94E00B21
:101D5000FF91EF91BF91AF919F918F917F916F9183
:101D60005F914F913F912F910F900FBE0F901F9059
:101D700018953FB7F8948091430590914405A09140
:101D80004505B091460526B5A89B05C02F3F19F023
:101D90000196A11DB11D3FBFBA2FA92F982F8827EB
:101DA000820F911DA11DB11DBC01CD0142E0660F46
:101DB000771F881F991F4A95D1F70895CF92DF9218
:101DC000EF92FF920F931F93CF93DF936C017A01F1
:101DD0008B01C0E0D0E0CE15DF0589F0D8016D9110
:101DE0008D01D601ED91FC910190F081E02DC601AD
:101DF0000995892B11F47E0102C02196ECCFC70111
:101E0000DF91CF911F910F91FF90EF90DF90CF90D6
:101E10000895FC01918D828D981761F0828DDF010C
:101E2000A80FB11D5D968C91928D9F5F9F73928FCD
:101E300090E008958FEF9FEF0895FC01918D828DC2
:101E4000981731F0828DE80FF11D858D90E008958F
:101E50008FEF9FEF0895FC01918D228D892F90E0E7
:101E6000805C9F4F821B91098F739927089585E7A6
:101E700095E00E942B0F21E0892B09F420E0822FAE
:101E80000895FC01848DDF01A80FB11DA35ABF4F37
:101E90002C91848D90E001968F739927848FA68969
:101EA000B7892C93A089B1898C9180648C93938D90
:101EB000848D981306C00288F389E02D80818F7D80
:101EC00080830895EF92FF920F931F93CF93DF9338
:101ED000EC0181E0888F9B8D8C8D981305C0E8897B
:101EE000F989808185FD24C0F62E0B8D10E00F5FEF
:101EF0001F4F0F731127E02E8C8DE8120CC00FB608
:101F000007FCFACFE889F989808185FFF5CFCE01FA
:101F10000E94410FF1CF8B8DFE01E80FF11DE35AB6
:101F2000FF4FF0820B8FEA89FB898081806207C0B6
:101F3000EE89FF896083E889F989808180648083E4
:101F400081E090E0DF91CF911F910F91FF90EF9092
:101F50000895CF93DF93EC01888D8823C9F0EA8937
:101F6000FB89808185FD05C0A889B9898C9186FD92
:101F70000FC00FB607FCF5CF808185FFF2CFA8898F
:101F8000B9898C9185FFEDCFCE010E94410FE7CF3B
:101F9000DF91CF91089580E090E0892B29F00E9495
:101FA000370F81110C94000008950895FC016370AF
:101FB000658B8481958126813781613039F063306A
:101FC00029F091878087338722870895318720877A
:101FD0009387828708950F931F93CF93DF93CDB795
:101FE000DEB7A0970FB6F894DEBF0FBECDBF28E0D6
:101FF000EAE3F3E0DE01599601900D922A95E1F7AC
:1020000028E0E2E4F3E0DE01519601900D922A957A
:10201000E1F78E010F5F1F4F20E1F80111922A9521
:10202000E9F726EAAC012403C001259F900D112495
:10203000BC01990F880B990B0E94CA1C2BED3FE045
:1020400049E450E40E947F1D20E030E044E353E483
:102050000E94201C69877A878B879C876D877E8783
:102060008F87988BA801BE016F5E7F4FCE01499686
:102070000E946B17A0960FB6F894DEBF0FBECDBFBF
:10208000DF91CF911F910F9108950E947C1E90E0E7
:10209000FC01E353FA4F3491FC01E754FA4F2491C9
:1020A000FC01EB55FA4FE491EE2309F43BC03323D6
:1020B00039F1333091F038F43130A9F0323001F594
:1020C00084B58F7D12C0373091F03830A1F03430B4
:1020D000B9F4809180008F7D03C0809180008F775C
:1020E000809380000DC084B58F7784BD09C0809136
:1020F000B0008F7703C08091B0008F7D8093B000D7
:10210000F0E0EE0FFF1FE556FA4FA591B4918FB79F
:10211000F894EC91611103C020952E2301C02E2B61
:102120002C938FBF0895CF93DF9390E0FC01E75489
:10213000FA4F2491FC01EB55FA4F8491882361F109
:1021400090E0880F991FFC01EF56FA4FC591D4918A
:10215000FC01E556FA4FA591B491611109C09FB7F2
:10216000F8948881209582238883EC912E230BC0DC
:10217000623061F49FB7F8943881822F8095832371
:102180008883EC912E2B2C939FBF06C08FB7F894B9
:10219000E8812E2B28838FBFDF91CF9108958F92F6
:1021A0009F92AF92BF92CF92DF92EF92FF926B011C
:1021B0007C010E94B90E4B015C01C114D104E10401
:1021C000F104F1F00E94B90EDC01CB0188199909E4
:1021D000AA09BB09883E9340A105B10570F321E02F
:1021E000C21AD108E108F10888EE880E83E0981E33
:1021F000A11CB11CC114D104E104F10419F7DDCF15
:10220000FF90EF90DF90CF90BF90AF909F908F9016
:1022100008952FB7F89460913F0570914005809123
:102220004105909142052FBF08951F920F920FB65E
:102230000F9211242F933F938F939F93AF93BF934C
:1022400080913F0590914005A0914105B0914205D4
:1022500030913E0523E0230F2D3720F40196A11D78
:10226000B11D05C026E8230F0296A11DB11D2093C4
:102270003E0580933F0590934005A0934105B093A0
:1022800042058091430590914405A0914505B09188
:1022900046050196A11DB11D809343059093440509
:1022A000A0934505B0934605BF91AF919F918F9143
:1022B0003F912F910F900FBE0F901F9018951F9276
:1022C0000F920FB60F9211242F933F934F935F936A
:1022D0006F937F938F939F93AF93BF93EF93FF93EE
:1022E0008091370590913805A0913905B0913A0554
:1022F000892B8A2B8B2B59F180913605E09134057F
:10230000F0913505908189278083809137059091E0
:102310003805A0913905B0913A05181619061A0624
:102320001B060CF03DC08091370590913805A091B7
:102330003905B0913A050197A109B1098093370594
:1023400090933805A0933905B0933A0529C0809140
:102350000003E6E8F5E0E4919FEF90930003E1309D
:10236000B9F098F0E230C9F4909170009D7F90939D
:10237000700091E09093B0009091B100987F9460CC
:102380009093B1001092B30008C010926E0005C087
:1023900090916F009D7F90936F0060E00E944710C6
:1023A000FF91EF91BF91AF919F918F917F916F912D
:1023B0005F914F913F912F910F900FBE0F901F9003
:1023C00018951F920F920FB60F9211242F933F93DF
:1023D0004F935F936F937F938F939F93AF93BF932D
:1023E000EF93FF9385E795E00E94410FFF91EF91F6
:1023F000BF91AF919F918F917F916F915F914F911D
:102400003F912F910F900FBE0F901F9018951F9224
:102410000F920FB60F9211242F938F939F93EF93E8
:10242000FF93E0918505F09186058081E0918B0511
:10243000F0918C0582FD12C0908180918E058F5F96
:102440008F7320918F05821751F0E0918E05F0E097
:10245000EB58FA4F958F80938E0501C08081FF91D4
:10246000EF919F918F912F910F900FBE0F901F9022
:1024700018951F93CF93DF93EC019881292F30E0BB
:10248000F901EE0FFF1F2E0F3F1FF901EE5EF94F0E
:10249000808186FD83C0162F9C3008F04EC061E01D
:1024A000812F0E9493108881E82FF0E09F01220F76
:1024B000331FE20FF31FEE5EF94F1F736081607CE4
:1024C000162B108319821A826CE00E94881B9CE0F4
:1024D000899FB001112440E050E09A01260F371F78
:1024E000F901EE0FFF1F2E0F3F1FF901EE5EF94FAE
:1024F000908196FD16C04F5F5F4F4C30510569F7D4
:1025000081110FC01092800082E0809381001092B0
:10251000850010928400B19A80916F008260809350
:102520006F00E881F0E0CF01880F991FE80FF91FD5
:10253000EE5EF94F8081806480836AE570E0CE01B1
:102540000E94470C8EE190E09E8F8D8F80ED97E08A
:1025500098878F8380E090E0A4E8B2E4898F9A8F17
:10256000AB8FBC8F8AE198EFA2ECBDE38D8B9E8B85
:10257000AF8BB88F1F8E18A219A21AA28DE290E01D
:102580009C838B83198A1A8A1B8A1C8A19861A864D
:102590001B861C861E821D821FA218A6DF91CF916A
:1025A0001F9108952F923F924F925F926F927F9268
:1025B0008F929F92AF92BF92CF92DF92EF92FF9253
:1025C0000F931F93CF93DF9300D000D0CDB7DEB72A
:1025D000280139017B014C0192E4292E96E0392E25
:1025E0006A018B01085F1F4F24E8A22E23E0B22E60
:1025F000F701819191917F01F10193838283F4012D
:10260000819191914F01F10191838083B582A482E0
:10261000628D738DC5010E94941B80E090E00E9442
:10262000C81C9B01AC01F101668B778B808F918F69
:102630006BED7FE089EC90E40E94201CF101628B3D
:10264000738B848B958BF60181919191A191B191BE
:102650006F01F10186839783A087B187F9E22F0E7E
:10266000311CE016F10621F60E9409110E94C81CD7
:102670006B017C0120E030E041E654E4C301B2018B
:102680000E947F1DA70196010E94AF1B4B015C01B8
:10269000A5019401C701B6010E941B1C18160CF479
:1026A000ADC08FE3282E86E0382E00E010E00E94B7
:1026B0000911F10163A374A385A396A3C78CD0A0CD
:1026C000E1A0F2A02B013C014C185D086E087F08C8
:1026D000C58CD68CE12CF12CC414D504E604F70487
:1026E0000CF07CC0678F70A381A392A3C801895CA2
:1026F000994F7C01FC0187A5811160C0F101218502
:1027000032854385548561897289838994890E94C1
:10271000AF1B0E94EC1D9B01AC01F1016381748130
:1027200080E090E029833A834B835C830E94C81C3D
:1027300029813A814B815C810E947F1D2B013C01E4
:10274000F1016581768180E090E00E94C81C9B01C8
:10275000AC01C301B2010E94AF1B2B013C0120E080
:1027600030E0A9010E947A1D20E030E040E05FE304
:1027700087FD05C0C301B2010E94AF1B04C0C301A5
:10278000B2010E94AE1B0E94921CF1017687658700
:10279000F70180A9882331F0719561957109F101E4
:1027A00076876587F10165857685665A7F4F8785CF
:1027B0009089680F791FC1010E94470CF10125899A
:1027C00036894789508D61897289838994890E94ED
:1027D000AF1BF101618B728B838B948B075D1F4F55
:1027E000F9E22F0E311C043A110509F060CF0E9466
:1027F00009110E94C81C6B017C014ACF0F900F90F9
:102800000F900F90DF91CF911F910F91FF90EF905C
:10281000DF90CF90BF90AF909F908F907F906F9000
:102820005F904F903F902F9008956091E7067091D0
:10283000E8068FE396E00E9439126091E9067091F4
:10284000EA0688E696E00E9439126091EB067091E4
:10285000EC0681E996E00E9439126091ED067091D4
:10286000EE068AEB96E00C9439122F923F924F922B
:102870005F926F927F928F929F92AF92BF92CF9210
:10288000DF92EF92FF920F931F93CF93DF93CDB719
:10289000DEB72C970FB6F894DEBF0FBECDBF88E031
:1028A000E3E5F3E0DE01119601900D928A95E1F7E0
:1028B0000E94151480911B07811110921B078E0135
:1028C0000F5F1F4F5E0189E0A80EB11C3BE0E32EB5
:1028D00037E0F32E47EFC42E46E0D42EF801619185
:1028E00071918F01F601819191916F01681B790BB4
:1028F000072E000C880B990B0E94CA1C20E030E0C8
:1029000048E452E40E94201CF70161937193819383
:1029100091937F010A151B0509F70E940911DC013B
:10292000CB018C509E4FAF4FBF4F809303079093C6
:102930000407A0930507B0930607EE24E394F12C57
:102940000E940911009103071091040720910507C7
:1029500030910607601771078207930708F068C077
:102960000E940911DC01CB010A96A11DB11D8093C3
:10297000070790930807A0930907B0930A070FE38E
:1029800016E08BE0C82E87E0D82E97EF292E96E030
:10299000392E27010F2C000C66087708F101619190
:1029A00071911F01F60121913191419151916F0176
:1029B000072E000C880B990B29873A874B875C8779
:1029C0000E94CA1C4B015C01C301B2010E94CA1CD7
:1029D00029853A854B855C850E947F1D9B01AC0152
:1029E000C501B4010E94AF1B0E94921CF80127850B
:1029F0003089620F731FC8010E94470C075D1F4F8B
:102A0000FBE1CF16F7E0DF0649F60E9409110091BD
:102A10000707109108072091090730910A076017EE
:102A200071078207930788F38FEFE81AF80A88CFB7
:102A300089819A819093F8068093F7068B819C8117
:102A40009093FA068093F9068D819E819093FC06FF
:102A50008093FB068F8198859093FE068093FD06F8
:102A60008FE396E00E94370C88E696E00E94370CD0
:102A700081E996E00E94370C8AEB96E00E94370CC1
:102A800081E080931B072C960FB6F894DEBF0FBE33
:102A9000CDBFDF91CF911F910F91FF90EF90DF900D
:102AA000CF90BF90AF909F908F907F906F905F90EE
:102AB0004F903F902F900895CF93DF93009779F038
:102AC000FC0101900020E9F73197AF01481B590B39
:102AD000BC0185E795E00E94DE0EEC0102C0C0E07B
:102AE000D0E042E050E066EB74E085E795E00E94BC
:102AF000DE0E8C0F9D1FDF91CF9108959FB7F89444
:102B0000A7E4B5E09196ED91FC9192972081909683
:102B10008C91822B80839FBF08959FB7F894A7E480
:102B2000B5E05E96ED91FC915F9720815D968C916A
:102B3000822B80839FBF08959FB7F894A7E4B5E0E8
:102B40005B96ED91FC915C9720815A968C91822B3B
:102B500080839FBF08958F929F92AF92BF92CF9232
:102B6000DF92EF92FF920F931F93CF93DF93C0E01A
:102B7000D0E010E0E82E880FFF088BE0C82ED12CA3
:102B8000812C912C540183940C2FC7010C2E02C070
:102B9000959587950A94E2F780FF03C00E948D15F2
:102BA0000DC02FB7F894E0916505F091660590810E
:102BB000809164058095892380832FBF2FB7F89477
:102BC000E0916205F09163059081809161058095A7
:102BD000892380832FBFC6010197F1F7E0916B0530
:102BE000F0916C05908180916A05892351F0D5019F
:102BF000C40104C0880F991FAA1FBB1F0A95D2F7F2
:102C0000182B0E949C152196C830D10509F0BCCF25
:102C10000E948D1587E090E00197F1F7812FDF91F9
:102C2000CF911F910F91FF90EF90DF90CF90BF90C9
:102C3000AF909F908F9008952FB7F894A7E4B5E0D8
:102C40009196ED91FC919297908190968C918095C0
:102C5000892380832FBF0895EF92FF920F931F93D4
:102C6000CF93DF937C01C62F0E941C168701D0E012
:102C7000C8018E199F098C179D0734F4F8018191C2
:102C80008F010E94AB15F4CF0E947E1560917105F3
:102C900070E080E090E0DF91CF911F910F91FF9065
:102CA000EF900C94CF1065E081E293E00E942C1627
:102CB00069E088E193E00E942C16809173058823D7
:102CC00029F065E083E193E00E942C168091740561
:102CD000882329F069E08AE093E00E942C1669E0DD
:102CE00081E093E00C942C166F927F928F929F92CA
:102CF000AF92BF92CF92DF92EF92FF921F93CF934A
:102D0000DF93CDB7DEB729970FB6F894DEBF0FBEBD
:102D1000CDBF0E940911C0906D05D0906E05E09066
:102D20006F05F09070056C197D098E099F090E944E
:102D3000C81C6B017C0120E030E84BEB54E40E949E
:102D40007A1D181614F40E9453166091710570E0F4
:102D500080E090E00E94CA1C4B015C019B01AC0129
:102D6000C701B6010E941B1C87FF0AC0A70196017C
:102D7000C501B4010E94AE1B0E94991C0E94CF1095
:102D8000CE0101967C0189E0F70111928A95E9F75D
:102D900081E0898382E48A8315E027E0C22ED12C6A
:102DA0005E01FAE0AF0EB11C0E948D150E949C15C9
:102DB0000E941C16C6010197F1F7470197E4692E9E
:102DC00095E0792EF40181914F010E94AB15F3013A
:102DD00081933F018A149B04A9F7809148058937A4
:102DE00041F00E947E1580914805807F803789F4EC
:102DF0001CC080E5882E85E0982E80E00E94AB15EF
:102E0000F40181934F01FCE58F16F5E09F06A9F7C9
:102E1000E8CF0E9453166091710570E080E090E069
:102E20000E94CF10115009F0BFCF80914805807FDC
:102E3000803739F0809171058A3018F48F5F809364
:102E4000710580915F059091600590935E05809378
:102E50005D0580914A0590914B05909360058093A4
:102E60005F050E94091160936D0570936E05809354
:102E70006F059093700529960FB6F894DEBF0FBECC
:102E8000CDBFDF91CF911F91FF90EF90DF90CF905A
:102E9000BF90AF909F908F907F906F900895BC01EE
:102EA00020915F0530916005A90140955095482318
:102EB000592391E0452B09F490E040915D05509134
:102EC0005E05242735272623372381E0232B09F4A9
:102ED00080E0892308950F931F93CF93DF9300D051
:102EE00000D000D0CDB7DEB74D835E836B837C838B
:102EF00089839A830E94151420911B074D815E815E
:102F00006B817C8189819A81211110921B0700E0DD
:102F100010E098010E94D21226960FB6F894DEBFF8
:102F20000FBECDBFDF91CF911F910F910895CF9329
:102F3000DF93CDB7DEB7A0970FB6F894DEBF0FBE14
:102F4000CDBF28E0EBE5F3E0DE01599601900D924C
:102F50002A95E1F728E0E3E6F3E0DE0151960190DF
:102F60000D922A95E1F720E1EBE6F3E0DE01119600
:102F700001900D922A95E1F7019739F48EE190E0E6
:102F80009A8F898F8AE090E006C08AE090E09A8F5D
:102F9000898F8EE190E09C8F8B8FAE014F5F5F4FEA
:102FA000BE016F5E7F4FCE0149960E946B17A096BF
:102FB0000FB6F894DEBF0FBECDBFDF91CF9108955D
:102FC000CF93DF93CDB7DEB729970FB6F894DEBF66
:102FD0000FBECDBF789484B5826084BD84B5816016
:102FE00084BD85B5826085BD85B5816085BD8091D4
:102FF0006E00816080936E0010928100809181004C
:103000008260809381008091810081608093810043
:10301000809180008160809380008091B100846005
:103020008093B1008091B00081608093B000809166
:103030007A00846080937A0080917A008260809325
:103040007A0080917A00816080937A0080917A0082
:10305000806880937A001092C100E0918505F0911C
:10306000860582E08083E0918105F09182051082DF
:10307000E0918305F09184058FEC808310928D059B
:10308000E0918905F0918A0586E08083E0918705CB
:10309000F0918805808180618083E0918705F091BF
:1030A0008805808188608083E0918705F09188059C
:1030B000808180688083E0918705F0918805808118
:1030C0008F7D8083E1ECF5E0E491E0936105EDEA2A
:1030D000F5E0E491F0E0EE0FFF1FE556FA4F859121
:1030E00094919093630580936205E3ECF5E0E4919D
:1030F000E0936405EFEAF5E0E491F0E0EE0FFF1FE6
:10310000E556FA4F859194919093660580936505F5
:10311000E7ECF5E0E491E0936705E3EBF5E0E4919B
:10312000F0E0EE0FFF1FE556FA4F859194919093D2
:10313000690580936805E2ECF5E0E491E0936A05A7
:10314000EEEAF5E0E491F0E0EE0FFF1FE957FA4FE9
:103150008591949190936C0580936B0561E088E074
:103160000E94931061E08EE00E94931061E08AE07B
:103170000E94931060E089E00E94931061E089E072
:103180000E9447100E948D150E949C150E94741683
:103190000E94741680914805813429F0833719F014
:1031A000893709F05CC081E0809371059BE0E92ECE
:1031B000F12C27E0A22EB12C9924939465E081E2B2
:1031C00093E00E942C16C5010197F1F70E948D151E
:1031D0000E949C150E941C16C5010197F1F70AE494
:1031E00013E0FE0131966F01F80181918F010E9479
:1031F000AB15F60181936F01F3E003351F07A1F7CB
:103200000E947E158C818093720569E088E193E0CD
:103210000E942C1665E083E193E00E942C169092A8
:10322000730569E08AE093E00E942C169092740581
:1032300069E081E093E00E942C160E947416809150
:103240004805893771F0833771F081E0E81AF10899
:1032500061F0809171058F5F80937105AFCF81E040
:1032600005C080E003C083E001C082E0282F30E089
:1032700030933C0520933B05811103C083EC93E020
:1032800002C088EE93E00E945C1582E090E090938B
:10329000E8068093E70683E090E09093EA06809347
:1032A000E90684E090E09093EC068093EB0685E0DD
:1032B00090E09093EE068093ED060E941514109214
:1032C0001B0787E3E82E86E0F82E00E010E0C80137
:1032D0000E94811E282F30E0213831050CF03A95EC
:1032E000F701308F278B0F5F1F4FF9E2EF0EF11CB4
:1032F0000430110561F78AE590E09093F806809319
:10330000F7069093FA068093F9069093FC06809353
:10331000FB069093FE068093FD0688E090E0909374
:10332000E4068093E30689E090E09093E6068093BC
:10333000E50661E088E00E94931060E08091E50678
:103340000E9493108AE090E0909300078093FF061C
:1033500084E190E0909302078093010761E08AE0A6
:103360000E94931060E084E10E94931080911B07FB
:10337000811102C00E94351462E370E080E090E0A9
:103380000E94CF100E9474168091560580933D05CF
:1033900080915F05909160058095909584FF03C0B2
:1033A00081E090E004C086FF05C08FEF9FEF0E9490
:1033B000EB0F0BC087FF03C081E090E004C085FFE6
:1033C00004C08FEF9FEF0E94971780E090E40E9467
:1033D0004F17882321F083E094E00E945C1580E081
:1033E00090E80E944F17882321F083E194E00E9427
:1033F0005C1580E090E20E944F17882321F08AE25A
:1034000094E00E945C1580E090E10E944F178823B1
:1034100021F080E494E00E945C1580E094E00E943A
:103420004F17882321F088E594E00E945C1580E026
:1034300091E00E944F17882321F089E694E00E94D2
:103440005C1580E098E00E944F17882321F08AE7FE
:1034500094E00E945C1580E092E00E944F17882360
:1034600021F08BE894E00E945C1581E090E00E94DE
:103470004F17882329F08CE994E00E945C1512C054
:1034800088E090E00E944F17882361F080911B072D
:10349000811102C00E94351462E370E080E090E088
:1034A0000E94CF1062E370E080E090E00E94CF10B5
:1034B0000E94CB0F67CFCF93DF93109278051092C5
:1034C000770588EE93E0A0E0B0E0809379059093D3
:1034D0007A05A0937B05B0937C052FE733E030930A
:1034E00076052093750525EC30E030938205209316
:1034F000810524EC30E0309384052093830520EC93
:1035000030E0309386052093850521EC30E0309340
:1035100088052093870522EC30E030938A052093BC
:10352000890526EC30E030938C0520938B051092B2
:103530008E0510928F0510929005109291051092B1
:103540001F0710921E078093200790932107A093D6
:103550002207B09323078FE893E090931D07809391
:103560001C0710922B0710922A0720E830E03093B6
:103570002D0720932C0780E290E090932F078093F3
:103580002E073093310720933007909333078093B1
:10359000320710923D0710923507109234071092AF
:1035A00037071092360781E080933C072FEF3FEFFB
:1035B00030933B0720933A0730933907209338071D
:1035C00080933E0710923F071092410710924007E8
:1035D0008FE993E090932907809328078FEF8093DA
:1035E000440780934807809346078093450784E00B
:1035F00080934707109237061092380610923906CA
:1036000010923A068BE080933B068DE080933C0657
:103610008CE080933D0661E08BE00E94931061E0B6
:1036200080913C060E94931061E080913D060E94CB
:10363000931060E080913B060E94471060E080910B
:103640003C060E94471060E080913D060E944710B2
:10365000C0E0D0E08091370690913806A0913906FD
:10366000B0913A060C2E04C0B695A795979587950C
:103670000A94D2F7682F617080913B060E94471030
:1036800000000000000061E080913C060E944710AD
:1036900000000000000060E080913C060E9447109E
:1036A0002196CE31D105B1F661E080913D060E94B0
:1036B000471000000000000060E080913D060E947D
:1036C000471080913606EFE3F6E09FEF48EB5BE0B2
:1036D0008C3088F48083282F30E0D901AA0FBB1FDB
:1036E0002A0F3B1FD901AE5EB94F12965C934E93E1
:1036F00011978F5F01C09083108A1786B99626E0D4
:10370000E33EF20729F780933606DF91CF910895C3
:10371000991B79E004C0991F961708F0961B881F23
:103720007A95C9F780950895AA1BBB1B51E107C084
:10373000AA1FBB1FA617B70710F0A61BB70B881F41
:10374000991F5A95A9F780959095BC01CD010895D0
:10375000EE0FFF1F0590F491E02D09945058BB2700
:10376000AA270E94C61B0C94401D0E94321D38F0EF
:103770000E94391D20F039F49F3F19F426F40C946F
:103780002F1D0EF4E095E7FB0C94291DE92F0E94F4
:10379000511D58F3BA17620773078407950720F085
:1037A00079F4A6F50C94731D0EF4E0950B2EBA2F48
:1037B000A02D0B01B90190010C01CA01A001112437
:1037C000FF27591B99F0593F50F4503E68F11A16E3
:1037D000F040A22F232F342F4427585FF3CF469574
:1037E00037952795A795F0405395C9F77EF41F1696
:1037F000BA0B620B730B840BBAF09150A1F0FF0F60
:10380000BB1F661F771F881FC2F70EC0BA0F621F4B
:10381000731F841F48F4879577956795B795F7953B
:103820009E3F08F0B0CF9395880F08F09927EE0FD0
:103830009795879508950E94051D08F481E00895E5
:103840000E94341C0C94401D0E94391D58F00E94A7
:10385000321D40F029F45F3F29F00C94291D5111CD
:103860000C94741D0C942F1D0E94511D68F3992314
:10387000B1F3552391F3951B550BBB27AA2762176C
:103880007307840738F09F5F5F4F220F331F441F79
:10389000AA1FA9F335D00E2E3AF0E0E832D09150AD
:1038A0005040E695001CCAF72BD0FE2F29D0660F9A
:1038B000771F881FBB1F261737074807AB07B0E8DD
:1038C00009F0BB0B802DBF01FF2793585F4F3AF0E3
:1038D0009E3F510578F00C94291D0C94741D5F3F98
:1038E000E4F3983ED4F3869577956795B795F79569
:1038F0009F5FC9F7880F911D9695879597F9089551
:10390000E1E0660F771F881FBB1F621773078407EC
:10391000BA0720F0621B730B840BBA0BEE1F88F7FB
:10392000E09508950E94991C6894B1110C94741D3F
:1039300008950E94591D88F09F5798F0B92F992734
:10394000B751B0F0E1F0660F771F881F991F1AF08A
:10395000BA95C9F714C0B13091F00E94731DB1E05F
:1039600008950C94731D672F782F8827B85F39F05E
:10397000B93FCCF3869577956795B395D9F73EF423
:1039800090958095709561957F4F8F4F9F4F0895CB
:10399000E89409C097FB3EF49095809570956195E9
:1039A0007F4F8F4F9F4F9923A9F0F92F96E9BB279F
:1039B0009395F695879577956795B795F111F8CF1B
:1039C000FAF4BB0F11F460FF1BC06F5F7F4F8F4F86
:1039D0009F4F16C0882311F096E911C0772321F07C
:1039E0009EE8872F762F05C0662371F096E8862F14
:1039F00070E060E02AF09A95660F771F881FDAF76B
:103A0000880F9695879597F90895990F0008550F97
:103A1000AA0BE0E8FEEF16161706E807F907C0F054
:103A200012161306E407F50798F0621B730B840B5C
:103A3000950B39F40A2661F0232B242B252B21F436
:103A400008950A2609F4A140A6958FEF811D811DD6
:103A5000089597F99F6780E870E060E008959FEF10
:103A600080EC089500240A94161617061806090615
:103A7000089500240A9412161306140605060895E4
:103A8000092E0394000C11F4882352F0BB0F40F46C
:103A9000BF2B11F460FF04C06F5F7F4F8F4F9F4FAC
:103AA000089557FD9058440F551F59F05F3F71F02E
:103AB0004795880F97FB991F61F09F3F79F0879595
:103AC0000895121613061406551FF2CF4695F1DF1E
:103AD00008C0161617061806991FF1CF86957105AE
:103AE000610508940895E894BB2766277727CB01E2
:103AF00097F908950E94051D08F48FEF08950E941C
:103B0000921D0C94401D0E94321D38F00E94391DF8
:103B100020F0952311F00C94291D0C942F1D1124D5
:103B20000C94741D0E94511D70F3959FC1F3950F65
:103B300050E0551F629FF001729FBB27F00DB11D31
:103B4000639FAA27F00DB11DAA1F649F6627B00DC1
:103B5000A11D661F829F2227B00DA11D621F739FAA
:103B6000B00DA11D621F839FA00D611D221F749FB8
:103B70003327A00D611D231F849F600D211D822FFF
:103B8000762F6A2F11249F5750409AF0F1F0882326
:103B90004AF0EE0FFF1FBB1F661F771F881F915053
:103BA0005040A9F79E3F510580F00C94291D0C94BC
:103BB000741D5F3FE4F3983ED4F38695779567953F
:103BC000B795F795E7959F5FC1F7FE2B880F911D7D
:103BD0009695879597F908959F930E94F61D0F90EB
:103BE00007FCEE5F0C941F1E0C942F1D0E94591DA4
:103BF000D8F3E894E0E0BB279F57F0F02AED3FE0D0
:103C000049EC06C0EE0FBB0F661F771F881F28F018
:103C1000B23A62077307840728F0B25A620B730B3B
:103C2000840BE3959A9572F7803830F49A95BB0F20
:103C3000661F771F881FD2F790480C94351EEF93AC
:103C4000E0FF07C0A2EA2AED3FE049EC5FEB0E94EB
:103C5000C61B0E94401D0F90039401FC9058E8E69B
:103C6000F0E00C94411E9F3F31F0915020F4879575
:103C700077956795B795880F911D9695879597F9D4
:103C800008959F938F937F936F93FF93EF939B017F
:103C9000AC010E947F1DEF91FF910E94551E2F9154
:103CA0003F914F915F910C947F1DDF93CF931F93B2
:103CB0000F93FF92EF92DF927B018C01689406C014
:103CC000DA2EEF010E94921DFE01E894A591259144
:103CD000359145915591A6F3EF010E94C61BFE0157
:103CE0009701A801DA9469F7DF90EF90FF900F91A8
:103CF0001F91CF91DF91089581E090E0F8940C94AA
:103D0000EC1EF999FECF92BD81BDF89A992780B536
:103D10000895052E97FB1EF400940E94A01E57FDE7
:103D200007D00E94BB1E07FC03D04EF40C94A01ECB
:103D300050954095309521953F4F4F4F5F4F0895D7
:103D400090958095709561957F4F8F4F9F4F089507
:103D50000E94DD1EA59F900DB49F900DA49F800D25
:103D6000911D11240895B7FF0C94A81E0E94A81E4F
:103D7000821B930B0895A1E21A2EAA1BBB1BFD0107
:103D80000DC0AA1FBB1FEE1FFF1FA217B307E4073A
:103D9000F50720F0A21BB30BE40BF50B661F771F92
:103DA000881F991F1A9469F7609570958095909572
:103DB0009B01AC01BD01CF010895A29FB001B39F4B
:103DC000C001A39F700D811D1124911DB29F700D24
:0C3DD000811D1124911D0895F894FFCF6F
:103DDC0000000000000000000000000000000000D7
:103DEC0000000000000000000000000000000000C7
:103DFC0000000000000000000000000000000000B7
:103E0C000000000000000000000000000000008026
:103E1C008080000000000000000000000000000096
:103E2C00008080C0C0000000000000000000000006
:103E3C000000000000000000000000000000000076
:103E4C000000000000000000000000000000000066
:103E5C000000000000000000000000000000000056
:103E6C000000000080C0E0F0F8FCF8E0000000006A
:103E7C0000000000000000000000000000808080B6
:103E8C00808000808000000000808080808000FFA7
:103E9C00FFFF000000008080808000008080000018
:103EAC0080FFFF8080008080008080808000808088
:103EBC000000000000808000008C8E84000080F8E0
:103ECC00F8F8800000000000000000000000000076
:103EDC00F0F0F0F0F0F0F0F0F0F0F0F0E0E0C08096
:103EEC0000E0FCFEFFFFFF7FFFFFFFFFFF00000075
:103EFC000000000000000000000000FEFFC70101F0
:103F0C00010183FFFF00007CFEC70101010183FF5B
:103F1C00FFFF0038FEC78301010183C7FFFF0000CC
:103F2C0001FFFF010100FFFF0701010100007FFFFE
:103F3C0080000000FFFF7F0000FFFFFF000001FF7B
:103F4C00FFFF010000000000000000000000000066
:103F5C00030F3F7F7FFFFFFFFFFFFFFFE7C7C78F09
:103F6C008F9FBFFFFFC3C0F0FFFFFFFFFFFCFCFCF8
:103F7C00FCFCFCFCFCF8F8F0F0E0C00001030303CF
:103F8C000303010303000000000103030303010109
:103F9C0003010000000103030303010103030000FC
:103FAC0000030300000003030000000000000001F8
:103FBC0003030303030100000001030100000003DD
:103FCC0003010000000000000000000000000000E1
:103FDC00FF014300005A5A5A5A5A014F00FFFF037F
:103FEC00000000014D00000101440001030000002D
:103FFC0000014300010001000000000103070F1F36
:10400C003F7F0080C0E0F0F8FCFE1E001E00140094
:10401C001400000000000400FCFF0145005A5A5A2D
:10402C005A5A5A5A005A005A005A001E001E0014BE
:10403C00001400000000000400FCFF000000000061
:10404C00000000DB0FC9BFDB0FC9BF00000000621E
:10405C000FDE0E2B0F090F1D0FA90F0000000026FD
:10406C000C120CD90BD60BD30BD20B00000000FF9B
:10407C0004DE0E340BD307CC07A407C007B407D457
:10408C0007A307D60FD50F7E08D809CA06AC06358C
:10409C0006D605436F6E74726F6C61646F72206527
:1040AC006E636F6E747261646F207920636F6E66DD
:1040BC006967757261646F004572726F722C206D46
:1040CC00616E646F206E6F20656E636F6E747261CB
:1040DC00646F0050726573696F6E617374652058FC
:1040EC003A200050726573696F6E6173746520635A
:1040FC007561647261646F3A200050726573696F08
:10410C006E61737465207265646F6E646F3A200023
:10411C0050726573696F6E61737465207472696136
:10412C006E67756C6F3A200050726573696F6E61C3
:10413C00737465204C313A200050726573696F6E50
:10414C0061737465204C323A200050726573696F4C
:10415C006E617374652052313A2000507265736938
:10416C006F6E617374652052323A20005072657321
:10417C00696F6E617374652073656C656363696FD9
:0A418C006E61723A20000D0A000077
:00000001FF
